{
	"MetaCraftersAssesment6-main/contracts/DegenToken.sol": {
		"DegenToken": {
			"abi": [
				{
					"inputs": [],
					"stateMutability": "nonpayable",
					"type": "constructor"
				},
				{
					"inputs": [
						{
							"internalType": "address",
							"name": "spender",
							"type": "address"
						},
						{
							"internalType": "uint256",
							"name": "allowance",
							"type": "uint256"
						},
						{
							"internalType": "uint256",
							"name": "needed",
							"type": "uint256"
						}
					],
					"name": "ERC20InsufficientAllowance",
					"type": "error"
				},
				{
					"inputs": [
						{
							"internalType": "address",
							"name": "sender",
							"type": "address"
						},
						{
							"internalType": "uint256",
							"name": "balance",
							"type": "uint256"
						},
						{
							"internalType": "uint256",
							"name": "needed",
							"type": "uint256"
						}
					],
					"name": "ERC20InsufficientBalance",
					"type": "error"
				},
				{
					"inputs": [
						{
							"internalType": "address",
							"name": "approver",
							"type": "address"
						}
					],
					"name": "ERC20InvalidApprover",
					"type": "error"
				},
				{
					"inputs": [
						{
							"internalType": "address",
							"name": "receiver",
							"type": "address"
						}
					],
					"name": "ERC20InvalidReceiver",
					"type": "error"
				},
				{
					"inputs": [
						{
							"internalType": "address",
							"name": "sender",
							"type": "address"
						}
					],
					"name": "ERC20InvalidSender",
					"type": "error"
				},
				{
					"inputs": [
						{
							"internalType": "address",
							"name": "spender",
							"type": "address"
						}
					],
					"name": "ERC20InvalidSpender",
					"type": "error"
				},
				{
					"inputs": [
						{
							"internalType": "address",
							"name": "owner",
							"type": "address"
						}
					],
					"name": "OwnableInvalidOwner",
					"type": "error"
				},
				{
					"inputs": [
						{
							"internalType": "address",
							"name": "account",
							"type": "address"
						}
					],
					"name": "OwnableUnauthorizedAccount",
					"type": "error"
				},
				{
					"anonymous": false,
					"inputs": [
						{
							"indexed": true,
							"internalType": "address",
							"name": "owner",
							"type": "address"
						},
						{
							"indexed": true,
							"internalType": "address",
							"name": "spender",
							"type": "address"
						},
						{
							"indexed": false,
							"internalType": "uint256",
							"name": "value",
							"type": "uint256"
						}
					],
					"name": "Approval",
					"type": "event"
				},
				{
					"anonymous": false,
					"inputs": [
						{
							"indexed": true,
							"internalType": "address",
							"name": "redeemer",
							"type": "address"
						},
						{
							"indexed": false,
							"internalType": "uint256",
							"name": "itemId",
							"type": "uint256"
						},
						{
							"indexed": false,
							"internalType": "string",
							"name": "itemName",
							"type": "string"
						},
						{
							"indexed": false,
							"internalType": "uint256",
							"name": "itemCost",
							"type": "uint256"
						}
					],
					"name": "ItemRedeemed",
					"type": "event"
				},
				{
					"anonymous": false,
					"inputs": [
						{
							"indexed": true,
							"internalType": "address",
							"name": "previousOwner",
							"type": "address"
						},
						{
							"indexed": true,
							"internalType": "address",
							"name": "newOwner",
							"type": "address"
						}
					],
					"name": "OwnershipTransferred",
					"type": "event"
				},
				{
					"anonymous": false,
					"inputs": [
						{
							"indexed": true,
							"internalType": "address",
							"name": "from",
							"type": "address"
						},
						{
							"indexed": true,
							"internalType": "address",
							"name": "to",
							"type": "address"
						},
						{
							"indexed": false,
							"internalType": "uint256",
							"name": "value",
							"type": "uint256"
						}
					],
					"name": "Transfer",
					"type": "event"
				},
				{
					"inputs": [
						{
							"internalType": "address",
							"name": "owner",
							"type": "address"
						},
						{
							"internalType": "address",
							"name": "spender",
							"type": "address"
						}
					],
					"name": "allowance",
					"outputs": [
						{
							"internalType": "uint256",
							"name": "",
							"type": "uint256"
						}
					],
					"stateMutability": "view",
					"type": "function"
				},
				{
					"inputs": [
						{
							"internalType": "address",
							"name": "spender",
							"type": "address"
						},
						{
							"internalType": "uint256",
							"name": "value",
							"type": "uint256"
						}
					],
					"name": "approve",
					"outputs": [
						{
							"internalType": "bool",
							"name": "",
							"type": "bool"
						}
					],
					"stateMutability": "nonpayable",
					"type": "function"
				},
				{
					"inputs": [
						{
							"internalType": "address",
							"name": "account",
							"type": "address"
						}
					],
					"name": "balanceOf",
					"outputs": [
						{
							"internalType": "uint256",
							"name": "",
							"type": "uint256"
						}
					],
					"stateMutability": "view",
					"type": "function"
				},
				{
					"inputs": [
						{
							"internalType": "uint256",
							"name": "amount",
							"type": "uint256"
						}
					],
					"name": "burnTokens",
					"outputs": [],
					"stateMutability": "nonpayable",
					"type": "function"
				},
				{
					"inputs": [],
					"name": "decimals",
					"outputs": [
						{
							"internalType": "uint8",
							"name": "",
							"type": "uint8"
						}
					],
					"stateMutability": "pure",
					"type": "function"
				},
				{
					"inputs": [
						{
							"internalType": "uint256",
							"name": "",
							"type": "uint256"
						}
					],
					"name": "gameItems",
					"outputs": [
						{
							"internalType": "uint256",
							"name": "itemId",
							"type": "uint256"
						},
						{
							"internalType": "string",
							"name": "itemName",
							"type": "string"
						},
						{
							"internalType": "uint256",
							"name": "itemCost",
							"type": "uint256"
						}
					],
					"stateMutability": "view",
					"type": "function"
				},
				{
					"inputs": [],
					"name": "getBalance",
					"outputs": [
						{
							"internalType": "uint256",
							"name": "",
							"type": "uint256"
						}
					],
					"stateMutability": "view",
					"type": "function"
				},
				{
					"inputs": [],
					"name": "getGameItems",
					"outputs": [
						{
							"components": [
								{
									"internalType": "uint256",
									"name": "itemId",
									"type": "uint256"
								},
								{
									"internalType": "string",
									"name": "itemName",
									"type": "string"
								},
								{
									"internalType": "uint256",
									"name": "itemCost",
									"type": "uint256"
								}
							],
							"internalType": "struct DegenToken.GameItem[]",
							"name": "",
							"type": "tuple[]"
						}
					],
					"stateMutability": "view",
					"type": "function"
				},
				{
					"inputs": [],
					"name": "getOwnedItems",
					"outputs": [
						{
							"components": [
								{
									"internalType": "uint256",
									"name": "itemId",
									"type": "uint256"
								},
								{
									"internalType": "string",
									"name": "itemName",
									"type": "string"
								},
								{
									"internalType": "uint256",
									"name": "itemCost",
									"type": "uint256"
								}
							],
							"internalType": "struct DegenToken.GameItem[]",
							"name": "",
							"type": "tuple[]"
						}
					],
					"stateMutability": "view",
					"type": "function"
				},
				{
					"inputs": [
						{
							"internalType": "address",
							"name": "to",
							"type": "address"
						},
						{
							"internalType": "uint256",
							"name": "amount",
							"type": "uint256"
						}
					],
					"name": "mint",
					"outputs": [],
					"stateMutability": "nonpayable",
					"type": "function"
				},
				{
					"inputs": [],
					"name": "name",
					"outputs": [
						{
							"internalType": "string",
							"name": "",
							"type": "string"
						}
					],
					"stateMutability": "view",
					"type": "function"
				},
				{
					"inputs": [],
					"name": "owner",
					"outputs": [
						{
							"internalType": "address",
							"name": "",
							"type": "address"
						}
					],
					"stateMutability": "view",
					"type": "function"
				},
				{
					"inputs": [
						{
							"internalType": "uint256",
							"name": "itemId",
							"type": "uint256"
						}
					],
					"name": "redeem",
					"outputs": [],
					"stateMutability": "nonpayable",
					"type": "function"
				},
				{
					"inputs": [],
					"name": "renounceOwnership",
					"outputs": [],
					"stateMutability": "nonpayable",
					"type": "function"
				},
				{
					"inputs": [],
					"name": "symbol",
					"outputs": [
						{
							"internalType": "string",
							"name": "",
							"type": "string"
						}
					],
					"stateMutability": "view",
					"type": "function"
				},
				{
					"inputs": [],
					"name": "totalSupply",
					"outputs": [
						{
							"internalType": "uint256",
							"name": "",
							"type": "uint256"
						}
					],
					"stateMutability": "view",
					"type": "function"
				},
				{
					"inputs": [
						{
							"internalType": "address",
							"name": "to",
							"type": "address"
						},
						{
							"internalType": "uint256",
							"name": "value",
							"type": "uint256"
						}
					],
					"name": "transfer",
					"outputs": [
						{
							"internalType": "bool",
							"name": "",
							"type": "bool"
						}
					],
					"stateMutability": "nonpayable",
					"type": "function"
				},
				{
					"inputs": [
						{
							"internalType": "address",
							"name": "from",
							"type": "address"
						},
						{
							"internalType": "address",
							"name": "to",
							"type": "address"
						},
						{
							"internalType": "uint256",
							"name": "value",
							"type": "uint256"
						}
					],
					"name": "transferFrom",
					"outputs": [
						{
							"internalType": "bool",
							"name": "",
							"type": "bool"
						}
					],
					"stateMutability": "nonpayable",
					"type": "function"
				},
				{
					"inputs": [
						{
							"internalType": "address",
							"name": "newOwner",
							"type": "address"
						}
					],
					"name": "transferOwnership",
					"outputs": [],
					"stateMutability": "nonpayable",
					"type": "function"
				},
				{
					"inputs": [
						{
							"internalType": "address",
							"name": "recipient",
							"type": "address"
						},
						{
							"internalType": "uint256",
							"name": "amount",
							"type": "uint256"
						}
					],
					"name": "transferTokens",
					"outputs": [],
					"stateMutability": "nonpayable",
					"type": "function"
				}
			],
			"devdoc": {
				"errors": {
					"ERC20InsufficientAllowance(address,uint256,uint256)": [
						{
							"details": "Indicates a failure with the `spender`’s `allowance`. Used in transfers.",
							"params": {
								"allowance": "Amount of tokens a `spender` is allowed to operate with.",
								"needed": "Minimum amount required to perform a transfer.",
								"spender": "Address that may be allowed to operate on tokens without being their owner."
							}
						}
					],
					"ERC20InsufficientBalance(address,uint256,uint256)": [
						{
							"details": "Indicates an error related to the current `balance` of a `sender`. Used in transfers.",
							"params": {
								"balance": "Current balance for the interacting account.",
								"needed": "Minimum amount required to perform a transfer.",
								"sender": "Address whose tokens are being transferred."
							}
						}
					],
					"ERC20InvalidApprover(address)": [
						{
							"details": "Indicates a failure with the `approver` of a token to be approved. Used in approvals.",
							"params": {
								"approver": "Address initiating an approval operation."
							}
						}
					],
					"ERC20InvalidReceiver(address)": [
						{
							"details": "Indicates a failure with the token `receiver`. Used in transfers.",
							"params": {
								"receiver": "Address to which tokens are being transferred."
							}
						}
					],
					"ERC20InvalidSender(address)": [
						{
							"details": "Indicates a failure with the token `sender`. Used in transfers.",
							"params": {
								"sender": "Address whose tokens are being transferred."
							}
						}
					],
					"ERC20InvalidSpender(address)": [
						{
							"details": "Indicates a failure with the `spender` to be approved. Used in approvals.",
							"params": {
								"spender": "Address that may be allowed to operate on tokens without being their owner."
							}
						}
					],
					"OwnableInvalidOwner(address)": [
						{
							"details": "The owner is not a valid owner account. (eg. `address(0)`)"
						}
					],
					"OwnableUnauthorizedAccount(address)": [
						{
							"details": "The caller account is not authorized to perform an operation."
						}
					]
				},
				"events": {
					"Approval(address,address,uint256)": {
						"details": "Emitted when the allowance of a `spender` for an `owner` is set by a call to {approve}. `value` is the new allowance."
					},
					"Transfer(address,address,uint256)": {
						"details": "Emitted when `value` tokens are moved from one account (`from`) to another (`to`). Note that `value` may be zero."
					}
				},
				"kind": "dev",
				"methods": {
					"allowance(address,address)": {
						"details": "See {IERC20-allowance}."
					},
					"approve(address,uint256)": {
						"details": "See {IERC20-approve}. NOTE: If `value` is the maximum `uint256`, the allowance is not updated on `transferFrom`. This is semantically equivalent to an infinite approval. Requirements: - `spender` cannot be the zero address."
					},
					"balanceOf(address)": {
						"details": "See {IERC20-balanceOf}."
					},
					"decimals()": {
						"details": "Returns the number of decimals used to get its user representation. For example, if `decimals` equals `2`, a balance of `505` tokens should be displayed to a user as `5.05` (`505 / 10 ** 2`). Tokens usually opt for a value of 18, imitating the relationship between Ether and Wei. This is the default value returned by this function, unless it's overridden. NOTE: This information is only used for _display_ purposes: it in no way affects any of the arithmetic of the contract, including {IERC20-balanceOf} and {IERC20-transfer}."
					},
					"name()": {
						"details": "Returns the name of the token."
					},
					"owner()": {
						"details": "Returns the address of the current owner."
					},
					"renounceOwnership()": {
						"details": "Leaves the contract without owner. It will not be possible to call `onlyOwner` functions. Can only be called by the current owner. NOTE: Renouncing ownership will leave the contract without an owner, thereby disabling any functionality that is only available to the owner."
					},
					"symbol()": {
						"details": "Returns the symbol of the token, usually a shorter version of the name."
					},
					"totalSupply()": {
						"details": "See {IERC20-totalSupply}."
					},
					"transfer(address,uint256)": {
						"details": "See {IERC20-transfer}. Requirements: - `to` cannot be the zero address. - the caller must have a balance of at least `value`."
					},
					"transferFrom(address,address,uint256)": {
						"details": "See {IERC20-transferFrom}. Skips emitting an {Approval} event indicating an allowance update. This is not required by the ERC. See {xref-ERC20-_approve-address-address-uint256-bool-}[_approve]. NOTE: Does not update the allowance if the current allowance is the maximum `uint256`. Requirements: - `from` and `to` cannot be the zero address. - `from` must have a balance of at least `value`. - the caller must have allowance for ``from``'s tokens of at least `value`."
					},
					"transferOwnership(address)": {
						"details": "Transfers ownership of the contract to a new account (`newOwner`). Can only be called by the current owner."
					}
				},
				"version": 1
			},
			"evm": {
				"assembly": "    /* \"MetaCraftersAssesment6-main/contracts/DegenToken.sol\":168:2854  contract DegenToken is ERC20, Ownable {... */\n  mstore(0x40, 0x80)\n    /* \"MetaCraftersAssesment6-main/contracts/DegenToken.sol\":530:833  constructor() ERC20(\"Degen\", \"DGN\") Ownable(msg.sender) {... */\n  callvalue\n  dup1\n  iszero\n  tag_1\n  jumpi\n  0x00\n  dup1\n  revert\ntag_1:\n  pop\n    /* \"MetaCraftersAssesment6-main/contracts/DegenToken.sol\":574:584  msg.sender */\n  caller\n    /* \"@openzeppelin/contracts/token/ERC20/ERC20.sol\":1601:1714  constructor(string memory name_, string memory symbol_) {... */\n  mload(0x40)\n  dup1\n  0x40\n  add\n  0x40\n  mstore\n  dup1\n  0x05\n  dup2\n  mstore\n  0x20\n  add\n  0x446567656e000000000000000000000000000000000000000000000000000000\n  dup2\n  mstore\n  pop\n  mload(0x40)\n  dup1\n  0x40\n  add\n  0x40\n  mstore\n  dup1\n  0x03\n  dup2\n  mstore\n  0x20\n  add\n  0x44474e0000000000000000000000000000000000000000000000000000000000\n  dup2\n  mstore\n  pop\n    /* \"@openzeppelin/contracts/token/ERC20/ERC20.sol\":1675:1680  name_ */\n  dup2\n    /* \"@openzeppelin/contracts/token/ERC20/ERC20.sol\":1667:1672  _name */\n  0x03\n    /* \"@openzeppelin/contracts/token/ERC20/ERC20.sol\":1667:1680  _name = name_ */\n  swap1\n  dup2\n  tag_6\n  swap2\n  swap1\n  tag_7\n  jump\t// in\ntag_6:\n  pop\n    /* \"@openzeppelin/contracts/token/ERC20/ERC20.sol\":1700:1707  symbol_ */\n  dup1\n    /* \"@openzeppelin/contracts/token/ERC20/ERC20.sol\":1690:1697  _symbol */\n  0x04\n    /* \"@openzeppelin/contracts/token/ERC20/ERC20.sol\":1690:1707  _symbol = symbol_ */\n  swap1\n  dup2\n  tag_8\n  swap2\n  swap1\n  tag_7\n  jump\t// in\ntag_8:\n  pop\n    /* \"@openzeppelin/contracts/token/ERC20/ERC20.sol\":1601:1714  constructor(string memory name_, string memory symbol_) {... */\n  pop\n  pop\n    /* \"@openzeppelin/contracts/access/Ownable.sol\":1297:1298  0 */\n  0x00\n    /* \"@openzeppelin/contracts/access/Ownable.sol\":1273:1299  initialOwner == address(0) */\n  0xffffffffffffffffffffffffffffffffffffffff\n  and\n    /* \"@openzeppelin/contracts/access/Ownable.sol\":1273:1285  initialOwner */\n  dup2\n    /* \"@openzeppelin/contracts/access/Ownable.sol\":1273:1299  initialOwner == address(0) */\n  0xffffffffffffffffffffffffffffffffffffffff\n  and\n  sub\n    /* \"@openzeppelin/contracts/access/Ownable.sol\":1269:1364  if (initialOwner == address(0)) {... */\n  tag_10\n  jumpi\n    /* \"@openzeppelin/contracts/access/Ownable.sol\":1350:1351  0 */\n  0x00\n    /* \"@openzeppelin/contracts/access/Ownable.sol\":1322:1353  OwnableInvalidOwner(address(0)) */\n  mload(0x40)\n  0x1e4fbdf700000000000000000000000000000000000000000000000000000000\n  dup2\n  mstore\n  0x04\n  add\n  tag_11\n  swap2\n  swap1\n  tag_12\n  jump\t// in\ntag_11:\n  mload(0x40)\n  dup1\n  swap2\n  sub\n  swap1\n  revert\n    /* \"@openzeppelin/contracts/access/Ownable.sol\":1269:1364  if (initialOwner == address(0)) {... */\ntag_10:\n    /* \"@openzeppelin/contracts/access/Ownable.sol\":1373:1405  _transferOwnership(initialOwner) */\n  tag_13\n    /* \"@openzeppelin/contracts/access/Ownable.sol\":1392:1404  initialOwner */\n  dup2\n    /* \"@openzeppelin/contracts/access/Ownable.sol\":1373:1391  _transferOwnership */\n  shl(0x20, tag_14)\n    /* \"@openzeppelin/contracts/access/Ownable.sol\":1373:1405  _transferOwnership(initialOwner) */\n  0x20\n  shr\n  jump\t// in\ntag_13:\n    /* \"@openzeppelin/contracts/access/Ownable.sol\":1225:1412  constructor(address initialOwner) {... */\n  pop\n    /* \"MetaCraftersAssesment6-main/contracts/DegenToken.sol\":656:665  gameItems */\n  0x06\n    /* \"MetaCraftersAssesment6-main/contracts/DegenToken.sol\":671:705  GameItem(1, \"Endless Batlle\", 100) */\n  mload(0x40)\n  dup1\n  0x60\n  add\n  0x40\n  mstore\n  dup1\n    /* \"MetaCraftersAssesment6-main/contracts/DegenToken.sol\":680:681  1 */\n  0x01\n    /* \"MetaCraftersAssesment6-main/contracts/DegenToken.sol\":671:705  GameItem(1, \"Endless Batlle\", 100) */\n  dup2\n  mstore\n  0x20\n  add\n  mload(0x40)\n  dup1\n  0x40\n  add\n  0x40\n  mstore\n  dup1\n  0x0e\n  dup2\n  mstore\n  0x20\n  add\n  0x456e646c657373204261746c6c65000000000000000000000000000000000000\n  dup2\n  mstore\n  pop\n  dup2\n  mstore\n  0x20\n  add\n    /* \"MetaCraftersAssesment6-main/contracts/DegenToken.sol\":701:704  100 */\n  0x64\n    /* \"MetaCraftersAssesment6-main/contracts/DegenToken.sol\":671:705  GameItem(1, \"Endless Batlle\", 100) */\n  dup2\n  mstore\n  pop\n    /* \"MetaCraftersAssesment6-main/contracts/DegenToken.sol\":656:706  gameItems.push(GameItem(1, \"Endless Batlle\", 100)) */\n  swap1\n  dup1\n  0x01\n  dup2\n  sload\n  add\n  dup1\n  dup3\n  sstore\n  dup1\n  swap2\n  pop\n  pop\n  0x01\n  swap1\n  sub\n  swap1\n  0x00\n  mstore\n  keccak256(0x00, 0x20)\n  swap1\n  0x03\n  mul\n  add\n  0x00\n  swap1\n  swap2\n  swap1\n  swap2\n  swap1\n  swap2\n  pop\n  0x00\n  dup3\n  add\n  mload\n  dup2\n  0x00\n  add\n  sstore\n  0x20\n  dup3\n  add\n  mload\n  dup2\n  0x01\n  add\n  swap1\n  dup2\n  tag_17\n  swap2\n  swap1\n  tag_7\n  jump\t// in\ntag_17:\n  pop\n  0x40\n  dup3\n  add\n  mload\n  dup2\n  0x02\n  add\n  sstore\n  pop\n  pop\n    /* \"MetaCraftersAssesment6-main/contracts/DegenToken.sol\":716:725  gameItems */\n  0x06\n    /* \"MetaCraftersAssesment6-main/contracts/DegenToken.sol\":731:769  GameItem(2, \"Demon Hunter Sword\", 150) */\n  mload(0x40)\n  dup1\n  0x60\n  add\n  0x40\n  mstore\n  dup1\n    /* \"MetaCraftersAssesment6-main/contracts/DegenToken.sol\":740:741  2 */\n  0x02\n    /* \"MetaCraftersAssesment6-main/contracts/DegenToken.sol\":731:769  GameItem(2, \"Demon Hunter Sword\", 150) */\n  dup2\n  mstore\n  0x20\n  add\n  mload(0x40)\n  dup1\n  0x40\n  add\n  0x40\n  mstore\n  dup1\n  0x12\n  dup2\n  mstore\n  0x20\n  add\n  0x44656d6f6e2048756e7465722053776f72640000000000000000000000000000\n  dup2\n  mstore\n  pop\n  dup2\n  mstore\n  0x20\n  add\n    /* \"MetaCraftersAssesment6-main/contracts/DegenToken.sol\":765:768  150 */\n  0x96\n    /* \"MetaCraftersAssesment6-main/contracts/DegenToken.sol\":731:769  GameItem(2, \"Demon Hunter Sword\", 150) */\n  dup2\n  mstore\n  pop\n    /* \"MetaCraftersAssesment6-main/contracts/DegenToken.sol\":716:770  gameItems.push(GameItem(2, \"Demon Hunter Sword\", 150)) */\n  swap1\n  dup1\n  0x01\n  dup2\n  sload\n  add\n  dup1\n  dup3\n  sstore\n  dup1\n  swap2\n  pop\n  pop\n  0x01\n  swap1\n  sub\n  swap1\n  0x00\n  mstore\n  keccak256(0x00, 0x20)\n  swap1\n  0x03\n  mul\n  add\n  0x00\n  swap1\n  swap2\n  swap1\n  swap2\n  swap1\n  swap2\n  pop\n  0x00\n  dup3\n  add\n  mload\n  dup2\n  0x00\n  add\n  sstore\n  0x20\n  dup3\n  add\n  mload\n  dup2\n  0x01\n  add\n  swap1\n  dup2\n  tag_19\n  swap2\n  swap1\n  tag_7\n  jump\t// in\ntag_19:\n  pop\n  0x40\n  dup3\n  add\n  mload\n  dup2\n  0x02\n  add\n  sstore\n  pop\n  pop\n    /* \"MetaCraftersAssesment6-main/contracts/DegenToken.sol\":780:789  gameItems */\n  0x06\n    /* \"MetaCraftersAssesment6-main/contracts/DegenToken.sol\":795:825  GameItem(3, \"Windtalker\", 250) */\n  mload(0x40)\n  dup1\n  0x60\n  add\n  0x40\n  mstore\n  dup1\n    /* \"MetaCraftersAssesment6-main/contracts/DegenToken.sol\":804:805  3 */\n  0x03\n    /* \"MetaCraftersAssesment6-main/contracts/DegenToken.sol\":795:825  GameItem(3, \"Windtalker\", 250) */\n  dup2\n  mstore\n  0x20\n  add\n  mload(0x40)\n  dup1\n  0x40\n  add\n  0x40\n  mstore\n  dup1\n  0x0a\n  dup2\n  mstore\n  0x20\n  add\n  0x57696e6474616c6b657200000000000000000000000000000000000000000000\n  dup2\n  mstore\n  pop\n  dup2\n  mstore\n  0x20\n  add\n    /* \"MetaCraftersAssesment6-main/contracts/DegenToken.sol\":821:824  250 */\n  0xfa\n    /* \"MetaCraftersAssesment6-main/contracts/DegenToken.sol\":795:825  GameItem(3, \"Windtalker\", 250) */\n  dup2\n  mstore\n  pop\n    /* \"MetaCraftersAssesment6-main/contracts/DegenToken.sol\":780:826  gameItems.push(GameItem(3, \"Windtalker\", 250)) */\n  swap1\n  dup1\n  0x01\n  dup2\n  sload\n  add\n  dup1\n  dup3\n  sstore\n  dup1\n  swap2\n  pop\n  pop\n  0x01\n  swap1\n  sub\n  swap1\n  0x00\n  mstore\n  keccak256(0x00, 0x20)\n  swap1\n  0x03\n  mul\n  add\n  0x00\n  swap1\n  swap2\n  swap1\n  swap2\n  swap1\n  swap2\n  pop\n  0x00\n  dup3\n  add\n  mload\n  dup2\n  0x00\n  add\n  sstore\n  0x20\n  dup3\n  add\n  mload\n  dup2\n  0x01\n  add\n  swap1\n  dup2\n  tag_21\n  swap2\n  swap1\n  tag_7\n  jump\t// in\ntag_21:\n  pop\n  0x40\n  dup3\n  add\n  mload\n  dup2\n  0x02\n  add\n  sstore\n  pop\n  pop\n    /* \"MetaCraftersAssesment6-main/contracts/DegenToken.sol\":168:2854  contract DegenToken is ERC20, Ownable {... */\n  jump(tag_22)\n    /* \"@openzeppelin/contracts/access/Ownable.sol\":2912:3099  function _transferOwnership(address newOwner) internal virtual {... */\ntag_14:\n    /* \"@openzeppelin/contracts/access/Ownable.sol\":2985:3001  address oldOwner */\n  0x00\n    /* \"@openzeppelin/contracts/access/Ownable.sol\":3004:3010  _owner */\n  0x05\n  0x00\n  swap1\n  sload\n  swap1\n  0x0100\n  exp\n  swap1\n  div\n  0xffffffffffffffffffffffffffffffffffffffff\n  and\n    /* \"@openzeppelin/contracts/access/Ownable.sol\":2985:3010  address oldOwner = _owner */\n  swap1\n  pop\n    /* \"@openzeppelin/contracts/access/Ownable.sol\":3029:3037  newOwner */\n  dup2\n    /* \"@openzeppelin/contracts/access/Ownable.sol\":3020:3026  _owner */\n  0x05\n  0x00\n    /* \"@openzeppelin/contracts/access/Ownable.sol\":3020:3037  _owner = newOwner */\n  0x0100\n  exp\n  dup2\n  sload\n  dup2\n  0xffffffffffffffffffffffffffffffffffffffff\n  mul\n  not\n  and\n  swap1\n  dup4\n  0xffffffffffffffffffffffffffffffffffffffff\n  and\n  mul\n  or\n  swap1\n  sstore\n  pop\n    /* \"@openzeppelin/contracts/access/Ownable.sol\":3083:3091  newOwner */\n  dup2\n    /* \"@openzeppelin/contracts/access/Ownable.sol\":3052:3092  OwnershipTransferred(oldOwner, newOwner) */\n  0xffffffffffffffffffffffffffffffffffffffff\n  and\n    /* \"@openzeppelin/contracts/access/Ownable.sol\":3073:3081  oldOwner */\n  dup2\n    /* \"@openzeppelin/contracts/access/Ownable.sol\":3052:3092  OwnershipTransferred(oldOwner, newOwner) */\n  0xffffffffffffffffffffffffffffffffffffffff\n  and\n  0x8be0079c531659141344cd1fd0a4f28419497f9722a3daafe3b4186f6b6457e0\n  mload(0x40)\n  mload(0x40)\n  dup1\n  swap2\n  sub\n  swap1\n  log3\n    /* \"@openzeppelin/contracts/access/Ownable.sol\":2975:3099  {... */\n  pop\n    /* \"@openzeppelin/contracts/access/Ownable.sol\":2912:3099  function _transferOwnership(address newOwner) internal virtual {... */\n  pop\n  jump\t// out\n    /* \"#utility.yul\":7:106   */\ntag_24:\n    /* \"#utility.yul\":59:65   */\n  0x00\n    /* \"#utility.yul\":93:98   */\n  dup2\n    /* \"#utility.yul\":87:99   */\n  mload\n    /* \"#utility.yul\":77:99   */\n  swap1\n  pop\n    /* \"#utility.yul\":7:106   */\n  swap2\n  swap1\n  pop\n  jump\t// out\n    /* \"#utility.yul\":112:292   */\ntag_25:\n    /* \"#utility.yul\":160:237   */\n  0x4e487b7100000000000000000000000000000000000000000000000000000000\n    /* \"#utility.yul\":157:158   */\n  0x00\n    /* \"#utility.yul\":150:238   */\n  mstore\n    /* \"#utility.yul\":257:261   */\n  0x41\n    /* \"#utility.yul\":254:255   */\n  0x04\n    /* \"#utility.yul\":247:262   */\n  mstore\n    /* \"#utility.yul\":281:285   */\n  0x24\n    /* \"#utility.yul\":278:279   */\n  0x00\n    /* \"#utility.yul\":271:286   */\n  revert\n    /* \"#utility.yul\":298:478   */\ntag_26:\n    /* \"#utility.yul\":346:423   */\n  0x4e487b7100000000000000000000000000000000000000000000000000000000\n    /* \"#utility.yul\":343:344   */\n  0x00\n    /* \"#utility.yul\":336:424   */\n  mstore\n    /* \"#utility.yul\":443:447   */\n  0x22\n    /* \"#utility.yul\":440:441   */\n  0x04\n    /* \"#utility.yul\":433:448   */\n  mstore\n    /* \"#utility.yul\":467:471   */\n  0x24\n    /* \"#utility.yul\":464:465   */\n  0x00\n    /* \"#utility.yul\":457:472   */\n  revert\n    /* \"#utility.yul\":484:804   */\ntag_27:\n    /* \"#utility.yul\":528:534   */\n  0x00\n    /* \"#utility.yul\":565:566   */\n  0x02\n    /* \"#utility.yul\":559:563   */\n  dup3\n    /* \"#utility.yul\":555:567   */\n  div\n    /* \"#utility.yul\":545:567   */\n  swap1\n  pop\n    /* \"#utility.yul\":612:613   */\n  0x01\n    /* \"#utility.yul\":606:610   */\n  dup3\n    /* \"#utility.yul\":602:614   */\n  and\n    /* \"#utility.yul\":633:651   */\n  dup1\n    /* \"#utility.yul\":623:704   */\n  tag_52\n  jumpi\n    /* \"#utility.yul\":689:693   */\n  0x7f\n    /* \"#utility.yul\":681:687   */\n  dup3\n    /* \"#utility.yul\":677:694   */\n  and\n    /* \"#utility.yul\":667:694   */\n  swap2\n  pop\n    /* \"#utility.yul\":623:704   */\ntag_52:\n    /* \"#utility.yul\":751:753   */\n  0x20\n    /* \"#utility.yul\":743:749   */\n  dup3\n    /* \"#utility.yul\":740:754   */\n  lt\n    /* \"#utility.yul\":720:738   */\n  dup2\n    /* \"#utility.yul\":717:755   */\n  sub\n    /* \"#utility.yul\":714:798   */\n  tag_53\n  jumpi\n    /* \"#utility.yul\":770:788   */\n  tag_54\n  tag_26\n  jump\t// in\ntag_54:\n    /* \"#utility.yul\":714:798   */\ntag_53:\n    /* \"#utility.yul\":535:804   */\n  pop\n    /* \"#utility.yul\":484:804   */\n  swap2\n  swap1\n  pop\n  jump\t// out\n    /* \"#utility.yul\":810:951   */\ntag_28:\n    /* \"#utility.yul\":859:863   */\n  0x00\n    /* \"#utility.yul\":882:885   */\n  dup2\n    /* \"#utility.yul\":874:885   */\n  swap1\n  pop\n    /* \"#utility.yul\":905:908   */\n  dup2\n    /* \"#utility.yul\":902:903   */\n  0x00\n    /* \"#utility.yul\":895:909   */\n  mstore\n    /* \"#utility.yul\":939:943   */\n  0x20\n    /* \"#utility.yul\":936:937   */\n  0x00\n    /* \"#utility.yul\":926:944   */\n  keccak256\n    /* \"#utility.yul\":918:944   */\n  swap1\n  pop\n    /* \"#utility.yul\":810:951   */\n  swap2\n  swap1\n  pop\n  jump\t// out\n    /* \"#utility.yul\":957:1050   */\ntag_29:\n    /* \"#utility.yul\":994:1000   */\n  0x00\n    /* \"#utility.yul\":1041:1043   */\n  0x20\n    /* \"#utility.yul\":1036:1038   */\n  0x1f\n    /* \"#utility.yul\":1029:1034   */\n  dup4\n    /* \"#utility.yul\":1025:1039   */\n  add\n    /* \"#utility.yul\":1021:1044   */\n  div\n    /* \"#utility.yul\":1011:1044   */\n  swap1\n  pop\n    /* \"#utility.yul\":957:1050   */\n  swap2\n  swap1\n  pop\n  jump\t// out\n    /* \"#utility.yul\":1056:1163   */\ntag_30:\n    /* \"#utility.yul\":1100:1108   */\n  0x00\n    /* \"#utility.yul\":1150:1155   */\n  dup3\n    /* \"#utility.yul\":1144:1148   */\n  dup3\n    /* \"#utility.yul\":1140:1156   */\n  shl\n    /* \"#utility.yul\":1119:1156   */\n  swap1\n  pop\n    /* \"#utility.yul\":1056:1163   */\n  swap3\n  swap2\n  pop\n  pop\n  jump\t// out\n    /* \"#utility.yul\":1169:1562   */\ntag_31:\n    /* \"#utility.yul\":1238:1244   */\n  0x00\n    /* \"#utility.yul\":1288:1289   */\n  0x08\n    /* \"#utility.yul\":1276:1286   */\n  dup4\n    /* \"#utility.yul\":1272:1290   */\n  mul\n    /* \"#utility.yul\":1311:1408   */\n  tag_59\n    /* \"#utility.yul\":1341:1407   */\n  0xffffffffffffffffffffffffffffffffffffffffffffffffffffffffffffffff\n    /* \"#utility.yul\":1330:1339   */\n  dup3\n    /* \"#utility.yul\":1311:1408   */\n  tag_30\n  jump\t// in\ntag_59:\n    /* \"#utility.yul\":1429:1468   */\n  tag_60\n    /* \"#utility.yul\":1459:1467   */\n  dup7\n    /* \"#utility.yul\":1448:1457   */\n  dup4\n    /* \"#utility.yul\":1429:1468   */\n  tag_30\n  jump\t// in\ntag_60:\n    /* \"#utility.yul\":1417:1468   */\n  swap6\n  pop\n    /* \"#utility.yul\":1501:1505   */\n  dup1\n    /* \"#utility.yul\":1497:1506   */\n  not\n    /* \"#utility.yul\":1490:1495   */\n  dup5\n    /* \"#utility.yul\":1486:1507   */\n  and\n    /* \"#utility.yul\":1477:1507   */\n  swap4\n  pop\n    /* \"#utility.yul\":1550:1554   */\n  dup1\n    /* \"#utility.yul\":1540:1548   */\n  dup7\n    /* \"#utility.yul\":1536:1555   */\n  and\n    /* \"#utility.yul\":1529:1534   */\n  dup5\n    /* \"#utility.yul\":1526:1556   */\n  or\n    /* \"#utility.yul\":1516:1556   */\n  swap3\n  pop\n    /* \"#utility.yul\":1245:1562   */\n  pop\n  pop\n    /* \"#utility.yul\":1169:1562   */\n  swap4\n  swap3\n  pop\n  pop\n  pop\n  jump\t// out\n    /* \"#utility.yul\":1568:1645   */\ntag_32:\n    /* \"#utility.yul\":1605:1612   */\n  0x00\n    /* \"#utility.yul\":1634:1639   */\n  dup2\n    /* \"#utility.yul\":1623:1639   */\n  swap1\n  pop\n    /* \"#utility.yul\":1568:1645   */\n  swap2\n  swap1\n  pop\n  jump\t// out\n    /* \"#utility.yul\":1651:1711   */\ntag_33:\n    /* \"#utility.yul\":1679:1682   */\n  0x00\n    /* \"#utility.yul\":1700:1705   */\n  dup2\n    /* \"#utility.yul\":1693:1705   */\n  swap1\n  pop\n    /* \"#utility.yul\":1651:1711   */\n  swap2\n  swap1\n  pop\n  jump\t// out\n    /* \"#utility.yul\":1717:1859   */\ntag_34:\n    /* \"#utility.yul\":1767:1776   */\n  0x00\n    /* \"#utility.yul\":1800:1853   */\n  tag_64\n    /* \"#utility.yul\":1818:1852   */\n  tag_65\n    /* \"#utility.yul\":1827:1851   */\n  tag_66\n    /* \"#utility.yul\":1845:1850   */\n  dup5\n    /* \"#utility.yul\":1827:1851   */\n  tag_32\n  jump\t// in\ntag_66:\n    /* \"#utility.yul\":1818:1852   */\n  tag_33\n  jump\t// in\ntag_65:\n    /* \"#utility.yul\":1800:1853   */\n  tag_32\n  jump\t// in\ntag_64:\n    /* \"#utility.yul\":1787:1853   */\n  swap1\n  pop\n    /* \"#utility.yul\":1717:1859   */\n  swap2\n  swap1\n  pop\n  jump\t// out\n    /* \"#utility.yul\":1865:1940   */\ntag_35:\n    /* \"#utility.yul\":1908:1911   */\n  0x00\n    /* \"#utility.yul\":1929:1934   */\n  dup2\n    /* \"#utility.yul\":1922:1934   */\n  swap1\n  pop\n    /* \"#utility.yul\":1865:1940   */\n  swap2\n  swap1\n  pop\n  jump\t// out\n    /* \"#utility.yul\":1946:2215   */\ntag_36:\n    /* \"#utility.yul\":2056:2095   */\n  tag_69\n    /* \"#utility.yul\":2087:2094   */\n  dup4\n    /* \"#utility.yul\":2056:2095   */\n  tag_34\n  jump\t// in\ntag_69:\n    /* \"#utility.yul\":2117:2208   */\n  tag_70\n    /* \"#utility.yul\":2166:2207   */\n  tag_71\n    /* \"#utility.yul\":2190:2206   */\n  dup3\n    /* \"#utility.yul\":2166:2207   */\n  tag_35\n  jump\t// in\ntag_71:\n    /* \"#utility.yul\":2158:2164   */\n  dup5\n    /* \"#utility.yul\":2151:2155   */\n  dup5\n    /* \"#utility.yul\":2145:2156   */\n  sload\n    /* \"#utility.yul\":2117:2208   */\n  tag_31\n  jump\t// in\ntag_70:\n    /* \"#utility.yul\":2111:2115   */\n  dup3\n    /* \"#utility.yul\":2104:2209   */\n  sstore\n    /* \"#utility.yul\":2022:2215   */\n  pop\n    /* \"#utility.yul\":1946:2215   */\n  pop\n  pop\n  pop\n  jump\t// out\n    /* \"#utility.yul\":2221:2294   */\ntag_37:\n    /* \"#utility.yul\":2266:2269   */\n  0x00\n    /* \"#utility.yul\":2221:2294   */\n  swap1\n  jump\t// out\n    /* \"#utility.yul\":2300:2489   */\ntag_38:\n    /* \"#utility.yul\":2377:2409   */\n  tag_74\n  tag_37\n  jump\t// in\ntag_74:\n    /* \"#utility.yul\":2418:2483   */\n  tag_75\n    /* \"#utility.yul\":2476:2482   */\n  dup2\n    /* \"#utility.yul\":2468:2474   */\n  dup5\n    /* \"#utility.yul\":2462:2466   */\n  dup5\n    /* \"#utility.yul\":2418:2483   */\n  tag_36\n  jump\t// in\ntag_75:\n    /* \"#utility.yul\":2353:2489   */\n  pop\n    /* \"#utility.yul\":2300:2489   */\n  pop\n  pop\n  jump\t// out\n    /* \"#utility.yul\":2495:2681   */\ntag_39:\n    /* \"#utility.yul\":2555:2675   */\ntag_77:\n    /* \"#utility.yul\":2572:2575   */\n  dup2\n    /* \"#utility.yul\":2565:2570   */\n  dup2\n    /* \"#utility.yul\":2562:2576   */\n  lt\n    /* \"#utility.yul\":2555:2675   */\n  iszero\n  tag_79\n  jumpi\n    /* \"#utility.yul\":2626:2665   */\n  tag_80\n    /* \"#utility.yul\":2663:2664   */\n  0x00\n    /* \"#utility.yul\":2656:2661   */\n  dup3\n    /* \"#utility.yul\":2626:2665   */\n  tag_38\n  jump\t// in\ntag_80:\n    /* \"#utility.yul\":2599:2600   */\n  0x01\n    /* \"#utility.yul\":2592:2597   */\n  dup2\n    /* \"#utility.yul\":2588:2601   */\n  add\n    /* \"#utility.yul\":2579:2601   */\n  swap1\n  pop\n    /* \"#utility.yul\":2555:2675   */\n  jump(tag_77)\ntag_79:\n    /* \"#utility.yul\":2495:2681   */\n  pop\n  pop\n  jump\t// out\n    /* \"#utility.yul\":2687:3230   */\ntag_40:\n    /* \"#utility.yul\":2788:2790   */\n  0x1f\n    /* \"#utility.yul\":2783:2786   */\n  dup3\n    /* \"#utility.yul\":2780:2791   */\n  gt\n    /* \"#utility.yul\":2777:3223   */\n  iszero\n  tag_82\n  jumpi\n    /* \"#utility.yul\":2822:2860   */\n  tag_83\n    /* \"#utility.yul\":2854:2859   */\n  dup2\n    /* \"#utility.yul\":2822:2860   */\n  tag_28\n  jump\t// in\ntag_83:\n    /* \"#utility.yul\":2906:2935   */\n  tag_84\n    /* \"#utility.yul\":2924:2934   */\n  dup5\n    /* \"#utility.yul\":2906:2935   */\n  tag_29\n  jump\t// in\ntag_84:\n    /* \"#utility.yul\":2896:2904   */\n  dup2\n    /* \"#utility.yul\":2892:2936   */\n  add\n    /* \"#utility.yul\":3089:3091   */\n  0x20\n    /* \"#utility.yul\":3077:3087   */\n  dup6\n    /* \"#utility.yul\":3074:3092   */\n  lt\n    /* \"#utility.yul\":3071:3120   */\n  iszero\n  tag_85\n  jumpi\n    /* \"#utility.yul\":3110:3118   */\n  dup2\n    /* \"#utility.yul\":3095:3118   */\n  swap1\n  pop\n    /* \"#utility.yul\":3071:3120   */\ntag_85:\n    /* \"#utility.yul\":3133:3213   */\n  tag_86\n    /* \"#utility.yul\":3189:3211   */\n  tag_87\n    /* \"#utility.yul\":3207:3210   */\n  dup6\n    /* \"#utility.yul\":3189:3211   */\n  tag_29\n  jump\t// in\ntag_87:\n    /* \"#utility.yul\":3179:3187   */\n  dup4\n    /* \"#utility.yul\":3175:3212   */\n  add\n    /* \"#utility.yul\":3162:3173   */\n  dup3\n    /* \"#utility.yul\":3133:3213   */\n  tag_39\n  jump\t// in\ntag_86:\n    /* \"#utility.yul\":2792:3223   */\n  pop\n  pop\n    /* \"#utility.yul\":2777:3223   */\ntag_82:\n    /* \"#utility.yul\":2687:3230   */\n  pop\n  pop\n  pop\n  jump\t// out\n    /* \"#utility.yul\":3236:3353   */\ntag_41:\n    /* \"#utility.yul\":3290:3298   */\n  0x00\n    /* \"#utility.yul\":3340:3345   */\n  dup3\n    /* \"#utility.yul\":3334:3338   */\n  dup3\n    /* \"#utility.yul\":3330:3346   */\n  shr\n    /* \"#utility.yul\":3309:3346   */\n  swap1\n  pop\n    /* \"#utility.yul\":3236:3353   */\n  swap3\n  swap2\n  pop\n  pop\n  jump\t// out\n    /* \"#utility.yul\":3359:3528   */\ntag_42:\n    /* \"#utility.yul\":3403:3409   */\n  0x00\n    /* \"#utility.yul\":3436:3487   */\n  tag_90\n    /* \"#utility.yul\":3484:3485   */\n  0x00\n    /* \"#utility.yul\":3480:3486   */\n  not\n    /* \"#utility.yul\":3472:3477   */\n  dup5\n    /* \"#utility.yul\":3469:3470   */\n  0x08\n    /* \"#utility.yul\":3465:3478   */\n  mul\n    /* \"#utility.yul\":3436:3487   */\n  tag_41\n  jump\t// in\ntag_90:\n    /* \"#utility.yul\":3432:3488   */\n  not\n    /* \"#utility.yul\":3517:3521   */\n  dup1\n    /* \"#utility.yul\":3511:3515   */\n  dup4\n    /* \"#utility.yul\":3507:3522   */\n  and\n    /* \"#utility.yul\":3497:3522   */\n  swap2\n  pop\n    /* \"#utility.yul\":3410:3528   */\n  pop\n    /* \"#utility.yul\":3359:3528   */\n  swap3\n  swap2\n  pop\n  pop\n  jump\t// out\n    /* \"#utility.yul\":3533:3828   */\ntag_43:\n    /* \"#utility.yul\":3609:3613   */\n  0x00\n    /* \"#utility.yul\":3755:3784   */\n  tag_92\n    /* \"#utility.yul\":3780:3783   */\n  dup4\n    /* \"#utility.yul\":3774:3778   */\n  dup4\n    /* \"#utility.yul\":3755:3784   */\n  tag_42\n  jump\t// in\ntag_92:\n    /* \"#utility.yul\":3747:3784   */\n  swap2\n  pop\n    /* \"#utility.yul\":3817:3820   */\n  dup3\n    /* \"#utility.yul\":3814:3815   */\n  0x02\n    /* \"#utility.yul\":3810:3821   */\n  mul\n    /* \"#utility.yul\":3804:3808   */\n  dup3\n    /* \"#utility.yul\":3801:3822   */\n  or\n    /* \"#utility.yul\":3793:3822   */\n  swap1\n  pop\n    /* \"#utility.yul\":3533:3828   */\n  swap3\n  swap2\n  pop\n  pop\n  jump\t// out\n    /* \"#utility.yul\":3833:5228   */\ntag_7:\n    /* \"#utility.yul\":3950:3987   */\n  tag_94\n    /* \"#utility.yul\":3983:3986   */\n  dup3\n    /* \"#utility.yul\":3950:3987   */\n  tag_24\n  jump\t// in\ntag_94:\n    /* \"#utility.yul\":4052:4070   */\n  0xffffffffffffffff\n    /* \"#utility.yul\":4044:4050   */\n  dup2\n    /* \"#utility.yul\":4041:4071   */\n  gt\n    /* \"#utility.yul\":4038:4094   */\n  iszero\n  tag_95\n  jumpi\n    /* \"#utility.yul\":4074:4092   */\n  tag_96\n  tag_25\n  jump\t// in\ntag_96:\n    /* \"#utility.yul\":4038:4094   */\ntag_95:\n    /* \"#utility.yul\":4118:4156   */\n  tag_97\n    /* \"#utility.yul\":4150:4154   */\n  dup3\n    /* \"#utility.yul\":4144:4155   */\n  sload\n    /* \"#utility.yul\":4118:4156   */\n  tag_27\n  jump\t// in\ntag_97:\n    /* \"#utility.yul\":4203:4270   */\n  tag_98\n    /* \"#utility.yul\":4263:4269   */\n  dup3\n    /* \"#utility.yul\":4255:4261   */\n  dup3\n    /* \"#utility.yul\":4249:4253   */\n  dup6\n    /* \"#utility.yul\":4203:4270   */\n  tag_40\n  jump\t// in\ntag_98:\n    /* \"#utility.yul\":4297:4298   */\n  0x00\n    /* \"#utility.yul\":4321:4325   */\n  0x20\n    /* \"#utility.yul\":4308:4325   */\n  swap1\n  pop\n    /* \"#utility.yul\":4353:4355   */\n  0x1f\n    /* \"#utility.yul\":4345:4351   */\n  dup4\n    /* \"#utility.yul\":4342:4356   */\n  gt\n    /* \"#utility.yul\":4370:4371   */\n  0x01\n    /* \"#utility.yul\":4365:4983   */\n  dup2\n  eq\n  tag_100\n  jumpi\n    /* \"#utility.yul\":5027:5028   */\n  0x00\n    /* \"#utility.yul\":5044:5050   */\n  dup5\n    /* \"#utility.yul\":5041:5118   */\n  iszero\n  tag_101\n  jumpi\n    /* \"#utility.yul\":5093:5102   */\n  dup3\n    /* \"#utility.yul\":5088:5091   */\n  dup8\n    /* \"#utility.yul\":5084:5103   */\n  add\n    /* \"#utility.yul\":5078:5104   */\n  mload\n    /* \"#utility.yul\":5069:5104   */\n  swap1\n  pop\n    /* \"#utility.yul\":5041:5118   */\ntag_101:\n    /* \"#utility.yul\":5144:5211   */\n  tag_102\n    /* \"#utility.yul\":5204:5210   */\n  dup6\n    /* \"#utility.yul\":5197:5202   */\n  dup3\n    /* \"#utility.yul\":5144:5211   */\n  tag_43\n  jump\t// in\ntag_102:\n    /* \"#utility.yul\":5138:5142   */\n  dup7\n    /* \"#utility.yul\":5131:5212   */\n  sstore\n    /* \"#utility.yul\":5000:5222   */\n  pop\n    /* \"#utility.yul\":4335:5222   */\n  jump(tag_99)\n    /* \"#utility.yul\":4365:4983   */\ntag_100:\n    /* \"#utility.yul\":4417:4421   */\n  0x1f\n    /* \"#utility.yul\":4413:4422   */\n  not\n    /* \"#utility.yul\":4405:4411   */\n  dup5\n    /* \"#utility.yul\":4401:4423   */\n  and\n    /* \"#utility.yul\":4451:4488   */\n  tag_103\n    /* \"#utility.yul\":4483:4487   */\n  dup7\n    /* \"#utility.yul\":4451:4488   */\n  tag_28\n  jump\t// in\ntag_103:\n    /* \"#utility.yul\":4510:4511   */\n  0x00\n    /* \"#utility.yul\":4524:4732   */\ntag_104:\n    /* \"#utility.yul\":4538:4545   */\n  dup3\n    /* \"#utility.yul\":4535:4536   */\n  dup2\n    /* \"#utility.yul\":4532:4546   */\n  lt\n    /* \"#utility.yul\":4524:4732   */\n  iszero\n  tag_106\n  jumpi\n    /* \"#utility.yul\":4617:4626   */\n  dup5\n    /* \"#utility.yul\":4612:4615   */\n  dup10\n    /* \"#utility.yul\":4608:4627   */\n  add\n    /* \"#utility.yul\":4602:4628   */\n  mload\n    /* \"#utility.yul\":4594:4600   */\n  dup3\n    /* \"#utility.yul\":4587:4629   */\n  sstore\n    /* \"#utility.yul\":4668:4669   */\n  0x01\n    /* \"#utility.yul\":4660:4666   */\n  dup3\n    /* \"#utility.yul\":4656:4670   */\n  add\n    /* \"#utility.yul\":4646:4670   */\n  swap2\n  pop\n    /* \"#utility.yul\":4715:4717   */\n  0x20\n    /* \"#utility.yul\":4704:4713   */\n  dup6\n    /* \"#utility.yul\":4700:4718   */\n  add\n    /* \"#utility.yul\":4687:4718   */\n  swap5\n  pop\n    /* \"#utility.yul\":4561:4565   */\n  0x20\n    /* \"#utility.yul\":4558:4559   */\n  dup2\n    /* \"#utility.yul\":4554:4566   */\n  add\n    /* \"#utility.yul\":4549:4566   */\n  swap1\n  pop\n    /* \"#utility.yul\":4524:4732   */\n  jump(tag_104)\ntag_106:\n    /* \"#utility.yul\":4760:4766   */\n  dup7\n    /* \"#utility.yul\":4751:4758   */\n  dup4\n    /* \"#utility.yul\":4748:4767   */\n  lt\n    /* \"#utility.yul\":4745:4924   */\n  iszero\n  tag_107\n  jumpi\n    /* \"#utility.yul\":4818:4827   */\n  dup5\n    /* \"#utility.yul\":4813:4816   */\n  dup10\n    /* \"#utility.yul\":4809:4828   */\n  add\n    /* \"#utility.yul\":4803:4829   */\n  mload\n    /* \"#utility.yul\":4861:4909   */\n  tag_108\n    /* \"#utility.yul\":4903:4907   */\n  0x1f\n    /* \"#utility.yul\":4895:4901   */\n  dup10\n    /* \"#utility.yul\":4891:4908   */\n  and\n    /* \"#utility.yul\":4880:4889   */\n  dup3\n    /* \"#utility.yul\":4861:4909   */\n  tag_42\n  jump\t// in\ntag_108:\n    /* \"#utility.yul\":4853:4859   */\n  dup4\n    /* \"#utility.yul\":4846:4910   */\n  sstore\n    /* \"#utility.yul\":4768:4924   */\n  pop\n    /* \"#utility.yul\":4745:4924   */\ntag_107:\n    /* \"#utility.yul\":4970:4971   */\n  0x01\n    /* \"#utility.yul\":4966:4967   */\n  0x02\n    /* \"#utility.yul\":4958:4964   */\n  dup9\n    /* \"#utility.yul\":4954:4968   */\n  mul\n    /* \"#utility.yul\":4950:4972   */\n  add\n    /* \"#utility.yul\":4944:4948   */\n  dup9\n    /* \"#utility.yul\":4937:4973   */\n  sstore\n    /* \"#utility.yul\":4372:4983   */\n  pop\n  pop\n  pop\n    /* \"#utility.yul\":4335:5222   */\ntag_99:\n  pop\n    /* \"#utility.yul\":3925:5228   */\n  pop\n  pop\n  pop\n    /* \"#utility.yul\":3833:5228   */\n  pop\n  pop\n  jump\t// out\n    /* \"#utility.yul\":5234:5360   */\ntag_44:\n    /* \"#utility.yul\":5271:5278   */\n  0x00\n    /* \"#utility.yul\":5311:5353   */\n  0xffffffffffffffffffffffffffffffffffffffff\n    /* \"#utility.yul\":5304:5309   */\n  dup3\n    /* \"#utility.yul\":5300:5354   */\n  and\n    /* \"#utility.yul\":5289:5354   */\n  swap1\n  pop\n    /* \"#utility.yul\":5234:5360   */\n  swap2\n  swap1\n  pop\n  jump\t// out\n    /* \"#utility.yul\":5366:5462   */\ntag_45:\n    /* \"#utility.yul\":5403:5410   */\n  0x00\n    /* \"#utility.yul\":5432:5456   */\n  tag_111\n    /* \"#utility.yul\":5450:5455   */\n  dup3\n    /* \"#utility.yul\":5432:5456   */\n  tag_44\n  jump\t// in\ntag_111:\n    /* \"#utility.yul\":5421:5456   */\n  swap1\n  pop\n    /* \"#utility.yul\":5366:5462   */\n  swap2\n  swap1\n  pop\n  jump\t// out\n    /* \"#utility.yul\":5468:5586   */\ntag_46:\n    /* \"#utility.yul\":5555:5579   */\n  tag_113\n    /* \"#utility.yul\":5573:5578   */\n  dup2\n    /* \"#utility.yul\":5555:5579   */\n  tag_45\n  jump\t// in\ntag_113:\n    /* \"#utility.yul\":5550:5553   */\n  dup3\n    /* \"#utility.yul\":5543:5580   */\n  mstore\n    /* \"#utility.yul\":5468:5586   */\n  pop\n  pop\n  jump\t// out\n    /* \"#utility.yul\":5592:5814   */\ntag_12:\n    /* \"#utility.yul\":5685:5689   */\n  0x00\n    /* \"#utility.yul\":5723:5725   */\n  0x20\n    /* \"#utility.yul\":5712:5721   */\n  dup3\n    /* \"#utility.yul\":5708:5726   */\n  add\n    /* \"#utility.yul\":5700:5726   */\n  swap1\n  pop\n    /* \"#utility.yul\":5736:5807   */\n  tag_115\n    /* \"#utility.yul\":5804:5805   */\n  0x00\n    /* \"#utility.yul\":5793:5802   */\n  dup4\n    /* \"#utility.yul\":5789:5806   */\n  add\n    /* \"#utility.yul\":5780:5786   */\n  dup5\n    /* \"#utility.yul\":5736:5807   */\n  tag_46\n  jump\t// in\ntag_115:\n    /* \"#utility.yul\":5592:5814   */\n  swap3\n  swap2\n  pop\n  pop\n  jump\t// out\n    /* \"MetaCraftersAssesment6-main/contracts/DegenToken.sol\":168:2854  contract DegenToken is ERC20, Ownable {... */\ntag_22:\n  dataSize(sub_0)\n  dup1\n  dataOffset(sub_0)\n  0x00\n  codecopy\n  0x00\n  return\nstop\n\nsub_0: assembly {\n        /* \"MetaCraftersAssesment6-main/contracts/DegenToken.sol\":168:2854  contract DegenToken is ERC20, Ownable {... */\n      mstore(0x40, 0x80)\n      callvalue\n      dup1\n      iszero\n      tag_1\n      jumpi\n      0x00\n      dup1\n      revert\n    tag_1:\n      pop\n      jumpi(tag_2, lt(calldatasize, 0x04))\n      shr(0xe0, calldataload(0x00))\n      dup1\n      0x715018a6\n      gt\n      tag_23\n      jumpi\n      dup1\n      0xa9059cbb\n      gt\n      tag_24\n      jumpi\n      dup1\n      0xa9059cbb\n      eq\n      tag_18\n      jumpi\n      dup1\n      0xbec3fa17\n      eq\n      tag_19\n      jumpi\n      dup1\n      0xdb006a75\n      eq\n      tag_20\n      jumpi\n      dup1\n      0xdd62ed3e\n      eq\n      tag_21\n      jumpi\n      dup1\n      0xf2fde38b\n      eq\n      tag_22\n      jumpi\n      jump(tag_2)\n    tag_24:\n      dup1\n      0x715018a6\n      eq\n      tag_13\n      jumpi\n      dup1\n      0x7a97840d\n      eq\n      tag_14\n      jumpi\n      dup1\n      0x8cffa21c\n      eq\n      tag_15\n      jumpi\n      dup1\n      0x8da5cb5b\n      eq\n      tag_16\n      jumpi\n      dup1\n      0x95d89b41\n      eq\n      tag_17\n      jumpi\n      jump(tag_2)\n    tag_23:\n      dup1\n      0x313ce567\n      gt\n      tag_25\n      jumpi\n      dup1\n      0x313ce567\n      eq\n      tag_8\n      jumpi\n      dup1\n      0x40c10f19\n      eq\n      tag_9\n      jumpi\n      dup1\n      0x430074c2\n      eq\n      tag_10\n      jumpi\n      dup1\n      0x6d1b229d\n      eq\n      tag_11\n      jumpi\n      dup1\n      0x70a08231\n      eq\n      tag_12\n      jumpi\n      jump(tag_2)\n    tag_25:\n      dup1\n      0x06fdde03\n      eq\n      tag_3\n      jumpi\n      dup1\n      0x095ea7b3\n      eq\n      tag_4\n      jumpi\n      dup1\n      0x12065fe0\n      eq\n      tag_5\n      jumpi\n      dup1\n      0x18160ddd\n      eq\n      tag_6\n      jumpi\n      dup1\n      0x23b872dd\n      eq\n      tag_7\n      jumpi\n    tag_2:\n      0x00\n      dup1\n      revert\n        /* \"@openzeppelin/contracts/token/ERC20/ERC20.sol\":1779:1868  function name() public view virtual returns (string memory) {... */\n    tag_3:\n      tag_26\n      tag_27\n      jump\t// in\n    tag_26:\n      mload(0x40)\n      tag_28\n      swap2\n      swap1\n      tag_29\n      jump\t// in\n    tag_28:\n      mload(0x40)\n      dup1\n      swap2\n      sub\n      swap1\n      return\n        /* \"@openzeppelin/contracts/token/ERC20/ERC20.sol\":3998:4184  function approve(address spender, uint256 value) public virtual returns (bool) {... */\n    tag_4:\n      tag_30\n      0x04\n      dup1\n      calldatasize\n      sub\n      dup2\n      add\n      swap1\n      tag_31\n      swap2\n      swap1\n      tag_32\n      jump\t// in\n    tag_31:\n      tag_33\n      jump\t// in\n    tag_30:\n      mload(0x40)\n      tag_34\n      swap2\n      swap1\n      tag_35\n      jump\t// in\n    tag_34:\n      mload(0x40)\n      dup1\n      swap2\n      sub\n      swap1\n      return\n        /* \"MetaCraftersAssesment6-main/contracts/DegenToken.sol\":1050:1154  function getBalance() external view returns (uint256) {... */\n    tag_5:\n      tag_36\n      tag_37\n      jump\t// in\n    tag_36:\n      mload(0x40)\n      tag_38\n      swap2\n      swap1\n      tag_39\n      jump\t// in\n    tag_38:\n      mload(0x40)\n      dup1\n      swap2\n      sub\n      swap1\n      return\n        /* \"@openzeppelin/contracts/token/ERC20/ERC20.sol\":2849:2946  function totalSupply() public view virtual returns (uint256) {... */\n    tag_6:\n      tag_40\n      tag_41\n      jump\t// in\n    tag_40:\n      mload(0x40)\n      tag_42\n      swap2\n      swap1\n      tag_39\n      jump\t// in\n    tag_42:\n      mload(0x40)\n      dup1\n      swap2\n      sub\n      swap1\n      return\n        /* \"@openzeppelin/contracts/token/ERC20/ERC20.sol\":4776:5020  function transferFrom(address from, address to, uint256 value) public virtual returns (bool) {... */\n    tag_7:\n      tag_43\n      0x04\n      dup1\n      calldatasize\n      sub\n      dup2\n      add\n      swap1\n      tag_44\n      swap2\n      swap1\n      tag_45\n      jump\t// in\n    tag_44:\n      tag_46\n      jump\t// in\n    tag_43:\n      mload(0x40)\n      tag_47\n      swap2\n      swap1\n      tag_35\n      jump\t// in\n    tag_47:\n      mload(0x40)\n      dup1\n      swap2\n      sub\n      swap1\n      return\n        /* \"MetaCraftersAssesment6-main/contracts/DegenToken.sol\":938:1044  function decimals() public pure override returns (uint8) {... */\n    tag_8:\n      tag_48\n      tag_49\n      jump\t// in\n    tag_48:\n      mload(0x40)\n      tag_50\n      swap2\n      swap1\n      tag_51\n      jump\t// in\n    tag_50:\n      mload(0x40)\n      dup1\n      swap2\n      sub\n      swap1\n      return\n        /* \"MetaCraftersAssesment6-main/contracts/DegenToken.sol\":839:932  function mint(address to, uint256 amount) public onlyOwner {... */\n    tag_9:\n      tag_52\n      0x04\n      dup1\n      calldatasize\n      sub\n      dup2\n      add\n      swap1\n      tag_53\n      swap2\n      swap1\n      tag_32\n      jump\t// in\n    tag_53:\n      tag_54\n      jump\t// in\n    tag_52:\n      stop\n        /* \"MetaCraftersAssesment6-main/contracts/DegenToken.sol\":362:389  GameItem[] public gameItems */\n    tag_10:\n      tag_55\n      0x04\n      dup1\n      calldatasize\n      sub\n      dup2\n      add\n      swap1\n      tag_56\n      swap2\n      swap1\n      tag_57\n      jump\t// in\n    tag_56:\n      tag_58\n      jump\t// in\n    tag_55:\n      mload(0x40)\n      tag_59\n      swap4\n      swap3\n      swap2\n      swap1\n      tag_60\n      jump\t// in\n    tag_59:\n      mload(0x40)\n      dup1\n      swap2\n      sub\n      swap1\n      return\n        /* \"MetaCraftersAssesment6-main/contracts/DegenToken.sol\":1160:1372  function burnTokens(uint256 amount) public {... */\n    tag_11:\n      tag_61\n      0x04\n      dup1\n      calldatasize\n      sub\n      dup2\n      add\n      swap1\n      tag_62\n      swap2\n      swap1\n      tag_57\n      jump\t// in\n    tag_62:\n      tag_63\n      jump\t// in\n    tag_61:\n      stop\n        /* \"@openzeppelin/contracts/token/ERC20/ERC20.sol\":3004:3120  function balanceOf(address account) public view virtual returns (uint256) {... */\n    tag_12:\n      tag_64\n      0x04\n      dup1\n      calldatasize\n      sub\n      dup2\n      add\n      swap1\n      tag_65\n      swap2\n      swap1\n      tag_66\n      jump\t// in\n    tag_65:\n      tag_67\n      jump\t// in\n    tag_64:\n      mload(0x40)\n      tag_68\n      swap2\n      swap1\n      tag_39\n      jump\t// in\n    tag_68:\n      mload(0x40)\n      dup1\n      swap2\n      sub\n      swap1\n      return\n        /* \"@openzeppelin/contracts/access/Ownable.sol\":2293:2394  function renounceOwnership() public virtual onlyOwner {... */\n    tag_13:\n      tag_69\n      tag_70\n      jump\t// in\n    tag_69:\n      stop\n        /* \"MetaCraftersAssesment6-main/contracts/DegenToken.sol\":2423:2522  function getGameItems() external view returns (GameItem[] memory) {... */\n    tag_14:\n      tag_71\n      tag_72\n      jump\t// in\n    tag_71:\n      mload(0x40)\n      tag_73\n      swap2\n      swap1\n      tag_74\n      jump\t// in\n    tag_73:\n      mload(0x40)\n      dup1\n      swap2\n      sub\n      swap1\n      return\n        /* \"MetaCraftersAssesment6-main/contracts/DegenToken.sol\":2568:2681  function getOwnedItems() external view returns (GameItem[] memory) {... */\n    tag_15:\n      tag_75\n      tag_76\n      jump\t// in\n    tag_75:\n      mload(0x40)\n      tag_77\n      swap2\n      swap1\n      tag_74\n      jump\t// in\n    tag_77:\n      mload(0x40)\n      dup1\n      swap2\n      sub\n      swap1\n      return\n        /* \"@openzeppelin/contracts/access/Ownable.sol\":1638:1723  function owner() public view virtual returns (address) {... */\n    tag_16:\n      tag_78\n      tag_79\n      jump\t// in\n    tag_78:\n      mload(0x40)\n      tag_80\n      swap2\n      swap1\n      tag_81\n      jump\t// in\n    tag_80:\n      mload(0x40)\n      dup1\n      swap2\n      sub\n      swap1\n      return\n        /* \"@openzeppelin/contracts/token/ERC20/ERC20.sol\":1981:2074  function symbol() public view virtual returns (string memory) {... */\n    tag_17:\n      tag_82\n      tag_83\n      jump\t// in\n    tag_82:\n      mload(0x40)\n      tag_84\n      swap2\n      swap1\n      tag_29\n      jump\t// in\n    tag_84:\n      mload(0x40)\n      dup1\n      swap2\n      sub\n      swap1\n      return\n        /* \"@openzeppelin/contracts/token/ERC20/ERC20.sol\":3315:3493  function transfer(address to, uint256 value) public virtual returns (bool) {... */\n    tag_18:\n      tag_85\n      0x04\n      dup1\n      calldatasize\n      sub\n      dup2\n      add\n      swap1\n      tag_86\n      swap2\n      swap1\n      tag_32\n      jump\t// in\n    tag_86:\n      tag_87\n      jump\t// in\n    tag_85:\n      mload(0x40)\n      tag_88\n      swap2\n      swap1\n      tag_35\n      jump\t// in\n    tag_88:\n      mload(0x40)\n      dup1\n      swap2\n      sub\n      swap1\n      return\n        /* \"MetaCraftersAssesment6-main/contracts/DegenToken.sol\":1378:1670  function transferTokens(address recipient, uint256 amount) external {... */\n    tag_19:\n      tag_89\n      0x04\n      dup1\n      calldatasize\n      sub\n      dup2\n      add\n      swap1\n      tag_90\n      swap2\n      swap1\n      tag_32\n      jump\t// in\n    tag_90:\n      tag_91\n      jump\t// in\n    tag_89:\n      stop\n        /* \"MetaCraftersAssesment6-main/contracts/DegenToken.sol\":1722:2379  function redeem(uint256 itemId) external {... */\n    tag_20:\n      tag_92\n      0x04\n      dup1\n      calldatasize\n      sub\n      dup2\n      add\n      swap1\n      tag_93\n      swap2\n      swap1\n      tag_57\n      jump\t// in\n    tag_93:\n      tag_94\n      jump\t// in\n    tag_92:\n      stop\n        /* \"@openzeppelin/contracts/token/ERC20/ERC20.sol\":3551:3691  function allowance(address owner, address spender) public view virtual returns (uint256) {... */\n    tag_21:\n      tag_95\n      0x04\n      dup1\n      calldatasize\n      sub\n      dup2\n      add\n      swap1\n      tag_96\n      swap2\n      swap1\n      tag_97\n      jump\t// in\n    tag_96:\n      tag_98\n      jump\t// in\n    tag_95:\n      mload(0x40)\n      tag_99\n      swap2\n      swap1\n      tag_39\n      jump\t// in\n    tag_99:\n      mload(0x40)\n      dup1\n      swap2\n      sub\n      swap1\n      return\n        /* \"@openzeppelin/contracts/access/Ownable.sol\":2543:2758  function transferOwnership(address newOwner) public virtual onlyOwner {... */\n    tag_22:\n      tag_100\n      0x04\n      dup1\n      calldatasize\n      sub\n      dup2\n      add\n      swap1\n      tag_101\n      swap2\n      swap1\n      tag_66\n      jump\t// in\n    tag_101:\n      tag_102\n      jump\t// in\n    tag_100:\n      stop\n        /* \"@openzeppelin/contracts/token/ERC20/ERC20.sol\":1779:1868  function name() public view virtual returns (string memory) {... */\n    tag_27:\n        /* \"@openzeppelin/contracts/token/ERC20/ERC20.sol\":1824:1837  string memory */\n      0x60\n        /* \"@openzeppelin/contracts/token/ERC20/ERC20.sol\":1856:1861  _name */\n      0x03\n        /* \"@openzeppelin/contracts/token/ERC20/ERC20.sol\":1849:1861  return _name */\n      dup1\n      sload\n      tag_104\n      swap1\n      tag_105\n      jump\t// in\n    tag_104:\n      dup1\n      0x1f\n      add\n      0x20\n      dup1\n      swap2\n      div\n      mul\n      0x20\n      add\n      mload(0x40)\n      swap1\n      dup2\n      add\n      0x40\n      mstore\n      dup1\n      swap3\n      swap2\n      swap1\n      dup2\n      dup2\n      mstore\n      0x20\n      add\n      dup3\n      dup1\n      sload\n      tag_106\n      swap1\n      tag_105\n      jump\t// in\n    tag_106:\n      dup1\n      iszero\n      tag_107\n      jumpi\n      dup1\n      0x1f\n      lt\n      tag_108\n      jumpi\n      0x0100\n      dup1\n      dup4\n      sload\n      div\n      mul\n      dup4\n      mstore\n      swap2\n      0x20\n      add\n      swap2\n      jump(tag_107)\n    tag_108:\n      dup3\n      add\n      swap2\n      swap1\n      0x00\n      mstore\n      keccak256(0x00, 0x20)\n      swap1\n    tag_109:\n      dup2\n      sload\n      dup2\n      mstore\n      swap1\n      0x01\n      add\n      swap1\n      0x20\n      add\n      dup1\n      dup4\n      gt\n      tag_109\n      jumpi\n      dup3\n      swap1\n      sub\n      0x1f\n      and\n      dup3\n      add\n      swap2\n    tag_107:\n      pop\n      pop\n      pop\n      pop\n      pop\n      swap1\n      pop\n        /* \"@openzeppelin/contracts/token/ERC20/ERC20.sol\":1779:1868  function name() public view virtual returns (string memory) {... */\n      swap1\n      jump\t// out\n        /* \"@openzeppelin/contracts/token/ERC20/ERC20.sol\":3998:4184  function approve(address spender, uint256 value) public virtual returns (bool) {... */\n    tag_33:\n        /* \"@openzeppelin/contracts/token/ERC20/ERC20.sol\":4071:4075  bool */\n      0x00\n        /* \"@openzeppelin/contracts/token/ERC20/ERC20.sol\":4087:4100  address owner */\n      dup1\n        /* \"@openzeppelin/contracts/token/ERC20/ERC20.sol\":4103:4115  _msgSender() */\n      tag_111\n        /* \"@openzeppelin/contracts/token/ERC20/ERC20.sol\":4103:4113  _msgSender */\n      tag_112\n        /* \"@openzeppelin/contracts/token/ERC20/ERC20.sol\":4103:4115  _msgSender() */\n      jump\t// in\n    tag_111:\n        /* \"@openzeppelin/contracts/token/ERC20/ERC20.sol\":4087:4115  address owner = _msgSender() */\n      swap1\n      pop\n        /* \"@openzeppelin/contracts/token/ERC20/ERC20.sol\":4125:4156  _approve(owner, spender, value) */\n      tag_113\n        /* \"@openzeppelin/contracts/token/ERC20/ERC20.sol\":4134:4139  owner */\n      dup2\n        /* \"@openzeppelin/contracts/token/ERC20/ERC20.sol\":4141:4148  spender */\n      dup6\n        /* \"@openzeppelin/contracts/token/ERC20/ERC20.sol\":4150:4155  value */\n      dup6\n        /* \"@openzeppelin/contracts/token/ERC20/ERC20.sol\":4125:4133  _approve */\n      tag_114\n        /* \"@openzeppelin/contracts/token/ERC20/ERC20.sol\":4125:4156  _approve(owner, spender, value) */\n      jump\t// in\n    tag_113:\n        /* \"@openzeppelin/contracts/token/ERC20/ERC20.sol\":4173:4177  true */\n      0x01\n        /* \"@openzeppelin/contracts/token/ERC20/ERC20.sol\":4166:4177  return true */\n      swap2\n      pop\n      pop\n        /* \"@openzeppelin/contracts/token/ERC20/ERC20.sol\":3998:4184  function approve(address spender, uint256 value) public virtual returns (bool) {... */\n      swap3\n      swap2\n      pop\n      pop\n      jump\t// out\n        /* \"MetaCraftersAssesment6-main/contracts/DegenToken.sol\":1050:1154  function getBalance() external view returns (uint256) {... */\n    tag_37:\n        /* \"MetaCraftersAssesment6-main/contracts/DegenToken.sol\":1095:1102  uint256 */\n      0x00\n        /* \"MetaCraftersAssesment6-main/contracts/DegenToken.sol\":1121:1125  this */\n      address\n        /* \"MetaCraftersAssesment6-main/contracts/DegenToken.sol\":1121:1135  this.balanceOf */\n      0xffffffffffffffffffffffffffffffffffffffff\n      and\n      0x70a08231\n        /* \"MetaCraftersAssesment6-main/contracts/DegenToken.sol\":1136:1146  msg.sender */\n      caller\n        /* \"MetaCraftersAssesment6-main/contracts/DegenToken.sol\":1121:1147  this.balanceOf(msg.sender) */\n      mload(0x40)\n      dup3\n      0xffffffff\n      and\n      0xe0\n      shl\n      dup2\n      mstore\n      0x04\n      add\n      tag_116\n      swap2\n      swap1\n      tag_81\n      jump\t// in\n    tag_116:\n      0x20\n      mload(0x40)\n      dup1\n      dup4\n      sub\n      dup2\n      dup7\n      gas\n      staticcall\n      iszero\n      dup1\n      iszero\n      tag_118\n      jumpi\n      returndatasize\n      0x00\n      dup1\n      returndatacopy\n      revert(0x00, returndatasize)\n    tag_118:\n      pop\n      pop\n      pop\n      pop\n      mload(0x40)\n      returndatasize\n      not(0x1f)\n      0x1f\n      dup3\n      add\n      and\n      dup3\n      add\n      dup1\n      0x40\n      mstore\n      pop\n      dup2\n      add\n      swap1\n      tag_119\n      swap2\n      swap1\n      tag_120\n      jump\t// in\n    tag_119:\n        /* \"MetaCraftersAssesment6-main/contracts/DegenToken.sol\":1114:1147  return this.balanceOf(msg.sender) */\n      swap1\n      pop\n        /* \"MetaCraftersAssesment6-main/contracts/DegenToken.sol\":1050:1154  function getBalance() external view returns (uint256) {... */\n      swap1\n      jump\t// out\n        /* \"@openzeppelin/contracts/token/ERC20/ERC20.sol\":2849:2946  function totalSupply() public view virtual returns (uint256) {... */\n    tag_41:\n        /* \"@openzeppelin/contracts/token/ERC20/ERC20.sol\":2901:2908  uint256 */\n      0x00\n        /* \"@openzeppelin/contracts/token/ERC20/ERC20.sol\":2927:2939  _totalSupply */\n      sload(0x02)\n        /* \"@openzeppelin/contracts/token/ERC20/ERC20.sol\":2920:2939  return _totalSupply */\n      swap1\n      pop\n        /* \"@openzeppelin/contracts/token/ERC20/ERC20.sol\":2849:2946  function totalSupply() public view virtual returns (uint256) {... */\n      swap1\n      jump\t// out\n        /* \"@openzeppelin/contracts/token/ERC20/ERC20.sol\":4776:5020  function transferFrom(address from, address to, uint256 value) public virtual returns (bool) {... */\n    tag_46:\n        /* \"@openzeppelin/contracts/token/ERC20/ERC20.sol\":4863:4867  bool */\n      0x00\n        /* \"@openzeppelin/contracts/token/ERC20/ERC20.sol\":4879:4894  address spender */\n      dup1\n        /* \"@openzeppelin/contracts/token/ERC20/ERC20.sol\":4897:4909  _msgSender() */\n      tag_123\n        /* \"@openzeppelin/contracts/token/ERC20/ERC20.sol\":4897:4907  _msgSender */\n      tag_112\n        /* \"@openzeppelin/contracts/token/ERC20/ERC20.sol\":4897:4909  _msgSender() */\n      jump\t// in\n    tag_123:\n        /* \"@openzeppelin/contracts/token/ERC20/ERC20.sol\":4879:4909  address spender = _msgSender() */\n      swap1\n      pop\n        /* \"@openzeppelin/contracts/token/ERC20/ERC20.sol\":4919:4956  _spendAllowance(from, spender, value) */\n      tag_124\n        /* \"@openzeppelin/contracts/token/ERC20/ERC20.sol\":4935:4939  from */\n      dup6\n        /* \"@openzeppelin/contracts/token/ERC20/ERC20.sol\":4941:4948  spender */\n      dup3\n        /* \"@openzeppelin/contracts/token/ERC20/ERC20.sol\":4950:4955  value */\n      dup6\n        /* \"@openzeppelin/contracts/token/ERC20/ERC20.sol\":4919:4934  _spendAllowance */\n      tag_125\n        /* \"@openzeppelin/contracts/token/ERC20/ERC20.sol\":4919:4956  _spendAllowance(from, spender, value) */\n      jump\t// in\n    tag_124:\n        /* \"@openzeppelin/contracts/token/ERC20/ERC20.sol\":4966:4992  _transfer(from, to, value) */\n      tag_126\n        /* \"@openzeppelin/contracts/token/ERC20/ERC20.sol\":4976:4980  from */\n      dup6\n        /* \"@openzeppelin/contracts/token/ERC20/ERC20.sol\":4982:4984  to */\n      dup6\n        /* \"@openzeppelin/contracts/token/ERC20/ERC20.sol\":4986:4991  value */\n      dup6\n        /* \"@openzeppelin/contracts/token/ERC20/ERC20.sol\":4966:4975  _transfer */\n      tag_127\n        /* \"@openzeppelin/contracts/token/ERC20/ERC20.sol\":4966:4992  _transfer(from, to, value) */\n      jump\t// in\n    tag_126:\n        /* \"@openzeppelin/contracts/token/ERC20/ERC20.sol\":5009:5013  true */\n      0x01\n        /* \"@openzeppelin/contracts/token/ERC20/ERC20.sol\":5002:5013  return true */\n      swap2\n      pop\n      pop\n        /* \"@openzeppelin/contracts/token/ERC20/ERC20.sol\":4776:5020  function transferFrom(address from, address to, uint256 value) public virtual returns (bool) {... */\n      swap4\n      swap3\n      pop\n      pop\n      pop\n      jump\t// out\n        /* \"MetaCraftersAssesment6-main/contracts/DegenToken.sol\":938:1044  function decimals() public pure override returns (uint8) {... */\n    tag_49:\n        /* \"MetaCraftersAssesment6-main/contracts/DegenToken.sol\":988:993  uint8 */\n      0x00\n        /* \"MetaCraftersAssesment6-main/contracts/DegenToken.sol\":938:1044  function decimals() public pure override returns (uint8) {... */\n      swap1\n      jump\t// out\n        /* \"MetaCraftersAssesment6-main/contracts/DegenToken.sol\":839:932  function mint(address to, uint256 amount) public onlyOwner {... */\n    tag_54:\n        /* \"@openzeppelin/contracts/access/Ownable.sol\":1531:1544  _checkOwner() */\n      tag_130\n        /* \"@openzeppelin/contracts/access/Ownable.sol\":1531:1542  _checkOwner */\n      tag_131\n        /* \"@openzeppelin/contracts/access/Ownable.sol\":1531:1544  _checkOwner() */\n      jump\t// in\n    tag_130:\n        /* \"MetaCraftersAssesment6-main/contracts/DegenToken.sol\":908:925  _mint(to, amount) */\n      tag_133\n        /* \"MetaCraftersAssesment6-main/contracts/DegenToken.sol\":914:916  to */\n      dup3\n        /* \"MetaCraftersAssesment6-main/contracts/DegenToken.sol\":918:924  amount */\n      dup3\n        /* \"MetaCraftersAssesment6-main/contracts/DegenToken.sol\":908:913  _mint */\n      tag_134\n        /* \"MetaCraftersAssesment6-main/contracts/DegenToken.sol\":908:925  _mint(to, amount) */\n      jump\t// in\n    tag_133:\n        /* \"MetaCraftersAssesment6-main/contracts/DegenToken.sol\":839:932  function mint(address to, uint256 amount) public onlyOwner {... */\n      pop\n      pop\n      jump\t// out\n        /* \"MetaCraftersAssesment6-main/contracts/DegenToken.sol\":362:389  GameItem[] public gameItems */\n    tag_58:\n      0x06\n      dup2\n      dup2\n      sload\n      dup2\n      lt\n      tag_135\n      jumpi\n      0x00\n      dup1\n      revert\n    tag_135:\n      swap1\n      0x00\n      mstore\n      keccak256(0x00, 0x20)\n      swap1\n      0x03\n      mul\n      add\n      0x00\n      swap2\n      pop\n      swap1\n      pop\n      dup1\n      0x00\n      add\n      sload\n      swap1\n      dup1\n      0x01\n      add\n      dup1\n      sload\n      tag_137\n      swap1\n      tag_105\n      jump\t// in\n    tag_137:\n      dup1\n      0x1f\n      add\n      0x20\n      dup1\n      swap2\n      div\n      mul\n      0x20\n      add\n      mload(0x40)\n      swap1\n      dup2\n      add\n      0x40\n      mstore\n      dup1\n      swap3\n      swap2\n      swap1\n      dup2\n      dup2\n      mstore\n      0x20\n      add\n      dup3\n      dup1\n      sload\n      tag_138\n      swap1\n      tag_105\n      jump\t// in\n    tag_138:\n      dup1\n      iszero\n      tag_139\n      jumpi\n      dup1\n      0x1f\n      lt\n      tag_140\n      jumpi\n      0x0100\n      dup1\n      dup4\n      sload\n      div\n      mul\n      dup4\n      mstore\n      swap2\n      0x20\n      add\n      swap2\n      jump(tag_139)\n    tag_140:\n      dup3\n      add\n      swap2\n      swap1\n      0x00\n      mstore\n      keccak256(0x00, 0x20)\n      swap1\n    tag_141:\n      dup2\n      sload\n      dup2\n      mstore\n      swap1\n      0x01\n      add\n      swap1\n      0x20\n      add\n      dup1\n      dup4\n      gt\n      tag_141\n      jumpi\n      dup3\n      swap1\n      sub\n      0x1f\n      and\n      dup3\n      add\n      swap2\n    tag_139:\n      pop\n      pop\n      pop\n      pop\n      pop\n      swap1\n      dup1\n      0x02\n      add\n      sload\n      swap1\n      pop\n      dup4\n      jump\t// out\n        /* \"MetaCraftersAssesment6-main/contracts/DegenToken.sol\":1160:1372  function burnTokens(uint256 amount) public {... */\n    tag_63:\n        /* \"MetaCraftersAssesment6-main/contracts/DegenToken.sol\":1261:1267  amount */\n      dup1\n        /* \"MetaCraftersAssesment6-main/contracts/DegenToken.sol\":1234:1257  balanceOf(_msgSender()) */\n      tag_143\n        /* \"MetaCraftersAssesment6-main/contracts/DegenToken.sol\":1244:1256  _msgSender() */\n      tag_144\n        /* \"MetaCraftersAssesment6-main/contracts/DegenToken.sol\":1244:1254  _msgSender */\n      tag_112\n        /* \"MetaCraftersAssesment6-main/contracts/DegenToken.sol\":1244:1256  _msgSender() */\n      jump\t// in\n    tag_144:\n        /* \"MetaCraftersAssesment6-main/contracts/DegenToken.sol\":1234:1243  balanceOf */\n      tag_67\n        /* \"MetaCraftersAssesment6-main/contracts/DegenToken.sol\":1234:1257  balanceOf(_msgSender()) */\n      jump\t// in\n    tag_143:\n        /* \"MetaCraftersAssesment6-main/contracts/DegenToken.sol\":1234:1267  balanceOf(_msgSender()) >= amount */\n      lt\n      iszero\n        /* \"MetaCraftersAssesment6-main/contracts/DegenToken.sol\":1213:1328  require(... */\n      tag_145\n      jumpi\n      mload(0x40)\n      0x08c379a000000000000000000000000000000000000000000000000000000000\n      dup2\n      mstore\n      0x04\n      add\n      tag_146\n      swap1\n      tag_147\n      jump\t// in\n    tag_146:\n      mload(0x40)\n      dup1\n      swap2\n      sub\n      swap1\n      revert\n    tag_145:\n        /* \"MetaCraftersAssesment6-main/contracts/DegenToken.sol\":1338:1365  _burn(_msgSender(), amount) */\n      tag_148\n        /* \"MetaCraftersAssesment6-main/contracts/DegenToken.sol\":1344:1356  _msgSender() */\n      tag_149\n        /* \"MetaCraftersAssesment6-main/contracts/DegenToken.sol\":1344:1354  _msgSender */\n      tag_112\n        /* \"MetaCraftersAssesment6-main/contracts/DegenToken.sol\":1344:1356  _msgSender() */\n      jump\t// in\n    tag_149:\n        /* \"MetaCraftersAssesment6-main/contracts/DegenToken.sol\":1358:1364  amount */\n      dup3\n        /* \"MetaCraftersAssesment6-main/contracts/DegenToken.sol\":1338:1343  _burn */\n      tag_150\n        /* \"MetaCraftersAssesment6-main/contracts/DegenToken.sol\":1338:1365  _burn(_msgSender(), amount) */\n      jump\t// in\n    tag_148:\n        /* \"MetaCraftersAssesment6-main/contracts/DegenToken.sol\":1160:1372  function burnTokens(uint256 amount) public {... */\n      pop\n      jump\t// out\n        /* \"@openzeppelin/contracts/token/ERC20/ERC20.sol\":3004:3120  function balanceOf(address account) public view virtual returns (uint256) {... */\n    tag_67:\n        /* \"@openzeppelin/contracts/token/ERC20/ERC20.sol\":3069:3076  uint256 */\n      0x00\n        /* \"@openzeppelin/contracts/token/ERC20/ERC20.sol\":3095:3104  _balances */\n      dup1\n        /* \"@openzeppelin/contracts/token/ERC20/ERC20.sol\":3095:3113  _balances[account] */\n      0x00\n        /* \"@openzeppelin/contracts/token/ERC20/ERC20.sol\":3105:3112  account */\n      dup4\n        /* \"@openzeppelin/contracts/token/ERC20/ERC20.sol\":3095:3113  _balances[account] */\n      0xffffffffffffffffffffffffffffffffffffffff\n      and\n      0xffffffffffffffffffffffffffffffffffffffff\n      and\n      dup2\n      mstore\n      0x20\n      add\n      swap1\n      dup2\n      mstore\n      0x20\n      add\n      0x00\n      keccak256\n      sload\n        /* \"@openzeppelin/contracts/token/ERC20/ERC20.sol\":3088:3113  return _balances[account] */\n      swap1\n      pop\n        /* \"@openzeppelin/contracts/token/ERC20/ERC20.sol\":3004:3120  function balanceOf(address account) public view virtual returns (uint256) {... */\n      swap2\n      swap1\n      pop\n      jump\t// out\n        /* \"@openzeppelin/contracts/access/Ownable.sol\":2293:2394  function renounceOwnership() public virtual onlyOwner {... */\n    tag_70:\n        /* \"@openzeppelin/contracts/access/Ownable.sol\":1531:1544  _checkOwner() */\n      tag_153\n        /* \"@openzeppelin/contracts/access/Ownable.sol\":1531:1542  _checkOwner */\n      tag_131\n        /* \"@openzeppelin/contracts/access/Ownable.sol\":1531:1544  _checkOwner() */\n      jump\t// in\n    tag_153:\n        /* \"@openzeppelin/contracts/access/Ownable.sol\":2357:2387  _transferOwnership(address(0)) */\n      tag_155\n        /* \"@openzeppelin/contracts/access/Ownable.sol\":2384:2385  0 */\n      0x00\n        /* \"@openzeppelin/contracts/access/Ownable.sol\":2357:2375  _transferOwnership */\n      tag_156\n        /* \"@openzeppelin/contracts/access/Ownable.sol\":2357:2387  _transferOwnership(address(0)) */\n      jump\t// in\n    tag_155:\n        /* \"@openzeppelin/contracts/access/Ownable.sol\":2293:2394  function renounceOwnership() public virtual onlyOwner {... */\n      jump\t// out\n        /* \"MetaCraftersAssesment6-main/contracts/DegenToken.sol\":2423:2522  function getGameItems() external view returns (GameItem[] memory) {... */\n    tag_72:\n        /* \"MetaCraftersAssesment6-main/contracts/DegenToken.sol\":2470:2487  GameItem[] memory */\n      0x60\n        /* \"MetaCraftersAssesment6-main/contracts/DegenToken.sol\":2506:2515  gameItems */\n      0x06\n        /* \"MetaCraftersAssesment6-main/contracts/DegenToken.sol\":2499:2515  return gameItems */\n      dup1\n      sload\n      dup1\n      0x20\n      mul\n      0x20\n      add\n      mload(0x40)\n      swap1\n      dup2\n      add\n      0x40\n      mstore\n      dup1\n      swap3\n      swap2\n      swap1\n      dup2\n      dup2\n      mstore\n      0x20\n      add\n      0x00\n      swap1\n    tag_158:\n      dup3\n      dup3\n      lt\n      iszero\n      tag_159\n      jumpi\n      dup4\n      dup3\n      swap1\n      0x00\n      mstore\n      keccak256(0x00, 0x20)\n      swap1\n      0x03\n      mul\n      add\n      mload(0x40)\n      dup1\n      0x60\n      add\n      0x40\n      mstore\n      swap1\n      dup2\n      0x00\n      dup3\n      add\n      sload\n      dup2\n      mstore\n      0x20\n      add\n      0x01\n      dup3\n      add\n      dup1\n      sload\n      tag_161\n      swap1\n      tag_105\n      jump\t// in\n    tag_161:\n      dup1\n      0x1f\n      add\n      0x20\n      dup1\n      swap2\n      div\n      mul\n      0x20\n      add\n      mload(0x40)\n      swap1\n      dup2\n      add\n      0x40\n      mstore\n      dup1\n      swap3\n      swap2\n      swap1\n      dup2\n      dup2\n      mstore\n      0x20\n      add\n      dup3\n      dup1\n      sload\n      tag_162\n      swap1\n      tag_105\n      jump\t// in\n    tag_162:\n      dup1\n      iszero\n      tag_163\n      jumpi\n      dup1\n      0x1f\n      lt\n      tag_164\n      jumpi\n      0x0100\n      dup1\n      dup4\n      sload\n      div\n      mul\n      dup4\n      mstore\n      swap2\n      0x20\n      add\n      swap2\n      jump(tag_163)\n    tag_164:\n      dup3\n      add\n      swap2\n      swap1\n      0x00\n      mstore\n      keccak256(0x00, 0x20)\n      swap1\n    tag_165:\n      dup2\n      sload\n      dup2\n      mstore\n      swap1\n      0x01\n      add\n      swap1\n      0x20\n      add\n      dup1\n      dup4\n      gt\n      tag_165\n      jumpi\n      dup3\n      swap1\n      sub\n      0x1f\n      and\n      dup3\n      add\n      swap2\n    tag_163:\n      pop\n      pop\n      pop\n      pop\n      pop\n      dup2\n      mstore\n      0x20\n      add\n      0x02\n      dup3\n      add\n      sload\n      dup2\n      mstore\n      pop\n      pop\n      dup2\n      mstore\n      0x20\n      add\n      swap1\n      0x01\n      add\n      swap1\n      jump(tag_158)\n    tag_159:\n      pop\n      pop\n      pop\n      pop\n      swap1\n      pop\n        /* \"MetaCraftersAssesment6-main/contracts/DegenToken.sol\":2423:2522  function getGameItems() external view returns (GameItem[] memory) {... */\n      swap1\n      jump\t// out\n        /* \"MetaCraftersAssesment6-main/contracts/DegenToken.sol\":2568:2681  function getOwnedItems() external view returns (GameItem[] memory) {... */\n    tag_76:\n        /* \"MetaCraftersAssesment6-main/contracts/DegenToken.sol\":2616:2633  GameItem[] memory */\n      0x60\n        /* \"MetaCraftersAssesment6-main/contracts/DegenToken.sol\":2652:2662  ownedItems */\n      0x07\n        /* \"MetaCraftersAssesment6-main/contracts/DegenToken.sol\":2652:2674  ownedItems[msg.sender] */\n      0x00\n        /* \"MetaCraftersAssesment6-main/contracts/DegenToken.sol\":2663:2673  msg.sender */\n      caller\n        /* \"MetaCraftersAssesment6-main/contracts/DegenToken.sol\":2652:2674  ownedItems[msg.sender] */\n      0xffffffffffffffffffffffffffffffffffffffff\n      and\n      0xffffffffffffffffffffffffffffffffffffffff\n      and\n      dup2\n      mstore\n      0x20\n      add\n      swap1\n      dup2\n      mstore\n      0x20\n      add\n      0x00\n      keccak256\n        /* \"MetaCraftersAssesment6-main/contracts/DegenToken.sol\":2645:2674  return ownedItems[msg.sender] */\n      dup1\n      sload\n      dup1\n      0x20\n      mul\n      0x20\n      add\n      mload(0x40)\n      swap1\n      dup2\n      add\n      0x40\n      mstore\n      dup1\n      swap3\n      swap2\n      swap1\n      dup2\n      dup2\n      mstore\n      0x20\n      add\n      0x00\n      swap1\n    tag_167:\n      dup3\n      dup3\n      lt\n      iszero\n      tag_168\n      jumpi\n      dup4\n      dup3\n      swap1\n      0x00\n      mstore\n      keccak256(0x00, 0x20)\n      swap1\n      0x03\n      mul\n      add\n      mload(0x40)\n      dup1\n      0x60\n      add\n      0x40\n      mstore\n      swap1\n      dup2\n      0x00\n      dup3\n      add\n      sload\n      dup2\n      mstore\n      0x20\n      add\n      0x01\n      dup3\n      add\n      dup1\n      sload\n      tag_170\n      swap1\n      tag_105\n      jump\t// in\n    tag_170:\n      dup1\n      0x1f\n      add\n      0x20\n      dup1\n      swap2\n      div\n      mul\n      0x20\n      add\n      mload(0x40)\n      swap1\n      dup2\n      add\n      0x40\n      mstore\n      dup1\n      swap3\n      swap2\n      swap1\n      dup2\n      dup2\n      mstore\n      0x20\n      add\n      dup3\n      dup1\n      sload\n      tag_171\n      swap1\n      tag_105\n      jump\t// in\n    tag_171:\n      dup1\n      iszero\n      tag_172\n      jumpi\n      dup1\n      0x1f\n      lt\n      tag_173\n      jumpi\n      0x0100\n      dup1\n      dup4\n      sload\n      div\n      mul\n      dup4\n      mstore\n      swap2\n      0x20\n      add\n      swap2\n      jump(tag_172)\n    tag_173:\n      dup3\n      add\n      swap2\n      swap1\n      0x00\n      mstore\n      keccak256(0x00, 0x20)\n      swap1\n    tag_174:\n      dup2\n      sload\n      dup2\n      mstore\n      swap1\n      0x01\n      add\n      swap1\n      0x20\n      add\n      dup1\n      dup4\n      gt\n      tag_174\n      jumpi\n      dup3\n      swap1\n      sub\n      0x1f\n      and\n      dup3\n      add\n      swap2\n    tag_172:\n      pop\n      pop\n      pop\n      pop\n      pop\n      dup2\n      mstore\n      0x20\n      add\n      0x02\n      dup3\n      add\n      sload\n      dup2\n      mstore\n      pop\n      pop\n      dup2\n      mstore\n      0x20\n      add\n      swap1\n      0x01\n      add\n      swap1\n      jump(tag_167)\n    tag_168:\n      pop\n      pop\n      pop\n      pop\n      swap1\n      pop\n        /* \"MetaCraftersAssesment6-main/contracts/DegenToken.sol\":2568:2681  function getOwnedItems() external view returns (GameItem[] memory) {... */\n      swap1\n      jump\t// out\n        /* \"@openzeppelin/contracts/access/Ownable.sol\":1638:1723  function owner() public view virtual returns (address) {... */\n    tag_79:\n        /* \"@openzeppelin/contracts/access/Ownable.sol\":1684:1691  address */\n      0x00\n        /* \"@openzeppelin/contracts/access/Ownable.sol\":1710:1716  _owner */\n      0x05\n      0x00\n      swap1\n      sload\n      swap1\n      0x0100\n      exp\n      swap1\n      div\n      0xffffffffffffffffffffffffffffffffffffffff\n      and\n        /* \"@openzeppelin/contracts/access/Ownable.sol\":1703:1716  return _owner */\n      swap1\n      pop\n        /* \"@openzeppelin/contracts/access/Ownable.sol\":1638:1723  function owner() public view virtual returns (address) {... */\n      swap1\n      jump\t// out\n        /* \"@openzeppelin/contracts/token/ERC20/ERC20.sol\":1981:2074  function symbol() public view virtual returns (string memory) {... */\n    tag_83:\n        /* \"@openzeppelin/contracts/token/ERC20/ERC20.sol\":2028:2041  string memory */\n      0x60\n        /* \"@openzeppelin/contracts/token/ERC20/ERC20.sol\":2060:2067  _symbol */\n      0x04\n        /* \"@openzeppelin/contracts/token/ERC20/ERC20.sol\":2053:2067  return _symbol */\n      dup1\n      sload\n      tag_177\n      swap1\n      tag_105\n      jump\t// in\n    tag_177:\n      dup1\n      0x1f\n      add\n      0x20\n      dup1\n      swap2\n      div\n      mul\n      0x20\n      add\n      mload(0x40)\n      swap1\n      dup2\n      add\n      0x40\n      mstore\n      dup1\n      swap3\n      swap2\n      swap1\n      dup2\n      dup2\n      mstore\n      0x20\n      add\n      dup3\n      dup1\n      sload\n      tag_178\n      swap1\n      tag_105\n      jump\t// in\n    tag_178:\n      dup1\n      iszero\n      tag_179\n      jumpi\n      dup1\n      0x1f\n      lt\n      tag_180\n      jumpi\n      0x0100\n      dup1\n      dup4\n      sload\n      div\n      mul\n      dup4\n      mstore\n      swap2\n      0x20\n      add\n      swap2\n      jump(tag_179)\n    tag_180:\n      dup3\n      add\n      swap2\n      swap1\n      0x00\n      mstore\n      keccak256(0x00, 0x20)\n      swap1\n    tag_181:\n      dup2\n      sload\n      dup2\n      mstore\n      swap1\n      0x01\n      add\n      swap1\n      0x20\n      add\n      dup1\n      dup4\n      gt\n      tag_181\n      jumpi\n      dup3\n      swap1\n      sub\n      0x1f\n      and\n      dup3\n      add\n      swap2\n    tag_179:\n      pop\n      pop\n      pop\n      pop\n      pop\n      swap1\n      pop\n        /* \"@openzeppelin/contracts/token/ERC20/ERC20.sol\":1981:2074  function symbol() public view virtual returns (string memory) {... */\n      swap1\n      jump\t// out\n        /* \"@openzeppelin/contracts/token/ERC20/ERC20.sol\":3315:3493  function transfer(address to, uint256 value) public virtual returns (bool) {... */\n    tag_87:\n        /* \"@openzeppelin/contracts/token/ERC20/ERC20.sol\":3384:3388  bool */\n      0x00\n        /* \"@openzeppelin/contracts/token/ERC20/ERC20.sol\":3400:3413  address owner */\n      dup1\n        /* \"@openzeppelin/contracts/token/ERC20/ERC20.sol\":3416:3428  _msgSender() */\n      tag_183\n        /* \"@openzeppelin/contracts/token/ERC20/ERC20.sol\":3416:3426  _msgSender */\n      tag_112\n        /* \"@openzeppelin/contracts/token/ERC20/ERC20.sol\":3416:3428  _msgSender() */\n      jump\t// in\n    tag_183:\n        /* \"@openzeppelin/contracts/token/ERC20/ERC20.sol\":3400:3428  address owner = _msgSender() */\n      swap1\n      pop\n        /* \"@openzeppelin/contracts/token/ERC20/ERC20.sol\":3438:3465  _transfer(owner, to, value) */\n      tag_184\n        /* \"@openzeppelin/contracts/token/ERC20/ERC20.sol\":3448:3453  owner */\n      dup2\n        /* \"@openzeppelin/contracts/token/ERC20/ERC20.sol\":3455:3457  to */\n      dup6\n        /* \"@openzeppelin/contracts/token/ERC20/ERC20.sol\":3459:3464  value */\n      dup6\n        /* \"@openzeppelin/contracts/token/ERC20/ERC20.sol\":3438:3447  _transfer */\n      tag_127\n        /* \"@openzeppelin/contracts/token/ERC20/ERC20.sol\":3438:3465  _transfer(owner, to, value) */\n      jump\t// in\n    tag_184:\n        /* \"@openzeppelin/contracts/token/ERC20/ERC20.sol\":3482:3486  true */\n      0x01\n        /* \"@openzeppelin/contracts/token/ERC20/ERC20.sol\":3475:3486  return true */\n      swap2\n      pop\n      pop\n        /* \"@openzeppelin/contracts/token/ERC20/ERC20.sol\":3315:3493  function transfer(address to, uint256 value) public virtual returns (bool) {... */\n      swap3\n      swap2\n      pop\n      pop\n      jump\t// out\n        /* \"MetaCraftersAssesment6-main/contracts/DegenToken.sol\":1378:1670  function transferTokens(address recipient, uint256 amount) external {... */\n    tag_91:\n        /* \"MetaCraftersAssesment6-main/contracts/DegenToken.sol\":1504:1510  amount */\n      dup1\n        /* \"MetaCraftersAssesment6-main/contracts/DegenToken.sol\":1477:1500  balanceOf(_msgSender()) */\n      tag_186\n        /* \"MetaCraftersAssesment6-main/contracts/DegenToken.sol\":1487:1499  _msgSender() */\n      tag_187\n        /* \"MetaCraftersAssesment6-main/contracts/DegenToken.sol\":1487:1497  _msgSender */\n      tag_112\n        /* \"MetaCraftersAssesment6-main/contracts/DegenToken.sol\":1487:1499  _msgSender() */\n      jump\t// in\n    tag_187:\n        /* \"MetaCraftersAssesment6-main/contracts/DegenToken.sol\":1477:1486  balanceOf */\n      tag_67\n        /* \"MetaCraftersAssesment6-main/contracts/DegenToken.sol\":1477:1500  balanceOf(_msgSender()) */\n      jump\t// in\n    tag_186:\n        /* \"MetaCraftersAssesment6-main/contracts/DegenToken.sol\":1477:1510  balanceOf(_msgSender()) >= amount */\n      lt\n      iszero\n        /* \"MetaCraftersAssesment6-main/contracts/DegenToken.sol\":1456:1573  require(... */\n      tag_188\n      jumpi\n      mload(0x40)\n      0x08c379a000000000000000000000000000000000000000000000000000000000\n      dup2\n      mstore\n      0x04\n      add\n      tag_189\n      swap1\n      tag_190\n      jump\t// in\n    tag_189:\n      mload(0x40)\n      dup1\n      swap2\n      sub\n      swap1\n      revert\n    tag_188:\n        /* \"MetaCraftersAssesment6-main/contracts/DegenToken.sol\":1583:1610  approve(msg.sender, amount) */\n      tag_191\n        /* \"MetaCraftersAssesment6-main/contracts/DegenToken.sol\":1591:1601  msg.sender */\n      caller\n        /* \"MetaCraftersAssesment6-main/contracts/DegenToken.sol\":1603:1609  amount */\n      dup3\n        /* \"MetaCraftersAssesment6-main/contracts/DegenToken.sol\":1583:1590  approve */\n      tag_33\n        /* \"MetaCraftersAssesment6-main/contracts/DegenToken.sol\":1583:1610  approve(msg.sender, amount) */\n      jump\t// in\n    tag_191:\n      pop\n        /* \"MetaCraftersAssesment6-main/contracts/DegenToken.sol\":1620:1663  transferFrom(msg.sender, recipient, amount) */\n      tag_192\n        /* \"MetaCraftersAssesment6-main/contracts/DegenToken.sol\":1633:1643  msg.sender */\n      caller\n        /* \"MetaCraftersAssesment6-main/contracts/DegenToken.sol\":1645:1654  recipient */\n      dup4\n        /* \"MetaCraftersAssesment6-main/contracts/DegenToken.sol\":1656:1662  amount */\n      dup4\n        /* \"MetaCraftersAssesment6-main/contracts/DegenToken.sol\":1620:1632  transferFrom */\n      tag_46\n        /* \"MetaCraftersAssesment6-main/contracts/DegenToken.sol\":1620:1663  transferFrom(msg.sender, recipient, amount) */\n      jump\t// in\n    tag_192:\n      pop\n        /* \"MetaCraftersAssesment6-main/contracts/DegenToken.sol\":1378:1670  function transferTokens(address recipient, uint256 amount) external {... */\n      pop\n      pop\n      jump\t// out\n        /* \"MetaCraftersAssesment6-main/contracts/DegenToken.sol\":1722:2379  function redeem(uint256 itemId) external {... */\n    tag_94:\n        /* \"MetaCraftersAssesment6-main/contracts/DegenToken.sol\":1790:1791  0 */\n      0x00\n        /* \"MetaCraftersAssesment6-main/contracts/DegenToken.sol\":1781:1787  itemId */\n      dup2\n        /* \"MetaCraftersAssesment6-main/contracts/DegenToken.sol\":1781:1791  itemId > 0 */\n      gt\n        /* \"MetaCraftersAssesment6-main/contracts/DegenToken.sol\":1781:1821  itemId > 0 && itemId <= gameItems.length */\n      dup1\n      iszero\n      tag_194\n      jumpi\n      pop\n        /* \"MetaCraftersAssesment6-main/contracts/DegenToken.sol\":1805:1814  gameItems */\n      0x06\n        /* \"MetaCraftersAssesment6-main/contracts/DegenToken.sol\":1805:1821  gameItems.length */\n      dup1\n      sload\n      swap1\n      pop\n        /* \"MetaCraftersAssesment6-main/contracts/DegenToken.sol\":1795:1801  itemId */\n      dup2\n        /* \"MetaCraftersAssesment6-main/contracts/DegenToken.sol\":1795:1821  itemId <= gameItems.length */\n      gt\n      iszero\n        /* \"MetaCraftersAssesment6-main/contracts/DegenToken.sol\":1781:1821  itemId > 0 && itemId <= gameItems.length */\n    tag_194:\n        /* \"MetaCraftersAssesment6-main/contracts/DegenToken.sol\":1773:1841  require(itemId > 0 && itemId <= gameItems.length, \"Invalid item ID\") */\n      tag_195\n      jumpi\n      mload(0x40)\n      0x08c379a000000000000000000000000000000000000000000000000000000000\n      dup2\n      mstore\n      0x04\n      add\n      tag_196\n      swap1\n      tag_197\n      jump\t// in\n    tag_196:\n      mload(0x40)\n      dup1\n      swap2\n      sub\n      swap1\n      revert\n    tag_195:\n        /* \"MetaCraftersAssesment6-main/contracts/DegenToken.sol\":1851:1871  GameItem memory item */\n      0x00\n        /* \"MetaCraftersAssesment6-main/contracts/DegenToken.sol\":1874:1883  gameItems */\n      0x06\n        /* \"MetaCraftersAssesment6-main/contracts/DegenToken.sol\":1893:1894  1 */\n      0x01\n        /* \"MetaCraftersAssesment6-main/contracts/DegenToken.sol\":1884:1890  itemId */\n      dup4\n        /* \"MetaCraftersAssesment6-main/contracts/DegenToken.sol\":1884:1894  itemId - 1 */\n      tag_198\n      swap2\n      swap1\n      tag_199\n      jump\t// in\n    tag_198:\n        /* \"MetaCraftersAssesment6-main/contracts/DegenToken.sol\":1874:1895  gameItems[itemId - 1] */\n      dup2\n      sload\n      dup2\n      lt\n      tag_200\n      jumpi\n      tag_201\n      tag_202\n      jump\t// in\n    tag_201:\n    tag_200:\n      swap1\n      0x00\n      mstore\n      keccak256(0x00, 0x20)\n      swap1\n      0x03\n      mul\n      add\n        /* \"MetaCraftersAssesment6-main/contracts/DegenToken.sol\":1851:1895  GameItem memory item = gameItems[itemId - 1] */\n      mload(0x40)\n      dup1\n      0x60\n      add\n      0x40\n      mstore\n      swap1\n      dup2\n      0x00\n      dup3\n      add\n      sload\n      dup2\n      mstore\n      0x20\n      add\n      0x01\n      dup3\n      add\n      dup1\n      sload\n      tag_204\n      swap1\n      tag_105\n      jump\t// in\n    tag_204:\n      dup1\n      0x1f\n      add\n      0x20\n      dup1\n      swap2\n      div\n      mul\n      0x20\n      add\n      mload(0x40)\n      swap1\n      dup2\n      add\n      0x40\n      mstore\n      dup1\n      swap3\n      swap2\n      swap1\n      dup2\n      dup2\n      mstore\n      0x20\n      add\n      dup3\n      dup1\n      sload\n      tag_205\n      swap1\n      tag_105\n      jump\t// in\n    tag_205:\n      dup1\n      iszero\n      tag_206\n      jumpi\n      dup1\n      0x1f\n      lt\n      tag_207\n      jumpi\n      0x0100\n      dup1\n      dup4\n      sload\n      div\n      mul\n      dup4\n      mstore\n      swap2\n      0x20\n      add\n      swap2\n      jump(tag_206)\n    tag_207:\n      dup3\n      add\n      swap2\n      swap1\n      0x00\n      mstore\n      keccak256(0x00, 0x20)\n      swap1\n    tag_208:\n      dup2\n      sload\n      dup2\n      mstore\n      swap1\n      0x01\n      add\n      swap1\n      0x20\n      add\n      dup1\n      dup4\n      gt\n      tag_208\n      jumpi\n      dup3\n      swap1\n      sub\n      0x1f\n      and\n      dup3\n      add\n      swap2\n    tag_206:\n      pop\n      pop\n      pop\n      pop\n      pop\n      dup2\n      mstore\n      0x20\n      add\n      0x02\n      dup3\n      add\n      sload\n      dup2\n      mstore\n      pop\n      pop\n      swap1\n      pop\n        /* \"MetaCraftersAssesment6-main/contracts/DegenToken.sol\":1981:1985  item */\n      dup1\n        /* \"MetaCraftersAssesment6-main/contracts/DegenToken.sol\":1981:1994  item.itemCost */\n      0x40\n      add\n      mload\n        /* \"MetaCraftersAssesment6-main/contracts/DegenToken.sol\":1956:1977  balanceOf(msg.sender) */\n      tag_209\n        /* \"MetaCraftersAssesment6-main/contracts/DegenToken.sol\":1966:1976  msg.sender */\n      caller\n        /* \"MetaCraftersAssesment6-main/contracts/DegenToken.sol\":1956:1965  balanceOf */\n      tag_67\n        /* \"MetaCraftersAssesment6-main/contracts/DegenToken.sol\":1956:1977  balanceOf(msg.sender) */\n      jump\t// in\n    tag_209:\n        /* \"MetaCraftersAssesment6-main/contracts/DegenToken.sol\":1956:1994  balanceOf(msg.sender) >= item.itemCost */\n      lt\n      iszero\n        /* \"MetaCraftersAssesment6-main/contracts/DegenToken.sol\":1935:2050  require(... */\n      tag_210\n      jumpi\n      mload(0x40)\n      0x08c379a000000000000000000000000000000000000000000000000000000000\n      dup2\n      mstore\n      0x04\n      add\n      tag_211\n      swap1\n      tag_212\n      jump\t// in\n    tag_211:\n      mload(0x40)\n      dup1\n      swap2\n      sub\n      swap1\n      revert\n    tag_210:\n        /* \"MetaCraftersAssesment6-main/contracts/DegenToken.sol\":2061:2093  _burn(msg.sender, item.itemCost) */\n      tag_213\n        /* \"MetaCraftersAssesment6-main/contracts/DegenToken.sol\":2067:2077  msg.sender */\n      caller\n        /* \"MetaCraftersAssesment6-main/contracts/DegenToken.sol\":2079:2083  item */\n      dup3\n        /* \"MetaCraftersAssesment6-main/contracts/DegenToken.sol\":2079:2092  item.itemCost */\n      0x40\n      add\n      mload\n        /* \"MetaCraftersAssesment6-main/contracts/DegenToken.sol\":2061:2066  _burn */\n      tag_150\n        /* \"MetaCraftersAssesment6-main/contracts/DegenToken.sol\":2061:2093  _burn(msg.sender, item.itemCost) */\n      jump\t// in\n    tag_213:\n        /* \"MetaCraftersAssesment6-main/contracts/DegenToken.sol\":2154:2164  ownedItems */\n      0x07\n        /* \"MetaCraftersAssesment6-main/contracts/DegenToken.sol\":2154:2176  ownedItems[msg.sender] */\n      0x00\n        /* \"MetaCraftersAssesment6-main/contracts/DegenToken.sol\":2165:2175  msg.sender */\n      caller\n        /* \"MetaCraftersAssesment6-main/contracts/DegenToken.sol\":2154:2176  ownedItems[msg.sender] */\n      0xffffffffffffffffffffffffffffffffffffffff\n      and\n      0xffffffffffffffffffffffffffffffffffffffff\n      and\n      dup2\n      mstore\n      0x20\n      add\n      swap1\n      dup2\n      mstore\n      0x20\n      add\n      0x00\n      keccak256\n        /* \"MetaCraftersAssesment6-main/contracts/DegenToken.sol\":2182:2186  item */\n      dup2\n        /* \"MetaCraftersAssesment6-main/contracts/DegenToken.sol\":2154:2187  ownedItems[msg.sender].push(item) */\n      swap1\n      dup1\n      0x01\n      dup2\n      sload\n      add\n      dup1\n      dup3\n      sstore\n      dup1\n      swap2\n      pop\n      pop\n      0x01\n      swap1\n      sub\n      swap1\n      0x00\n      mstore\n      keccak256(0x00, 0x20)\n      swap1\n      0x03\n      mul\n      add\n      0x00\n      swap1\n      swap2\n      swap1\n      swap2\n      swap1\n      swap2\n      pop\n      0x00\n      dup3\n      add\n      mload\n      dup2\n      0x00\n      add\n      sstore\n      0x20\n      dup3\n      add\n      mload\n      dup2\n      0x01\n      add\n      swap1\n      dup2\n      tag_215\n      swap2\n      swap1\n      tag_216\n      jump\t// in\n    tag_215:\n      pop\n      0x40\n      dup3\n      add\n      mload\n      dup2\n      0x02\n      add\n      sstore\n      pop\n      pop\n        /* \"MetaCraftersAssesment6-main/contracts/DegenToken.sol\":2273:2283  msg.sender */\n      caller\n        /* \"MetaCraftersAssesment6-main/contracts/DegenToken.sol\":2247:2372  ItemRedeemed(... */\n      0xffffffffffffffffffffffffffffffffffffffff\n      and\n      0x2748aed474e8b2615b65f003a5fac4b64d8c9eb9c911daf175b6103f3802cd4c\n        /* \"MetaCraftersAssesment6-main/contracts/DegenToken.sol\":2297:2301  item */\n      dup3\n        /* \"MetaCraftersAssesment6-main/contracts/DegenToken.sol\":2297:2308  item.itemId */\n      0x00\n      add\n      mload\n        /* \"MetaCraftersAssesment6-main/contracts/DegenToken.sol\":2322:2326  item */\n      dup4\n        /* \"MetaCraftersAssesment6-main/contracts/DegenToken.sol\":2322:2335  item.itemName */\n      0x20\n      add\n      mload\n        /* \"MetaCraftersAssesment6-main/contracts/DegenToken.sol\":2349:2353  item */\n      dup5\n        /* \"MetaCraftersAssesment6-main/contracts/DegenToken.sol\":2349:2362  item.itemCost */\n      0x40\n      add\n      mload\n        /* \"MetaCraftersAssesment6-main/contracts/DegenToken.sol\":2247:2372  ItemRedeemed(... */\n      mload(0x40)\n      tag_217\n      swap4\n      swap3\n      swap2\n      swap1\n      tag_60\n      jump\t// in\n    tag_217:\n      mload(0x40)\n      dup1\n      swap2\n      sub\n      swap1\n      log2\n        /* \"MetaCraftersAssesment6-main/contracts/DegenToken.sol\":1763:2379  {... */\n      pop\n        /* \"MetaCraftersAssesment6-main/contracts/DegenToken.sol\":1722:2379  function redeem(uint256 itemId) external {... */\n      pop\n      jump\t// out\n        /* \"@openzeppelin/contracts/token/ERC20/ERC20.sol\":3551:3691  function allowance(address owner, address spender) public view virtual returns (uint256) {... */\n    tag_98:\n        /* \"@openzeppelin/contracts/token/ERC20/ERC20.sol\":3631:3638  uint256 */\n      0x00\n        /* \"@openzeppelin/contracts/token/ERC20/ERC20.sol\":3657:3668  _allowances */\n      0x01\n        /* \"@openzeppelin/contracts/token/ERC20/ERC20.sol\":3657:3675  _allowances[owner] */\n      0x00\n        /* \"@openzeppelin/contracts/token/ERC20/ERC20.sol\":3669:3674  owner */\n      dup5\n        /* \"@openzeppelin/contracts/token/ERC20/ERC20.sol\":3657:3675  _allowances[owner] */\n      0xffffffffffffffffffffffffffffffffffffffff\n      and\n      0xffffffffffffffffffffffffffffffffffffffff\n      and\n      dup2\n      mstore\n      0x20\n      add\n      swap1\n      dup2\n      mstore\n      0x20\n      add\n      0x00\n      keccak256\n        /* \"@openzeppelin/contracts/token/ERC20/ERC20.sol\":3657:3684  _allowances[owner][spender] */\n      0x00\n        /* \"@openzeppelin/contracts/token/ERC20/ERC20.sol\":3676:3683  spender */\n      dup4\n        /* \"@openzeppelin/contracts/token/ERC20/ERC20.sol\":3657:3684  _allowances[owner][spender] */\n      0xffffffffffffffffffffffffffffffffffffffff\n      and\n      0xffffffffffffffffffffffffffffffffffffffff\n      and\n      dup2\n      mstore\n      0x20\n      add\n      swap1\n      dup2\n      mstore\n      0x20\n      add\n      0x00\n      keccak256\n      sload\n        /* \"@openzeppelin/contracts/token/ERC20/ERC20.sol\":3650:3684  return _allowances[owner][spender] */\n      swap1\n      pop\n        /* \"@openzeppelin/contracts/token/ERC20/ERC20.sol\":3551:3691  function allowance(address owner, address spender) public view virtual returns (uint256) {... */\n      swap3\n      swap2\n      pop\n      pop\n      jump\t// out\n        /* \"@openzeppelin/contracts/access/Ownable.sol\":2543:2758  function transferOwnership(address newOwner) public virtual onlyOwner {... */\n    tag_102:\n        /* \"@openzeppelin/contracts/access/Ownable.sol\":1531:1544  _checkOwner() */\n      tag_220\n        /* \"@openzeppelin/contracts/access/Ownable.sol\":1531:1542  _checkOwner */\n      tag_131\n        /* \"@openzeppelin/contracts/access/Ownable.sol\":1531:1544  _checkOwner() */\n      jump\t// in\n    tag_220:\n        /* \"@openzeppelin/contracts/access/Ownable.sol\":2647:2648  0 */\n      0x00\n        /* \"@openzeppelin/contracts/access/Ownable.sol\":2627:2649  newOwner == address(0) */\n      0xffffffffffffffffffffffffffffffffffffffff\n      and\n        /* \"@openzeppelin/contracts/access/Ownable.sol\":2627:2635  newOwner */\n      dup2\n        /* \"@openzeppelin/contracts/access/Ownable.sol\":2627:2649  newOwner == address(0) */\n      0xffffffffffffffffffffffffffffffffffffffff\n      and\n      sub\n        /* \"@openzeppelin/contracts/access/Ownable.sol\":2623:2714  if (newOwner == address(0)) {... */\n      tag_222\n      jumpi\n        /* \"@openzeppelin/contracts/access/Ownable.sol\":2700:2701  0 */\n      0x00\n        /* \"@openzeppelin/contracts/access/Ownable.sol\":2672:2703  OwnableInvalidOwner(address(0)) */\n      mload(0x40)\n      0x1e4fbdf700000000000000000000000000000000000000000000000000000000\n      dup2\n      mstore\n      0x04\n      add\n      tag_223\n      swap2\n      swap1\n      tag_81\n      jump\t// in\n    tag_223:\n      mload(0x40)\n      dup1\n      swap2\n      sub\n      swap1\n      revert\n        /* \"@openzeppelin/contracts/access/Ownable.sol\":2623:2714  if (newOwner == address(0)) {... */\n    tag_222:\n        /* \"@openzeppelin/contracts/access/Ownable.sol\":2723:2751  _transferOwnership(newOwner) */\n      tag_224\n        /* \"@openzeppelin/contracts/access/Ownable.sol\":2742:2750  newOwner */\n      dup2\n        /* \"@openzeppelin/contracts/access/Ownable.sol\":2723:2741  _transferOwnership */\n      tag_156\n        /* \"@openzeppelin/contracts/access/Ownable.sol\":2723:2751  _transferOwnership(newOwner) */\n      jump\t// in\n    tag_224:\n        /* \"@openzeppelin/contracts/access/Ownable.sol\":2543:2758  function transferOwnership(address newOwner) public virtual onlyOwner {... */\n      pop\n      jump\t// out\n        /* \"@openzeppelin/contracts/utils/Context.sol\":656:752  function _msgSender() internal view virtual returns (address) {... */\n    tag_112:\n        /* \"@openzeppelin/contracts/utils/Context.sol\":709:716  address */\n      0x00\n        /* \"@openzeppelin/contracts/utils/Context.sol\":735:745  msg.sender */\n      caller\n        /* \"@openzeppelin/contracts/utils/Context.sol\":728:745  return msg.sender */\n      swap1\n      pop\n        /* \"@openzeppelin/contracts/utils/Context.sol\":656:752  function _msgSender() internal view virtual returns (address) {... */\n      swap1\n      jump\t// out\n        /* \"@openzeppelin/contracts/token/ERC20/ERC20.sol\":8726:8854  function _approve(address owner, address spender, uint256 value) internal {... */\n    tag_114:\n        /* \"@openzeppelin/contracts/token/ERC20/ERC20.sol\":8810:8847  _approve(owner, spender, value, true) */\n      tag_227\n        /* \"@openzeppelin/contracts/token/ERC20/ERC20.sol\":8819:8824  owner */\n      dup4\n        /* \"@openzeppelin/contracts/token/ERC20/ERC20.sol\":8826:8833  spender */\n      dup4\n        /* \"@openzeppelin/contracts/token/ERC20/ERC20.sol\":8835:8840  value */\n      dup4\n        /* \"@openzeppelin/contracts/token/ERC20/ERC20.sol\":8842:8846  true */\n      0x01\n        /* \"@openzeppelin/contracts/token/ERC20/ERC20.sol\":8810:8818  _approve */\n      tag_228\n        /* \"@openzeppelin/contracts/token/ERC20/ERC20.sol\":8810:8847  _approve(owner, spender, value, true) */\n      jump\t// in\n    tag_227:\n        /* \"@openzeppelin/contracts/token/ERC20/ERC20.sol\":8726:8854  function _approve(address owner, address spender, uint256 value) internal {... */\n      pop\n      pop\n      pop\n      jump\t// out\n        /* \"@openzeppelin/contracts/token/ERC20/ERC20.sol\":10415:10892  function _spendAllowance(address owner, address spender, uint256 value) internal virtual {... */\n    tag_125:\n        /* \"@openzeppelin/contracts/token/ERC20/ERC20.sol\":10514:10538  uint256 currentAllowance */\n      0x00\n        /* \"@openzeppelin/contracts/token/ERC20/ERC20.sol\":10541:10566  allowance(owner, spender) */\n      tag_230\n        /* \"@openzeppelin/contracts/token/ERC20/ERC20.sol\":10551:10556  owner */\n      dup5\n        /* \"@openzeppelin/contracts/token/ERC20/ERC20.sol\":10558:10565  spender */\n      dup5\n        /* \"@openzeppelin/contracts/token/ERC20/ERC20.sol\":10541:10550  allowance */\n      tag_98\n        /* \"@openzeppelin/contracts/token/ERC20/ERC20.sol\":10541:10566  allowance(owner, spender) */\n      jump\t// in\n    tag_230:\n        /* \"@openzeppelin/contracts/token/ERC20/ERC20.sol\":10514:10566  uint256 currentAllowance = allowance(owner, spender) */\n      swap1\n      pop\n        /* \"@openzeppelin/contracts/token/ERC20/ERC20.sol\":10600:10617  type(uint256).max */\n      0xffffffffffffffffffffffffffffffffffffffffffffffffffffffffffffffff\n        /* \"@openzeppelin/contracts/token/ERC20/ERC20.sol\":10580:10596  currentAllowance */\n      dup2\n        /* \"@openzeppelin/contracts/token/ERC20/ERC20.sol\":10580:10617  currentAllowance != type(uint256).max */\n      eq\n        /* \"@openzeppelin/contracts/token/ERC20/ERC20.sol\":10576:10886  if (currentAllowance != type(uint256).max) {... */\n      tag_231\n      jumpi\n        /* \"@openzeppelin/contracts/token/ERC20/ERC20.sol\":10656:10661  value */\n      dup2\n        /* \"@openzeppelin/contracts/token/ERC20/ERC20.sol\":10637:10653  currentAllowance */\n      dup2\n        /* \"@openzeppelin/contracts/token/ERC20/ERC20.sol\":10637:10661  currentAllowance < value */\n      lt\n        /* \"@openzeppelin/contracts/token/ERC20/ERC20.sol\":10633:10763  if (currentAllowance < value) {... */\n      iszero\n      tag_232\n      jumpi\n        /* \"@openzeppelin/contracts/token/ERC20/ERC20.sol\":10715:10722  spender */\n      dup3\n        /* \"@openzeppelin/contracts/token/ERC20/ERC20.sol\":10724:10740  currentAllowance */\n      dup2\n        /* \"@openzeppelin/contracts/token/ERC20/ERC20.sol\":10742:10747  value */\n      dup4\n        /* \"@openzeppelin/contracts/token/ERC20/ERC20.sol\":10688:10748  ERC20InsufficientAllowance(spender, currentAllowance, value) */\n      mload(0x40)\n      0xfb8f41b200000000000000000000000000000000000000000000000000000000\n      dup2\n      mstore\n      0x04\n      add\n      tag_233\n      swap4\n      swap3\n      swap2\n      swap1\n      tag_234\n      jump\t// in\n    tag_233:\n      mload(0x40)\n      dup1\n      swap2\n      sub\n      swap1\n      revert\n        /* \"@openzeppelin/contracts/token/ERC20/ERC20.sol\":10633:10763  if (currentAllowance < value) {... */\n    tag_232:\n        /* \"@openzeppelin/contracts/token/ERC20/ERC20.sol\":10804:10861  _approve(owner, spender, currentAllowance - value, false) */\n      tag_235\n        /* \"@openzeppelin/contracts/token/ERC20/ERC20.sol\":10813:10818  owner */\n      dup5\n        /* \"@openzeppelin/contracts/token/ERC20/ERC20.sol\":10820:10827  spender */\n      dup5\n        /* \"@openzeppelin/contracts/token/ERC20/ERC20.sol\":10848:10853  value */\n      dup5\n        /* \"@openzeppelin/contracts/token/ERC20/ERC20.sol\":10829:10845  currentAllowance */\n      dup5\n        /* \"@openzeppelin/contracts/token/ERC20/ERC20.sol\":10829:10853  currentAllowance - value */\n      sub\n        /* \"@openzeppelin/contracts/token/ERC20/ERC20.sol\":10855:10860  false */\n      0x00\n        /* \"@openzeppelin/contracts/token/ERC20/ERC20.sol\":10804:10812  _approve */\n      tag_228\n        /* \"@openzeppelin/contracts/token/ERC20/ERC20.sol\":10804:10861  _approve(owner, spender, currentAllowance - value, false) */\n      jump\t// in\n    tag_235:\n        /* \"@openzeppelin/contracts/token/ERC20/ERC20.sol\":10576:10886  if (currentAllowance != type(uint256).max) {... */\n    tag_231:\n        /* \"@openzeppelin/contracts/token/ERC20/ERC20.sol\":10504:10892  {... */\n      pop\n        /* \"@openzeppelin/contracts/token/ERC20/ERC20.sol\":10415:10892  function _spendAllowance(address owner, address spender, uint256 value) internal virtual {... */\n      pop\n      pop\n      pop\n      jump\t// out\n        /* \"@openzeppelin/contracts/token/ERC20/ERC20.sol\":5393:5693  function _transfer(address from, address to, uint256 value) internal {... */\n    tag_127:\n        /* \"@openzeppelin/contracts/token/ERC20/ERC20.sol\":5492:5493  0 */\n      0x00\n        /* \"@openzeppelin/contracts/token/ERC20/ERC20.sol\":5476:5494  from == address(0) */\n      0xffffffffffffffffffffffffffffffffffffffff\n      and\n        /* \"@openzeppelin/contracts/token/ERC20/ERC20.sol\":5476:5480  from */\n      dup4\n        /* \"@openzeppelin/contracts/token/ERC20/ERC20.sol\":5476:5494  from == address(0) */\n      0xffffffffffffffffffffffffffffffffffffffff\n      and\n      sub\n        /* \"@openzeppelin/contracts/token/ERC20/ERC20.sol\":5472:5558  if (from == address(0)) {... */\n      tag_237\n      jumpi\n        /* \"@openzeppelin/contracts/token/ERC20/ERC20.sol\":5544:5545  0 */\n      0x00\n        /* \"@openzeppelin/contracts/token/ERC20/ERC20.sol\":5517:5547  ERC20InvalidSender(address(0)) */\n      mload(0x40)\n      0x96c6fd1e00000000000000000000000000000000000000000000000000000000\n      dup2\n      mstore\n      0x04\n      add\n      tag_238\n      swap2\n      swap1\n      tag_81\n      jump\t// in\n    tag_238:\n      mload(0x40)\n      dup1\n      swap2\n      sub\n      swap1\n      revert\n        /* \"@openzeppelin/contracts/token/ERC20/ERC20.sol\":5472:5558  if (from == address(0)) {... */\n    tag_237:\n        /* \"@openzeppelin/contracts/token/ERC20/ERC20.sol\":5585:5586  0 */\n      0x00\n        /* \"@openzeppelin/contracts/token/ERC20/ERC20.sol\":5571:5587  to == address(0) */\n      0xffffffffffffffffffffffffffffffffffffffff\n      and\n        /* \"@openzeppelin/contracts/token/ERC20/ERC20.sol\":5571:5573  to */\n      dup3\n        /* \"@openzeppelin/contracts/token/ERC20/ERC20.sol\":5571:5587  to == address(0) */\n      0xffffffffffffffffffffffffffffffffffffffff\n      and\n      sub\n        /* \"@openzeppelin/contracts/token/ERC20/ERC20.sol\":5567:5653  if (to == address(0)) {... */\n      tag_239\n      jumpi\n        /* \"@openzeppelin/contracts/token/ERC20/ERC20.sol\":5639:5640  0 */\n      0x00\n        /* \"@openzeppelin/contracts/token/ERC20/ERC20.sol\":5610:5642  ERC20InvalidReceiver(address(0)) */\n      mload(0x40)\n      0xec442f0500000000000000000000000000000000000000000000000000000000\n      dup2\n      mstore\n      0x04\n      add\n      tag_240\n      swap2\n      swap1\n      tag_81\n      jump\t// in\n    tag_240:\n      mload(0x40)\n      dup1\n      swap2\n      sub\n      swap1\n      revert\n        /* \"@openzeppelin/contracts/token/ERC20/ERC20.sol\":5567:5653  if (to == address(0)) {... */\n    tag_239:\n        /* \"@openzeppelin/contracts/token/ERC20/ERC20.sol\":5662:5686  _update(from, to, value) */\n      tag_241\n        /* \"@openzeppelin/contracts/token/ERC20/ERC20.sol\":5670:5674  from */\n      dup4\n        /* \"@openzeppelin/contracts/token/ERC20/ERC20.sol\":5676:5678  to */\n      dup4\n        /* \"@openzeppelin/contracts/token/ERC20/ERC20.sol\":5680:5685  value */\n      dup4\n        /* \"@openzeppelin/contracts/token/ERC20/ERC20.sol\":5662:5669  _update */\n      tag_242\n        /* \"@openzeppelin/contracts/token/ERC20/ERC20.sol\":5662:5686  _update(from, to, value) */\n      jump\t// in\n    tag_241:\n        /* \"@openzeppelin/contracts/token/ERC20/ERC20.sol\":5393:5693  function _transfer(address from, address to, uint256 value) internal {... */\n      pop\n      pop\n      pop\n      jump\t// out\n        /* \"@openzeppelin/contracts/access/Ownable.sol\":1796:1958  function _checkOwner() internal view virtual {... */\n    tag_131:\n        /* \"@openzeppelin/contracts/access/Ownable.sol\":1866:1878  _msgSender() */\n      tag_244\n        /* \"@openzeppelin/contracts/access/Ownable.sol\":1866:1876  _msgSender */\n      tag_112\n        /* \"@openzeppelin/contracts/access/Ownable.sol\":1866:1878  _msgSender() */\n      jump\t// in\n    tag_244:\n        /* \"@openzeppelin/contracts/access/Ownable.sol\":1855:1878  owner() != _msgSender() */\n      0xffffffffffffffffffffffffffffffffffffffff\n      and\n        /* \"@openzeppelin/contracts/access/Ownable.sol\":1855:1862  owner() */\n      tag_245\n        /* \"@openzeppelin/contracts/access/Ownable.sol\":1855:1860  owner */\n      tag_79\n        /* \"@openzeppelin/contracts/access/Ownable.sol\":1855:1862  owner() */\n      jump\t// in\n    tag_245:\n        /* \"@openzeppelin/contracts/access/Ownable.sol\":1855:1878  owner() != _msgSender() */\n      0xffffffffffffffffffffffffffffffffffffffff\n      and\n      eq\n        /* \"@openzeppelin/contracts/access/Ownable.sol\":1851:1952  if (owner() != _msgSender()) {... */\n      tag_246\n      jumpi\n        /* \"@openzeppelin/contracts/access/Ownable.sol\":1928:1940  _msgSender() */\n      tag_247\n        /* \"@openzeppelin/contracts/access/Ownable.sol\":1928:1938  _msgSender */\n      tag_112\n        /* \"@openzeppelin/contracts/access/Ownable.sol\":1928:1940  _msgSender() */\n      jump\t// in\n    tag_247:\n        /* \"@openzeppelin/contracts/access/Ownable.sol\":1901:1941  OwnableUnauthorizedAccount(_msgSender()) */\n      mload(0x40)\n      0x118cdaa700000000000000000000000000000000000000000000000000000000\n      dup2\n      mstore\n      0x04\n      add\n      tag_248\n      swap2\n      swap1\n      tag_81\n      jump\t// in\n    tag_248:\n      mload(0x40)\n      dup1\n      swap2\n      sub\n      swap1\n      revert\n        /* \"@openzeppelin/contracts/access/Ownable.sol\":1851:1952  if (owner() != _msgSender()) {... */\n    tag_246:\n        /* \"@openzeppelin/contracts/access/Ownable.sol\":1796:1958  function _checkOwner() internal view virtual {... */\n      jump\t// out\n        /* \"@openzeppelin/contracts/token/ERC20/ERC20.sol\":7458:7666  function _mint(address account, uint256 value) internal {... */\n    tag_134:\n        /* \"@openzeppelin/contracts/token/ERC20/ERC20.sol\":7547:7548  0 */\n      0x00\n        /* \"@openzeppelin/contracts/token/ERC20/ERC20.sol\":7528:7549  account == address(0) */\n      0xffffffffffffffffffffffffffffffffffffffff\n      and\n        /* \"@openzeppelin/contracts/token/ERC20/ERC20.sol\":7528:7535  account */\n      dup3\n        /* \"@openzeppelin/contracts/token/ERC20/ERC20.sol\":7528:7549  account == address(0) */\n      0xffffffffffffffffffffffffffffffffffffffff\n      and\n      sub\n        /* \"@openzeppelin/contracts/token/ERC20/ERC20.sol\":7524:7615  if (account == address(0)) {... */\n      tag_250\n      jumpi\n        /* \"@openzeppelin/contracts/token/ERC20/ERC20.sol\":7601:7602  0 */\n      0x00\n        /* \"@openzeppelin/contracts/token/ERC20/ERC20.sol\":7572:7604  ERC20InvalidReceiver(address(0)) */\n      mload(0x40)\n      0xec442f0500000000000000000000000000000000000000000000000000000000\n      dup2\n      mstore\n      0x04\n      add\n      tag_251\n      swap2\n      swap1\n      tag_81\n      jump\t// in\n    tag_251:\n      mload(0x40)\n      dup1\n      swap2\n      sub\n      swap1\n      revert\n        /* \"@openzeppelin/contracts/token/ERC20/ERC20.sol\":7524:7615  if (account == address(0)) {... */\n    tag_250:\n        /* \"@openzeppelin/contracts/token/ERC20/ERC20.sol\":7624:7659  _update(address(0), account, value) */\n      tag_252\n        /* \"@openzeppelin/contracts/token/ERC20/ERC20.sol\":7640:7641  0 */\n      0x00\n        /* \"@openzeppelin/contracts/token/ERC20/ERC20.sol\":7644:7651  account */\n      dup4\n        /* \"@openzeppelin/contracts/token/ERC20/ERC20.sol\":7653:7658  value */\n      dup4\n        /* \"@openzeppelin/contracts/token/ERC20/ERC20.sol\":7624:7631  _update */\n      tag_242\n        /* \"@openzeppelin/contracts/token/ERC20/ERC20.sol\":7624:7659  _update(address(0), account, value) */\n      jump\t// in\n    tag_252:\n        /* \"@openzeppelin/contracts/token/ERC20/ERC20.sol\":7458:7666  function _mint(address account, uint256 value) internal {... */\n      pop\n      pop\n      jump\t// out\n        /* \"@openzeppelin/contracts/token/ERC20/ERC20.sol\":7984:8190  function _burn(address account, uint256 value) internal {... */\n    tag_150:\n        /* \"@openzeppelin/contracts/token/ERC20/ERC20.sol\":8073:8074  0 */\n      0x00\n        /* \"@openzeppelin/contracts/token/ERC20/ERC20.sol\":8054:8075  account == address(0) */\n      0xffffffffffffffffffffffffffffffffffffffff\n      and\n        /* \"@openzeppelin/contracts/token/ERC20/ERC20.sol\":8054:8061  account */\n      dup3\n        /* \"@openzeppelin/contracts/token/ERC20/ERC20.sol\":8054:8075  account == address(0) */\n      0xffffffffffffffffffffffffffffffffffffffff\n      and\n      sub\n        /* \"@openzeppelin/contracts/token/ERC20/ERC20.sol\":8050:8139  if (account == address(0)) {... */\n      tag_254\n      jumpi\n        /* \"@openzeppelin/contracts/token/ERC20/ERC20.sol\":8125:8126  0 */\n      0x00\n        /* \"@openzeppelin/contracts/token/ERC20/ERC20.sol\":8098:8128  ERC20InvalidSender(address(0)) */\n      mload(0x40)\n      0x96c6fd1e00000000000000000000000000000000000000000000000000000000\n      dup2\n      mstore\n      0x04\n      add\n      tag_255\n      swap2\n      swap1\n      tag_81\n      jump\t// in\n    tag_255:\n      mload(0x40)\n      dup1\n      swap2\n      sub\n      swap1\n      revert\n        /* \"@openzeppelin/contracts/token/ERC20/ERC20.sol\":8050:8139  if (account == address(0)) {... */\n    tag_254:\n        /* \"@openzeppelin/contracts/token/ERC20/ERC20.sol\":8148:8183  _update(account, address(0), value) */\n      tag_256\n        /* \"@openzeppelin/contracts/token/ERC20/ERC20.sol\":8156:8163  account */\n      dup3\n        /* \"@openzeppelin/contracts/token/ERC20/ERC20.sol\":8173:8174  0 */\n      0x00\n        /* \"@openzeppelin/contracts/token/ERC20/ERC20.sol\":8177:8182  value */\n      dup4\n        /* \"@openzeppelin/contracts/token/ERC20/ERC20.sol\":8148:8155  _update */\n      tag_242\n        /* \"@openzeppelin/contracts/token/ERC20/ERC20.sol\":8148:8183  _update(account, address(0), value) */\n      jump\t// in\n    tag_256:\n        /* \"@openzeppelin/contracts/token/ERC20/ERC20.sol\":7984:8190  function _burn(address account, uint256 value) internal {... */\n      pop\n      pop\n      jump\t// out\n        /* \"@openzeppelin/contracts/access/Ownable.sol\":2912:3099  function _transferOwnership(address newOwner) internal virtual {... */\n    tag_156:\n        /* \"@openzeppelin/contracts/access/Ownable.sol\":2985:3001  address oldOwner */\n      0x00\n        /* \"@openzeppelin/contracts/access/Ownable.sol\":3004:3010  _owner */\n      0x05\n      0x00\n      swap1\n      sload\n      swap1\n      0x0100\n      exp\n      swap1\n      div\n      0xffffffffffffffffffffffffffffffffffffffff\n      and\n        /* \"@openzeppelin/contracts/access/Ownable.sol\":2985:3010  address oldOwner = _owner */\n      swap1\n      pop\n        /* \"@openzeppelin/contracts/access/Ownable.sol\":3029:3037  newOwner */\n      dup2\n        /* \"@openzeppelin/contracts/access/Ownable.sol\":3020:3026  _owner */\n      0x05\n      0x00\n        /* \"@openzeppelin/contracts/access/Ownable.sol\":3020:3037  _owner = newOwner */\n      0x0100\n      exp\n      dup2\n      sload\n      dup2\n      0xffffffffffffffffffffffffffffffffffffffff\n      mul\n      not\n      and\n      swap1\n      dup4\n      0xffffffffffffffffffffffffffffffffffffffff\n      and\n      mul\n      or\n      swap1\n      sstore\n      pop\n        /* \"@openzeppelin/contracts/access/Ownable.sol\":3083:3091  newOwner */\n      dup2\n        /* \"@openzeppelin/contracts/access/Ownable.sol\":3052:3092  OwnershipTransferred(oldOwner, newOwner) */\n      0xffffffffffffffffffffffffffffffffffffffff\n      and\n        /* \"@openzeppelin/contracts/access/Ownable.sol\":3073:3081  oldOwner */\n      dup2\n        /* \"@openzeppelin/contracts/access/Ownable.sol\":3052:3092  OwnershipTransferred(oldOwner, newOwner) */\n      0xffffffffffffffffffffffffffffffffffffffff\n      and\n      0x8be0079c531659141344cd1fd0a4f28419497f9722a3daafe3b4186f6b6457e0\n      mload(0x40)\n      mload(0x40)\n      dup1\n      swap2\n      sub\n      swap1\n      log3\n        /* \"@openzeppelin/contracts/access/Ownable.sol\":2975:3099  {... */\n      pop\n        /* \"@openzeppelin/contracts/access/Ownable.sol\":2912:3099  function _transferOwnership(address newOwner) internal virtual {... */\n      pop\n      jump\t// out\n        /* \"@openzeppelin/contracts/token/ERC20/ERC20.sol\":9701:10133  function _approve(address owner, address spender, uint256 value, bool emitEvent) internal virtual {... */\n    tag_228:\n        /* \"@openzeppelin/contracts/token/ERC20/ERC20.sol\":9830:9831  0 */\n      0x00\n        /* \"@openzeppelin/contracts/token/ERC20/ERC20.sol\":9813:9832  owner == address(0) */\n      0xffffffffffffffffffffffffffffffffffffffff\n      and\n        /* \"@openzeppelin/contracts/token/ERC20/ERC20.sol\":9813:9818  owner */\n      dup5\n        /* \"@openzeppelin/contracts/token/ERC20/ERC20.sol\":9813:9832  owner == address(0) */\n      0xffffffffffffffffffffffffffffffffffffffff\n      and\n      sub\n        /* \"@openzeppelin/contracts/token/ERC20/ERC20.sol\":9809:9898  if (owner == address(0)) {... */\n      tag_259\n      jumpi\n        /* \"@openzeppelin/contracts/token/ERC20/ERC20.sol\":9884:9885  0 */\n      0x00\n        /* \"@openzeppelin/contracts/token/ERC20/ERC20.sol\":9855:9887  ERC20InvalidApprover(address(0)) */\n      mload(0x40)\n      0xe602df0500000000000000000000000000000000000000000000000000000000\n      dup2\n      mstore\n      0x04\n      add\n      tag_260\n      swap2\n      swap1\n      tag_81\n      jump\t// in\n    tag_260:\n      mload(0x40)\n      dup1\n      swap2\n      sub\n      swap1\n      revert\n        /* \"@openzeppelin/contracts/token/ERC20/ERC20.sol\":9809:9898  if (owner == address(0)) {... */\n    tag_259:\n        /* \"@openzeppelin/contracts/token/ERC20/ERC20.sol\":9930:9931  0 */\n      0x00\n        /* \"@openzeppelin/contracts/token/ERC20/ERC20.sol\":9911:9932  spender == address(0) */\n      0xffffffffffffffffffffffffffffffffffffffff\n      and\n        /* \"@openzeppelin/contracts/token/ERC20/ERC20.sol\":9911:9918  spender */\n      dup4\n        /* \"@openzeppelin/contracts/token/ERC20/ERC20.sol\":9911:9932  spender == address(0) */\n      0xffffffffffffffffffffffffffffffffffffffff\n      and\n      sub\n        /* \"@openzeppelin/contracts/token/ERC20/ERC20.sol\":9907:9997  if (spender == address(0)) {... */\n      tag_261\n      jumpi\n        /* \"@openzeppelin/contracts/token/ERC20/ERC20.sol\":9983:9984  0 */\n      0x00\n        /* \"@openzeppelin/contracts/token/ERC20/ERC20.sol\":9955:9986  ERC20InvalidSpender(address(0)) */\n      mload(0x40)\n      0x94280d6200000000000000000000000000000000000000000000000000000000\n      dup2\n      mstore\n      0x04\n      add\n      tag_262\n      swap2\n      swap1\n      tag_81\n      jump\t// in\n    tag_262:\n      mload(0x40)\n      dup1\n      swap2\n      sub\n      swap1\n      revert\n        /* \"@openzeppelin/contracts/token/ERC20/ERC20.sol\":9907:9997  if (spender == address(0)) {... */\n    tag_261:\n        /* \"@openzeppelin/contracts/token/ERC20/ERC20.sol\":10036:10041  value */\n      dup2\n        /* \"@openzeppelin/contracts/token/ERC20/ERC20.sol\":10006:10017  _allowances */\n      0x01\n        /* \"@openzeppelin/contracts/token/ERC20/ERC20.sol\":10006:10024  _allowances[owner] */\n      0x00\n        /* \"@openzeppelin/contracts/token/ERC20/ERC20.sol\":10018:10023  owner */\n      dup7\n        /* \"@openzeppelin/contracts/token/ERC20/ERC20.sol\":10006:10024  _allowances[owner] */\n      0xffffffffffffffffffffffffffffffffffffffff\n      and\n      0xffffffffffffffffffffffffffffffffffffffff\n      and\n      dup2\n      mstore\n      0x20\n      add\n      swap1\n      dup2\n      mstore\n      0x20\n      add\n      0x00\n      keccak256\n        /* \"@openzeppelin/contracts/token/ERC20/ERC20.sol\":10006:10033  _allowances[owner][spender] */\n      0x00\n        /* \"@openzeppelin/contracts/token/ERC20/ERC20.sol\":10025:10032  spender */\n      dup6\n        /* \"@openzeppelin/contracts/token/ERC20/ERC20.sol\":10006:10033  _allowances[owner][spender] */\n      0xffffffffffffffffffffffffffffffffffffffff\n      and\n      0xffffffffffffffffffffffffffffffffffffffff\n      and\n      dup2\n      mstore\n      0x20\n      add\n      swap1\n      dup2\n      mstore\n      0x20\n      add\n      0x00\n      keccak256\n        /* \"@openzeppelin/contracts/token/ERC20/ERC20.sol\":10006:10041  _allowances[owner][spender] = value */\n      dup2\n      swap1\n      sstore\n      pop\n        /* \"@openzeppelin/contracts/token/ERC20/ERC20.sol\":10055:10064  emitEvent */\n      dup1\n        /* \"@openzeppelin/contracts/token/ERC20/ERC20.sol\":10051:10127  if (emitEvent) {... */\n      iszero\n      tag_263\n      jumpi\n        /* \"@openzeppelin/contracts/token/ERC20/ERC20.sol\":10101:10108  spender */\n      dup3\n        /* \"@openzeppelin/contracts/token/ERC20/ERC20.sol\":10085:10116  Approval(owner, spender, value) */\n      0xffffffffffffffffffffffffffffffffffffffff\n      and\n        /* \"@openzeppelin/contracts/token/ERC20/ERC20.sol\":10094:10099  owner */\n      dup5\n        /* \"@openzeppelin/contracts/token/ERC20/ERC20.sol\":10085:10116  Approval(owner, spender, value) */\n      0xffffffffffffffffffffffffffffffffffffffff\n      and\n      0x8c5be1e5ebec7d5bd14f71427d1e84f3dd0314c0f7b2291e5b200ac8c7c3b925\n        /* \"@openzeppelin/contracts/token/ERC20/ERC20.sol\":10110:10115  value */\n      dup5\n        /* \"@openzeppelin/contracts/token/ERC20/ERC20.sol\":10085:10116  Approval(owner, spender, value) */\n      mload(0x40)\n      tag_264\n      swap2\n      swap1\n      tag_39\n      jump\t// in\n    tag_264:\n      mload(0x40)\n      dup1\n      swap2\n      sub\n      swap1\n      log3\n        /* \"@openzeppelin/contracts/token/ERC20/ERC20.sol\":10051:10127  if (emitEvent) {... */\n    tag_263:\n        /* \"@openzeppelin/contracts/token/ERC20/ERC20.sol\":9701:10133  function _approve(address owner, address spender, uint256 value, bool emitEvent) internal virtual {... */\n      pop\n      pop\n      pop\n      pop\n      jump\t// out\n        /* \"@openzeppelin/contracts/token/ERC20/ERC20.sol\":6008:7115  function _update(address from, address to, uint256 value) internal virtual {... */\n    tag_242:\n        /* \"@openzeppelin/contracts/token/ERC20/ERC20.sol\":6113:6114  0 */\n      0x00\n        /* \"@openzeppelin/contracts/token/ERC20/ERC20.sol\":6097:6115  from == address(0) */\n      0xffffffffffffffffffffffffffffffffffffffff\n      and\n        /* \"@openzeppelin/contracts/token/ERC20/ERC20.sol\":6097:6101  from */\n      dup4\n        /* \"@openzeppelin/contracts/token/ERC20/ERC20.sol\":6097:6115  from == address(0) */\n      0xffffffffffffffffffffffffffffffffffffffff\n      and\n      sub\n        /* \"@openzeppelin/contracts/token/ERC20/ERC20.sol\":6093:6633  if (from == address(0)) {... */\n      tag_266\n      jumpi\n        /* \"@openzeppelin/contracts/token/ERC20/ERC20.sol\":6249:6254  value */\n      dup1\n        /* \"@openzeppelin/contracts/token/ERC20/ERC20.sol\":6233:6245  _totalSupply */\n      0x02\n      0x00\n        /* \"@openzeppelin/contracts/token/ERC20/ERC20.sol\":6233:6254  _totalSupply += value */\n      dup3\n      dup3\n      sload\n      tag_267\n      swap2\n      swap1\n      tag_268\n      jump\t// in\n    tag_267:\n      swap3\n      pop\n      pop\n      dup2\n      swap1\n      sstore\n      pop\n        /* \"@openzeppelin/contracts/token/ERC20/ERC20.sol\":6093:6633  if (from == address(0)) {... */\n      jump(tag_269)\n    tag_266:\n        /* \"@openzeppelin/contracts/token/ERC20/ERC20.sol\":6285:6304  uint256 fromBalance */\n      0x00\n        /* \"@openzeppelin/contracts/token/ERC20/ERC20.sol\":6307:6316  _balances */\n      dup1\n        /* \"@openzeppelin/contracts/token/ERC20/ERC20.sol\":6307:6322  _balances[from] */\n      0x00\n        /* \"@openzeppelin/contracts/token/ERC20/ERC20.sol\":6317:6321  from */\n      dup6\n        /* \"@openzeppelin/contracts/token/ERC20/ERC20.sol\":6307:6322  _balances[from] */\n      0xffffffffffffffffffffffffffffffffffffffff\n      and\n      0xffffffffffffffffffffffffffffffffffffffff\n      and\n      dup2\n      mstore\n      0x20\n      add\n      swap1\n      dup2\n      mstore\n      0x20\n      add\n      0x00\n      keccak256\n      sload\n        /* \"@openzeppelin/contracts/token/ERC20/ERC20.sol\":6285:6322  uint256 fromBalance = _balances[from] */\n      swap1\n      pop\n        /* \"@openzeppelin/contracts/token/ERC20/ERC20.sol\":6354:6359  value */\n      dup2\n        /* \"@openzeppelin/contracts/token/ERC20/ERC20.sol\":6340:6351  fromBalance */\n      dup2\n        /* \"@openzeppelin/contracts/token/ERC20/ERC20.sol\":6340:6359  fromBalance < value */\n      lt\n        /* \"@openzeppelin/contracts/token/ERC20/ERC20.sol\":6336:6451  if (fromBalance < value) {... */\n      iszero\n      tag_270\n      jumpi\n        /* \"@openzeppelin/contracts/token/ERC20/ERC20.sol\":6411:6415  from */\n      dup4\n        /* \"@openzeppelin/contracts/token/ERC20/ERC20.sol\":6417:6428  fromBalance */\n      dup2\n        /* \"@openzeppelin/contracts/token/ERC20/ERC20.sol\":6430:6435  value */\n      dup4\n        /* \"@openzeppelin/contracts/token/ERC20/ERC20.sol\":6386:6436  ERC20InsufficientBalance(from, fromBalance, value) */\n      mload(0x40)\n      0xe450d38c00000000000000000000000000000000000000000000000000000000\n      dup2\n      mstore\n      0x04\n      add\n      tag_271\n      swap4\n      swap3\n      swap2\n      swap1\n      tag_234\n      jump\t// in\n    tag_271:\n      mload(0x40)\n      dup1\n      swap2\n      sub\n      swap1\n      revert\n        /* \"@openzeppelin/contracts/token/ERC20/ERC20.sol\":6336:6451  if (fromBalance < value) {... */\n    tag_270:\n        /* \"@openzeppelin/contracts/token/ERC20/ERC20.sol\":6603:6608  value */\n      dup2\n        /* \"@openzeppelin/contracts/token/ERC20/ERC20.sol\":6589:6600  fromBalance */\n      dup2\n        /* \"@openzeppelin/contracts/token/ERC20/ERC20.sol\":6589:6608  fromBalance - value */\n      sub\n        /* \"@openzeppelin/contracts/token/ERC20/ERC20.sol\":6571:6580  _balances */\n      0x00\n        /* \"@openzeppelin/contracts/token/ERC20/ERC20.sol\":6571:6586  _balances[from] */\n      dup1\n        /* \"@openzeppelin/contracts/token/ERC20/ERC20.sol\":6581:6585  from */\n      dup7\n        /* \"@openzeppelin/contracts/token/ERC20/ERC20.sol\":6571:6586  _balances[from] */\n      0xffffffffffffffffffffffffffffffffffffffff\n      and\n      0xffffffffffffffffffffffffffffffffffffffff\n      and\n      dup2\n      mstore\n      0x20\n      add\n      swap1\n      dup2\n      mstore\n      0x20\n      add\n      0x00\n      keccak256\n        /* \"@openzeppelin/contracts/token/ERC20/ERC20.sol\":6571:6608  _balances[from] = fromBalance - value */\n      dup2\n      swap1\n      sstore\n      pop\n        /* \"@openzeppelin/contracts/token/ERC20/ERC20.sol\":6271:6633  {... */\n      pop\n        /* \"@openzeppelin/contracts/token/ERC20/ERC20.sol\":6093:6633  if (from == address(0)) {... */\n    tag_269:\n        /* \"@openzeppelin/contracts/token/ERC20/ERC20.sol\":6661:6662  0 */\n      0x00\n        /* \"@openzeppelin/contracts/token/ERC20/ERC20.sol\":6647:6663  to == address(0) */\n      0xffffffffffffffffffffffffffffffffffffffff\n      and\n        /* \"@openzeppelin/contracts/token/ERC20/ERC20.sol\":6647:6649  to */\n      dup3\n        /* \"@openzeppelin/contracts/token/ERC20/ERC20.sol\":6647:6663  to == address(0) */\n      0xffffffffffffffffffffffffffffffffffffffff\n      and\n      sub\n        /* \"@openzeppelin/contracts/token/ERC20/ERC20.sol\":6643:7068  if (to == address(0)) {... */\n      tag_272\n      jumpi\n        /* \"@openzeppelin/contracts/token/ERC20/ERC20.sol\":6826:6831  value */\n      dup1\n        /* \"@openzeppelin/contracts/token/ERC20/ERC20.sol\":6810:6822  _totalSupply */\n      0x02\n      0x00\n        /* \"@openzeppelin/contracts/token/ERC20/ERC20.sol\":6810:6831  _totalSupply -= value */\n      dup3\n      dup3\n      sload\n      sub\n      swap3\n      pop\n      pop\n      dup2\n      swap1\n      sstore\n      pop\n        /* \"@openzeppelin/contracts/token/ERC20/ERC20.sol\":6643:7068  if (to == address(0)) {... */\n      jump(tag_273)\n    tag_272:\n        /* \"@openzeppelin/contracts/token/ERC20/ERC20.sol\":7038:7043  value */\n      dup1\n        /* \"@openzeppelin/contracts/token/ERC20/ERC20.sol\":7021:7030  _balances */\n      0x00\n        /* \"@openzeppelin/contracts/token/ERC20/ERC20.sol\":7021:7034  _balances[to] */\n      dup1\n        /* \"@openzeppelin/contracts/token/ERC20/ERC20.sol\":7031:7033  to */\n      dup5\n        /* \"@openzeppelin/contracts/token/ERC20/ERC20.sol\":7021:7034  _balances[to] */\n      0xffffffffffffffffffffffffffffffffffffffff\n      and\n      0xffffffffffffffffffffffffffffffffffffffff\n      and\n      dup2\n      mstore\n      0x20\n      add\n      swap1\n      dup2\n      mstore\n      0x20\n      add\n      0x00\n      keccak256\n      0x00\n        /* \"@openzeppelin/contracts/token/ERC20/ERC20.sol\":7021:7043  _balances[to] += value */\n      dup3\n      dup3\n      sload\n      add\n      swap3\n      pop\n      pop\n      dup2\n      swap1\n      sstore\n      pop\n        /* \"@openzeppelin/contracts/token/ERC20/ERC20.sol\":6643:7068  if (to == address(0)) {... */\n    tag_273:\n        /* \"@openzeppelin/contracts/token/ERC20/ERC20.sol\":7098:7100  to */\n      dup2\n        /* \"@openzeppelin/contracts/token/ERC20/ERC20.sol\":7083:7108  Transfer(from, to, value) */\n      0xffffffffffffffffffffffffffffffffffffffff\n      and\n        /* \"@openzeppelin/contracts/token/ERC20/ERC20.sol\":7092:7096  from */\n      dup4\n        /* \"@openzeppelin/contracts/token/ERC20/ERC20.sol\":7083:7108  Transfer(from, to, value) */\n      0xffffffffffffffffffffffffffffffffffffffff\n      and\n      0xddf252ad1be2c89b69c2b068fc378daa952ba7f163c4a11628f55a4df523b3ef\n        /* \"@openzeppelin/contracts/token/ERC20/ERC20.sol\":7102:7107  value */\n      dup4\n        /* \"@openzeppelin/contracts/token/ERC20/ERC20.sol\":7083:7108  Transfer(from, to, value) */\n      mload(0x40)\n      tag_274\n      swap2\n      swap1\n      tag_39\n      jump\t// in\n    tag_274:\n      mload(0x40)\n      dup1\n      swap2\n      sub\n      swap1\n      log3\n        /* \"@openzeppelin/contracts/token/ERC20/ERC20.sol\":6008:7115  function _update(address from, address to, uint256 value) internal virtual {... */\n      pop\n      pop\n      pop\n      jump\t// out\n        /* \"#utility.yul\":7:106   */\n    tag_275:\n        /* \"#utility.yul\":59:65   */\n      0x00\n        /* \"#utility.yul\":93:98   */\n      dup2\n        /* \"#utility.yul\":87:99   */\n      mload\n        /* \"#utility.yul\":77:99   */\n      swap1\n      pop\n        /* \"#utility.yul\":7:106   */\n      swap2\n      swap1\n      pop\n      jump\t// out\n        /* \"#utility.yul\":112:281   */\n    tag_276:\n        /* \"#utility.yul\":196:207   */\n      0x00\n        /* \"#utility.yul\":230:236   */\n      dup3\n        /* \"#utility.yul\":225:228   */\n      dup3\n        /* \"#utility.yul\":218:237   */\n      mstore\n        /* \"#utility.yul\":270:274   */\n      0x20\n        /* \"#utility.yul\":265:268   */\n      dup3\n        /* \"#utility.yul\":261:275   */\n      add\n        /* \"#utility.yul\":246:275   */\n      swap1\n      pop\n        /* \"#utility.yul\":112:281   */\n      swap3\n      swap2\n      pop\n      pop\n      jump\t// out\n        /* \"#utility.yul\":287:426   */\n    tag_277:\n        /* \"#utility.yul\":376:382   */\n      dup3\n        /* \"#utility.yul\":371:374   */\n      dup2\n        /* \"#utility.yul\":366:369   */\n      dup4\n        /* \"#utility.yul\":360:383   */\n      mcopy\n        /* \"#utility.yul\":417:418   */\n      0x00\n        /* \"#utility.yul\":408:414   */\n      dup4\n        /* \"#utility.yul\":403:406   */\n      dup4\n        /* \"#utility.yul\":399:415   */\n      add\n        /* \"#utility.yul\":392:419   */\n      mstore\n        /* \"#utility.yul\":287:426   */\n      pop\n      pop\n      pop\n      jump\t// out\n        /* \"#utility.yul\":432:534   */\n    tag_278:\n        /* \"#utility.yul\":473:479   */\n      0x00\n        /* \"#utility.yul\":524:526   */\n      0x1f\n        /* \"#utility.yul\":520:527   */\n      not\n        /* \"#utility.yul\":515:517   */\n      0x1f\n        /* \"#utility.yul\":508:513   */\n      dup4\n        /* \"#utility.yul\":504:518   */\n      add\n        /* \"#utility.yul\":500:528   */\n      and\n        /* \"#utility.yul\":490:528   */\n      swap1\n      pop\n        /* \"#utility.yul\":432:534   */\n      swap2\n      swap1\n      pop\n      jump\t// out\n        /* \"#utility.yul\":540:917   */\n    tag_279:\n        /* \"#utility.yul\":628:631   */\n      0x00\n        /* \"#utility.yul\":656:695   */\n      tag_339\n        /* \"#utility.yul\":689:694   */\n      dup3\n        /* \"#utility.yul\":656:695   */\n      tag_275\n      jump\t// in\n    tag_339:\n        /* \"#utility.yul\":711:782   */\n      tag_340\n        /* \"#utility.yul\":775:781   */\n      dup2\n        /* \"#utility.yul\":770:773   */\n      dup6\n        /* \"#utility.yul\":711:782   */\n      tag_276\n      jump\t// in\n    tag_340:\n        /* \"#utility.yul\":704:782   */\n      swap4\n      pop\n        /* \"#utility.yul\":791:856   */\n      tag_341\n        /* \"#utility.yul\":849:855   */\n      dup2\n        /* \"#utility.yul\":844:847   */\n      dup6\n        /* \"#utility.yul\":837:841   */\n      0x20\n        /* \"#utility.yul\":830:835   */\n      dup7\n        /* \"#utility.yul\":826:842   */\n      add\n        /* \"#utility.yul\":791:856   */\n      tag_277\n      jump\t// in\n    tag_341:\n        /* \"#utility.yul\":881:910   */\n      tag_342\n        /* \"#utility.yul\":903:909   */\n      dup2\n        /* \"#utility.yul\":881:910   */\n      tag_278\n      jump\t// in\n    tag_342:\n        /* \"#utility.yul\":876:879   */\n      dup5\n        /* \"#utility.yul\":872:911   */\n      add\n        /* \"#utility.yul\":865:911   */\n      swap2\n      pop\n        /* \"#utility.yul\":632:917   */\n      pop\n        /* \"#utility.yul\":540:917   */\n      swap3\n      swap2\n      pop\n      pop\n      jump\t// out\n        /* \"#utility.yul\":923:1236   */\n    tag_29:\n        /* \"#utility.yul\":1036:1040   */\n      0x00\n        /* \"#utility.yul\":1074:1076   */\n      0x20\n        /* \"#utility.yul\":1063:1072   */\n      dup3\n        /* \"#utility.yul\":1059:1077   */\n      add\n        /* \"#utility.yul\":1051:1077   */\n      swap1\n      pop\n        /* \"#utility.yul\":1123:1132   */\n      dup2\n        /* \"#utility.yul\":1117:1121   */\n      dup2\n        /* \"#utility.yul\":1113:1133   */\n      sub\n        /* \"#utility.yul\":1109:1110   */\n      0x00\n        /* \"#utility.yul\":1098:1107   */\n      dup4\n        /* \"#utility.yul\":1094:1111   */\n      add\n        /* \"#utility.yul\":1087:1134   */\n      mstore\n        /* \"#utility.yul\":1151:1229   */\n      tag_344\n        /* \"#utility.yul\":1224:1228   */\n      dup2\n        /* \"#utility.yul\":1215:1221   */\n      dup5\n        /* \"#utility.yul\":1151:1229   */\n      tag_279\n      jump\t// in\n    tag_344:\n        /* \"#utility.yul\":1143:1229   */\n      swap1\n      pop\n        /* \"#utility.yul\":923:1236   */\n      swap3\n      swap2\n      pop\n      pop\n      jump\t// out\n        /* \"#utility.yul\":1323:1440   */\n    tag_281:\n        /* \"#utility.yul\":1432:1433   */\n      0x00\n        /* \"#utility.yul\":1429:1430   */\n      dup1\n        /* \"#utility.yul\":1422:1434   */\n      revert\n        /* \"#utility.yul\":1569:1695   */\n    tag_283:\n        /* \"#utility.yul\":1606:1613   */\n      0x00\n        /* \"#utility.yul\":1646:1688   */\n      0xffffffffffffffffffffffffffffffffffffffff\n        /* \"#utility.yul\":1639:1644   */\n      dup3\n        /* \"#utility.yul\":1635:1689   */\n      and\n        /* \"#utility.yul\":1624:1689   */\n      swap1\n      pop\n        /* \"#utility.yul\":1569:1695   */\n      swap2\n      swap1\n      pop\n      jump\t// out\n        /* \"#utility.yul\":1701:1797   */\n    tag_284:\n        /* \"#utility.yul\":1738:1745   */\n      0x00\n        /* \"#utility.yul\":1767:1791   */\n      tag_350\n        /* \"#utility.yul\":1785:1790   */\n      dup3\n        /* \"#utility.yul\":1767:1791   */\n      tag_283\n      jump\t// in\n    tag_350:\n        /* \"#utility.yul\":1756:1791   */\n      swap1\n      pop\n        /* \"#utility.yul\":1701:1797   */\n      swap2\n      swap1\n      pop\n      jump\t// out\n        /* \"#utility.yul\":1803:1925   */\n    tag_285:\n        /* \"#utility.yul\":1876:1900   */\n      tag_352\n        /* \"#utility.yul\":1894:1899   */\n      dup2\n        /* \"#utility.yul\":1876:1900   */\n      tag_284\n      jump\t// in\n    tag_352:\n        /* \"#utility.yul\":1869:1874   */\n      dup2\n        /* \"#utility.yul\":1866:1901   */\n      eq\n        /* \"#utility.yul\":1856:1919   */\n      tag_353\n      jumpi\n        /* \"#utility.yul\":1915:1916   */\n      0x00\n        /* \"#utility.yul\":1912:1913   */\n      dup1\n        /* \"#utility.yul\":1905:1917   */\n      revert\n        /* \"#utility.yul\":1856:1919   */\n    tag_353:\n        /* \"#utility.yul\":1803:1925   */\n      pop\n      jump\t// out\n        /* \"#utility.yul\":1931:2070   */\n    tag_286:\n        /* \"#utility.yul\":1977:1982   */\n      0x00\n        /* \"#utility.yul\":2015:2021   */\n      dup2\n        /* \"#utility.yul\":2002:2022   */\n      calldataload\n        /* \"#utility.yul\":1993:2022   */\n      swap1\n      pop\n        /* \"#utility.yul\":2031:2064   */\n      tag_355\n        /* \"#utility.yul\":2058:2063   */\n      dup2\n        /* \"#utility.yul\":2031:2064   */\n      tag_285\n      jump\t// in\n    tag_355:\n        /* \"#utility.yul\":1931:2070   */\n      swap3\n      swap2\n      pop\n      pop\n      jump\t// out\n        /* \"#utility.yul\":2076:2153   */\n    tag_287:\n        /* \"#utility.yul\":2113:2120   */\n      0x00\n        /* \"#utility.yul\":2142:2147   */\n      dup2\n        /* \"#utility.yul\":2131:2147   */\n      swap1\n      pop\n        /* \"#utility.yul\":2076:2153   */\n      swap2\n      swap1\n      pop\n      jump\t// out\n        /* \"#utility.yul\":2159:2281   */\n    tag_288:\n        /* \"#utility.yul\":2232:2256   */\n      tag_358\n        /* \"#utility.yul\":2250:2255   */\n      dup2\n        /* \"#utility.yul\":2232:2256   */\n      tag_287\n      jump\t// in\n    tag_358:\n        /* \"#utility.yul\":2225:2230   */\n      dup2\n        /* \"#utility.yul\":2222:2257   */\n      eq\n        /* \"#utility.yul\":2212:2275   */\n      tag_359\n      jumpi\n        /* \"#utility.yul\":2271:2272   */\n      0x00\n        /* \"#utility.yul\":2268:2269   */\n      dup1\n        /* \"#utility.yul\":2261:2273   */\n      revert\n        /* \"#utility.yul\":2212:2275   */\n    tag_359:\n        /* \"#utility.yul\":2159:2281   */\n      pop\n      jump\t// out\n        /* \"#utility.yul\":2287:2426   */\n    tag_289:\n        /* \"#utility.yul\":2333:2338   */\n      0x00\n        /* \"#utility.yul\":2371:2377   */\n      dup2\n        /* \"#utility.yul\":2358:2378   */\n      calldataload\n        /* \"#utility.yul\":2349:2378   */\n      swap1\n      pop\n        /* \"#utility.yul\":2387:2420   */\n      tag_361\n        /* \"#utility.yul\":2414:2419   */\n      dup2\n        /* \"#utility.yul\":2387:2420   */\n      tag_288\n      jump\t// in\n    tag_361:\n        /* \"#utility.yul\":2287:2426   */\n      swap3\n      swap2\n      pop\n      pop\n      jump\t// out\n        /* \"#utility.yul\":2432:2906   */\n    tag_32:\n        /* \"#utility.yul\":2500:2506   */\n      0x00\n        /* \"#utility.yul\":2508:2514   */\n      dup1\n        /* \"#utility.yul\":2557:2559   */\n      0x40\n        /* \"#utility.yul\":2545:2554   */\n      dup4\n        /* \"#utility.yul\":2536:2543   */\n      dup6\n        /* \"#utility.yul\":2532:2555   */\n      sub\n        /* \"#utility.yul\":2528:2560   */\n      slt\n        /* \"#utility.yul\":2525:2644   */\n      iszero\n      tag_363\n      jumpi\n        /* \"#utility.yul\":2563:2642   */\n      tag_364\n      tag_281\n      jump\t// in\n    tag_364:\n        /* \"#utility.yul\":2525:2644   */\n    tag_363:\n        /* \"#utility.yul\":2683:2684   */\n      0x00\n        /* \"#utility.yul\":2708:2761   */\n      tag_365\n        /* \"#utility.yul\":2753:2760   */\n      dup6\n        /* \"#utility.yul\":2744:2750   */\n      dup3\n        /* \"#utility.yul\":2733:2742   */\n      dup7\n        /* \"#utility.yul\":2729:2751   */\n      add\n        /* \"#utility.yul\":2708:2761   */\n      tag_286\n      jump\t// in\n    tag_365:\n        /* \"#utility.yul\":2698:2761   */\n      swap3\n      pop\n        /* \"#utility.yul\":2654:2771   */\n      pop\n        /* \"#utility.yul\":2810:2812   */\n      0x20\n        /* \"#utility.yul\":2836:2889   */\n      tag_366\n        /* \"#utility.yul\":2881:2888   */\n      dup6\n        /* \"#utility.yul\":2872:2878   */\n      dup3\n        /* \"#utility.yul\":2861:2870   */\n      dup7\n        /* \"#utility.yul\":2857:2879   */\n      add\n        /* \"#utility.yul\":2836:2889   */\n      tag_289\n      jump\t// in\n    tag_366:\n        /* \"#utility.yul\":2826:2889   */\n      swap2\n      pop\n        /* \"#utility.yul\":2781:2899   */\n      pop\n        /* \"#utility.yul\":2432:2906   */\n      swap3\n      pop\n      swap3\n      swap1\n      pop\n      jump\t// out\n        /* \"#utility.yul\":2912:3002   */\n    tag_290:\n        /* \"#utility.yul\":2946:2953   */\n      0x00\n        /* \"#utility.yul\":2989:2994   */\n      dup2\n        /* \"#utility.yul\":2982:2995   */\n      iszero\n        /* \"#utility.yul\":2975:2996   */\n      iszero\n        /* \"#utility.yul\":2964:2996   */\n      swap1\n      pop\n        /* \"#utility.yul\":2912:3002   */\n      swap2\n      swap1\n      pop\n      jump\t// out\n        /* \"#utility.yul\":3008:3117   */\n    tag_291:\n        /* \"#utility.yul\":3089:3110   */\n      tag_369\n        /* \"#utility.yul\":3104:3109   */\n      dup2\n        /* \"#utility.yul\":3089:3110   */\n      tag_290\n      jump\t// in\n    tag_369:\n        /* \"#utility.yul\":3084:3087   */\n      dup3\n        /* \"#utility.yul\":3077:3111   */\n      mstore\n        /* \"#utility.yul\":3008:3117   */\n      pop\n      pop\n      jump\t// out\n        /* \"#utility.yul\":3123:3333   */\n    tag_35:\n        /* \"#utility.yul\":3210:3214   */\n      0x00\n        /* \"#utility.yul\":3248:3250   */\n      0x20\n        /* \"#utility.yul\":3237:3246   */\n      dup3\n        /* \"#utility.yul\":3233:3251   */\n      add\n        /* \"#utility.yul\":3225:3251   */\n      swap1\n      pop\n        /* \"#utility.yul\":3261:3326   */\n      tag_371\n        /* \"#utility.yul\":3323:3324   */\n      0x00\n        /* \"#utility.yul\":3312:3321   */\n      dup4\n        /* \"#utility.yul\":3308:3325   */\n      add\n        /* \"#utility.yul\":3299:3305   */\n      dup5\n        /* \"#utility.yul\":3261:3326   */\n      tag_291\n      jump\t// in\n    tag_371:\n        /* \"#utility.yul\":3123:3333   */\n      swap3\n      swap2\n      pop\n      pop\n      jump\t// out\n        /* \"#utility.yul\":3339:3457   */\n    tag_292:\n        /* \"#utility.yul\":3426:3450   */\n      tag_373\n        /* \"#utility.yul\":3444:3449   */\n      dup2\n        /* \"#utility.yul\":3426:3450   */\n      tag_287\n      jump\t// in\n    tag_373:\n        /* \"#utility.yul\":3421:3424   */\n      dup3\n        /* \"#utility.yul\":3414:3451   */\n      mstore\n        /* \"#utility.yul\":3339:3457   */\n      pop\n      pop\n      jump\t// out\n        /* \"#utility.yul\":3463:3685   */\n    tag_39:\n        /* \"#utility.yul\":3556:3560   */\n      0x00\n        /* \"#utility.yul\":3594:3596   */\n      0x20\n        /* \"#utility.yul\":3583:3592   */\n      dup3\n        /* \"#utility.yul\":3579:3597   */\n      add\n        /* \"#utility.yul\":3571:3597   */\n      swap1\n      pop\n        /* \"#utility.yul\":3607:3678   */\n      tag_375\n        /* \"#utility.yul\":3675:3676   */\n      0x00\n        /* \"#utility.yul\":3664:3673   */\n      dup4\n        /* \"#utility.yul\":3660:3677   */\n      add\n        /* \"#utility.yul\":3651:3657   */\n      dup5\n        /* \"#utility.yul\":3607:3678   */\n      tag_292\n      jump\t// in\n    tag_375:\n        /* \"#utility.yul\":3463:3685   */\n      swap3\n      swap2\n      pop\n      pop\n      jump\t// out\n        /* \"#utility.yul\":3691:4310   */\n    tag_45:\n        /* \"#utility.yul\":3768:3774   */\n      0x00\n        /* \"#utility.yul\":3776:3782   */\n      dup1\n        /* \"#utility.yul\":3784:3790   */\n      0x00\n        /* \"#utility.yul\":3833:3835   */\n      0x60\n        /* \"#utility.yul\":3821:3830   */\n      dup5\n        /* \"#utility.yul\":3812:3819   */\n      dup7\n        /* \"#utility.yul\":3808:3831   */\n      sub\n        /* \"#utility.yul\":3804:3836   */\n      slt\n        /* \"#utility.yul\":3801:3920   */\n      iszero\n      tag_377\n      jumpi\n        /* \"#utility.yul\":3839:3918   */\n      tag_378\n      tag_281\n      jump\t// in\n    tag_378:\n        /* \"#utility.yul\":3801:3920   */\n    tag_377:\n        /* \"#utility.yul\":3959:3960   */\n      0x00\n        /* \"#utility.yul\":3984:4037   */\n      tag_379\n        /* \"#utility.yul\":4029:4036   */\n      dup7\n        /* \"#utility.yul\":4020:4026   */\n      dup3\n        /* \"#utility.yul\":4009:4018   */\n      dup8\n        /* \"#utility.yul\":4005:4027   */\n      add\n        /* \"#utility.yul\":3984:4037   */\n      tag_286\n      jump\t// in\n    tag_379:\n        /* \"#utility.yul\":3974:4037   */\n      swap4\n      pop\n        /* \"#utility.yul\":3930:4047   */\n      pop\n        /* \"#utility.yul\":4086:4088   */\n      0x20\n        /* \"#utility.yul\":4112:4165   */\n      tag_380\n        /* \"#utility.yul\":4157:4164   */\n      dup7\n        /* \"#utility.yul\":4148:4154   */\n      dup3\n        /* \"#utility.yul\":4137:4146   */\n      dup8\n        /* \"#utility.yul\":4133:4155   */\n      add\n        /* \"#utility.yul\":4112:4165   */\n      tag_286\n      jump\t// in\n    tag_380:\n        /* \"#utility.yul\":4102:4165   */\n      swap3\n      pop\n        /* \"#utility.yul\":4057:4175   */\n      pop\n        /* \"#utility.yul\":4214:4216   */\n      0x40\n        /* \"#utility.yul\":4240:4293   */\n      tag_381\n        /* \"#utility.yul\":4285:4292   */\n      dup7\n        /* \"#utility.yul\":4276:4282   */\n      dup3\n        /* \"#utility.yul\":4265:4274   */\n      dup8\n        /* \"#utility.yul\":4261:4283   */\n      add\n        /* \"#utility.yul\":4240:4293   */\n      tag_289\n      jump\t// in\n    tag_381:\n        /* \"#utility.yul\":4230:4293   */\n      swap2\n      pop\n        /* \"#utility.yul\":4185:4303   */\n      pop\n        /* \"#utility.yul\":3691:4310   */\n      swap3\n      pop\n      swap3\n      pop\n      swap3\n      jump\t// out\n        /* \"#utility.yul\":4316:4402   */\n    tag_293:\n        /* \"#utility.yul\":4351:4358   */\n      0x00\n        /* \"#utility.yul\":4391:4395   */\n      0xff\n        /* \"#utility.yul\":4384:4389   */\n      dup3\n        /* \"#utility.yul\":4380:4396   */\n      and\n        /* \"#utility.yul\":4369:4396   */\n      swap1\n      pop\n        /* \"#utility.yul\":4316:4402   */\n      swap2\n      swap1\n      pop\n      jump\t// out\n        /* \"#utility.yul\":4408:4520   */\n    tag_294:\n        /* \"#utility.yul\":4491:4513   */\n      tag_384\n        /* \"#utility.yul\":4507:4512   */\n      dup2\n        /* \"#utility.yul\":4491:4513   */\n      tag_293\n      jump\t// in\n    tag_384:\n        /* \"#utility.yul\":4486:4489   */\n      dup3\n        /* \"#utility.yul\":4479:4514   */\n      mstore\n        /* \"#utility.yul\":4408:4520   */\n      pop\n      pop\n      jump\t// out\n        /* \"#utility.yul\":4526:4740   */\n    tag_51:\n        /* \"#utility.yul\":4615:4619   */\n      0x00\n        /* \"#utility.yul\":4653:4655   */\n      0x20\n        /* \"#utility.yul\":4642:4651   */\n      dup3\n        /* \"#utility.yul\":4638:4656   */\n      add\n        /* \"#utility.yul\":4630:4656   */\n      swap1\n      pop\n        /* \"#utility.yul\":4666:4733   */\n      tag_386\n        /* \"#utility.yul\":4730:4731   */\n      0x00\n        /* \"#utility.yul\":4719:4728   */\n      dup4\n        /* \"#utility.yul\":4715:4732   */\n      add\n        /* \"#utility.yul\":4706:4712   */\n      dup5\n        /* \"#utility.yul\":4666:4733   */\n      tag_294\n      jump\t// in\n    tag_386:\n        /* \"#utility.yul\":4526:4740   */\n      swap3\n      swap2\n      pop\n      pop\n      jump\t// out\n        /* \"#utility.yul\":4746:5075   */\n    tag_57:\n        /* \"#utility.yul\":4805:4811   */\n      0x00\n        /* \"#utility.yul\":4854:4856   */\n      0x20\n        /* \"#utility.yul\":4842:4851   */\n      dup3\n        /* \"#utility.yul\":4833:4840   */\n      dup5\n        /* \"#utility.yul\":4829:4852   */\n      sub\n        /* \"#utility.yul\":4825:4857   */\n      slt\n        /* \"#utility.yul\":4822:4941   */\n      iszero\n      tag_388\n      jumpi\n        /* \"#utility.yul\":4860:4939   */\n      tag_389\n      tag_281\n      jump\t// in\n    tag_389:\n        /* \"#utility.yul\":4822:4941   */\n    tag_388:\n        /* \"#utility.yul\":4980:4981   */\n      0x00\n        /* \"#utility.yul\":5005:5058   */\n      tag_390\n        /* \"#utility.yul\":5050:5057   */\n      dup5\n        /* \"#utility.yul\":5041:5047   */\n      dup3\n        /* \"#utility.yul\":5030:5039   */\n      dup6\n        /* \"#utility.yul\":5026:5048   */\n      add\n        /* \"#utility.yul\":5005:5058   */\n      tag_289\n      jump\t// in\n    tag_390:\n        /* \"#utility.yul\":4995:5058   */\n      swap2\n      pop\n        /* \"#utility.yul\":4951:5068   */\n      pop\n        /* \"#utility.yul\":4746:5075   */\n      swap3\n      swap2\n      pop\n      pop\n      jump\t// out\n        /* \"#utility.yul\":5081:5614   */\n    tag_60:\n        /* \"#utility.yul\":5250:5254   */\n      0x00\n        /* \"#utility.yul\":5288:5290   */\n      0x60\n        /* \"#utility.yul\":5277:5286   */\n      dup3\n        /* \"#utility.yul\":5273:5291   */\n      add\n        /* \"#utility.yul\":5265:5291   */\n      swap1\n      pop\n        /* \"#utility.yul\":5301:5372   */\n      tag_392\n        /* \"#utility.yul\":5369:5370   */\n      0x00\n        /* \"#utility.yul\":5358:5367   */\n      dup4\n        /* \"#utility.yul\":5354:5371   */\n      add\n        /* \"#utility.yul\":5345:5351   */\n      dup7\n        /* \"#utility.yul\":5301:5372   */\n      tag_292\n      jump\t// in\n    tag_392:\n        /* \"#utility.yul\":5419:5428   */\n      dup2\n        /* \"#utility.yul\":5413:5417   */\n      dup2\n        /* \"#utility.yul\":5409:5429   */\n      sub\n        /* \"#utility.yul\":5404:5406   */\n      0x20\n        /* \"#utility.yul\":5393:5402   */\n      dup4\n        /* \"#utility.yul\":5389:5407   */\n      add\n        /* \"#utility.yul\":5382:5430   */\n      mstore\n        /* \"#utility.yul\":5447:5525   */\n      tag_393\n        /* \"#utility.yul\":5520:5524   */\n      dup2\n        /* \"#utility.yul\":5511:5517   */\n      dup6\n        /* \"#utility.yul\":5447:5525   */\n      tag_279\n      jump\t// in\n    tag_393:\n        /* \"#utility.yul\":5439:5525   */\n      swap1\n      pop\n        /* \"#utility.yul\":5535:5607   */\n      tag_394\n        /* \"#utility.yul\":5603:5605   */\n      0x40\n        /* \"#utility.yul\":5592:5601   */\n      dup4\n        /* \"#utility.yul\":5588:5606   */\n      add\n        /* \"#utility.yul\":5579:5585   */\n      dup5\n        /* \"#utility.yul\":5535:5607   */\n      tag_292\n      jump\t// in\n    tag_394:\n        /* \"#utility.yul\":5081:5614   */\n      swap5\n      swap4\n      pop\n      pop\n      pop\n      pop\n      jump\t// out\n        /* \"#utility.yul\":5620:5949   */\n    tag_66:\n        /* \"#utility.yul\":5679:5685   */\n      0x00\n        /* \"#utility.yul\":5728:5730   */\n      0x20\n        /* \"#utility.yul\":5716:5725   */\n      dup3\n        /* \"#utility.yul\":5707:5714   */\n      dup5\n        /* \"#utility.yul\":5703:5726   */\n      sub\n        /* \"#utility.yul\":5699:5731   */\n      slt\n        /* \"#utility.yul\":5696:5815   */\n      iszero\n      tag_396\n      jumpi\n        /* \"#utility.yul\":5734:5813   */\n      tag_397\n      tag_281\n      jump\t// in\n    tag_397:\n        /* \"#utility.yul\":5696:5815   */\n    tag_396:\n        /* \"#utility.yul\":5854:5855   */\n      0x00\n        /* \"#utility.yul\":5879:5932   */\n      tag_398\n        /* \"#utility.yul\":5924:5931   */\n      dup5\n        /* \"#utility.yul\":5915:5921   */\n      dup3\n        /* \"#utility.yul\":5904:5913   */\n      dup6\n        /* \"#utility.yul\":5900:5922   */\n      add\n        /* \"#utility.yul\":5879:5932   */\n      tag_286\n      jump\t// in\n    tag_398:\n        /* \"#utility.yul\":5869:5932   */\n      swap2\n      pop\n        /* \"#utility.yul\":5825:5942   */\n      pop\n        /* \"#utility.yul\":5620:5949   */\n      swap3\n      swap2\n      pop\n      pop\n      jump\t// out\n        /* \"#utility.yul\":5955:6094   */\n    tag_295:\n        /* \"#utility.yul\":6047:6053   */\n      0x00\n        /* \"#utility.yul\":6081:6086   */\n      dup2\n        /* \"#utility.yul\":6075:6087   */\n      mload\n        /* \"#utility.yul\":6065:6087   */\n      swap1\n      pop\n        /* \"#utility.yul\":5955:6094   */\n      swap2\n      swap1\n      pop\n      jump\t// out\n        /* \"#utility.yul\":6100:6309   */\n    tag_296:\n        /* \"#utility.yul\":6224:6235   */\n      0x00\n        /* \"#utility.yul\":6258:6264   */\n      dup3\n        /* \"#utility.yul\":6253:6256   */\n      dup3\n        /* \"#utility.yul\":6246:6265   */\n      mstore\n        /* \"#utility.yul\":6298:6302   */\n      0x20\n        /* \"#utility.yul\":6293:6296   */\n      dup3\n        /* \"#utility.yul\":6289:6303   */\n      add\n        /* \"#utility.yul\":6274:6303   */\n      swap1\n      pop\n        /* \"#utility.yul\":6100:6309   */\n      swap3\n      swap2\n      pop\n      pop\n      jump\t// out\n        /* \"#utility.yul\":6315:6472   */\n    tag_297:\n        /* \"#utility.yul\":6407:6411   */\n      0x00\n        /* \"#utility.yul\":6430:6433   */\n      dup2\n        /* \"#utility.yul\":6422:6433   */\n      swap1\n      pop\n        /* \"#utility.yul\":6460:6464   */\n      0x20\n        /* \"#utility.yul\":6455:6458   */\n      dup3\n        /* \"#utility.yul\":6451:6465   */\n      add\n        /* \"#utility.yul\":6443:6465   */\n      swap1\n      pop\n        /* \"#utility.yul\":6315:6472   */\n      swap2\n      swap1\n      pop\n      jump\t// out\n        /* \"#utility.yul\":6478:6586   */\n    tag_298:\n        /* \"#utility.yul\":6555:6579   */\n      tag_403\n        /* \"#utility.yul\":6573:6578   */\n      dup2\n        /* \"#utility.yul\":6555:6579   */\n      tag_287\n      jump\t// in\n    tag_403:\n        /* \"#utility.yul\":6550:6553   */\n      dup3\n        /* \"#utility.yul\":6543:6580   */\n      mstore\n        /* \"#utility.yul\":6478:6586   */\n      pop\n      pop\n      jump\t// out\n        /* \"#utility.yul\":6592:6751   */\n    tag_299:\n        /* \"#utility.yul\":6666:6677   */\n      0x00\n        /* \"#utility.yul\":6700:6706   */\n      dup3\n        /* \"#utility.yul\":6695:6698   */\n      dup3\n        /* \"#utility.yul\":6688:6707   */\n      mstore\n        /* \"#utility.yul\":6740:6744   */\n      0x20\n        /* \"#utility.yul\":6735:6738   */\n      dup3\n        /* \"#utility.yul\":6731:6745   */\n      add\n        /* \"#utility.yul\":6716:6745   */\n      swap1\n      pop\n        /* \"#utility.yul\":6592:6751   */\n      swap3\n      swap2\n      pop\n      pop\n      jump\t// out\n        /* \"#utility.yul\":6757:7114   */\n    tag_300:\n        /* \"#utility.yul\":6835:6838   */\n      0x00\n        /* \"#utility.yul\":6863:6902   */\n      tag_406\n        /* \"#utility.yul\":6896:6901   */\n      dup3\n        /* \"#utility.yul\":6863:6902   */\n      tag_275\n      jump\t// in\n    tag_406:\n        /* \"#utility.yul\":6918:6979   */\n      tag_407\n        /* \"#utility.yul\":6972:6978   */\n      dup2\n        /* \"#utility.yul\":6967:6970   */\n      dup6\n        /* \"#utility.yul\":6918:6979   */\n      tag_299\n      jump\t// in\n    tag_407:\n        /* \"#utility.yul\":6911:6979   */\n      swap4\n      pop\n        /* \"#utility.yul\":6988:7053   */\n      tag_408\n        /* \"#utility.yul\":7046:7052   */\n      dup2\n        /* \"#utility.yul\":7041:7044   */\n      dup6\n        /* \"#utility.yul\":7034:7038   */\n      0x20\n        /* \"#utility.yul\":7027:7032   */\n      dup7\n        /* \"#utility.yul\":7023:7039   */\n      add\n        /* \"#utility.yul\":6988:7053   */\n      tag_277\n      jump\t// in\n    tag_408:\n        /* \"#utility.yul\":7078:7107   */\n      tag_409\n        /* \"#utility.yul\":7100:7106   */\n      dup2\n        /* \"#utility.yul\":7078:7107   */\n      tag_278\n      jump\t// in\n    tag_409:\n        /* \"#utility.yul\":7073:7076   */\n      dup5\n        /* \"#utility.yul\":7069:7108   */\n      add\n        /* \"#utility.yul\":7062:7108   */\n      swap2\n      pop\n        /* \"#utility.yul\":6839:7114   */\n      pop\n        /* \"#utility.yul\":6757:7114   */\n      swap3\n      swap2\n      pop\n      pop\n      jump\t// out\n        /* \"#utility.yul\":7184:7964   */\n    tag_301:\n        /* \"#utility.yul\":7293:7296   */\n      0x00\n        /* \"#utility.yul\":7329:7333   */\n      0x60\n        /* \"#utility.yul\":7324:7327   */\n      dup4\n        /* \"#utility.yul\":7320:7334   */\n      add\n        /* \"#utility.yul\":7418:7422   */\n      0x00\n        /* \"#utility.yul\":7411:7416   */\n      dup4\n        /* \"#utility.yul\":7407:7423   */\n      add\n        /* \"#utility.yul\":7401:7424   */\n      mload\n        /* \"#utility.yul\":7437:7500   */\n      tag_411\n        /* \"#utility.yul\":7494:7498   */\n      0x00\n        /* \"#utility.yul\":7489:7492   */\n      dup7\n        /* \"#utility.yul\":7485:7499   */\n      add\n        /* \"#utility.yul\":7471:7483   */\n      dup3\n        /* \"#utility.yul\":7437:7500   */\n      tag_298\n      jump\t// in\n    tag_411:\n        /* \"#utility.yul\":7344:7510   */\n      pop\n        /* \"#utility.yul\":7596:7600   */\n      0x20\n        /* \"#utility.yul\":7589:7594   */\n      dup4\n        /* \"#utility.yul\":7585:7601   */\n      add\n        /* \"#utility.yul\":7579:7602   */\n      mload\n        /* \"#utility.yul\":7649:7652   */\n      dup5\n        /* \"#utility.yul\":7643:7647   */\n      dup3\n        /* \"#utility.yul\":7639:7653   */\n      sub\n        /* \"#utility.yul\":7632:7636   */\n      0x20\n        /* \"#utility.yul\":7627:7630   */\n      dup7\n        /* \"#utility.yul\":7623:7637   */\n      add\n        /* \"#utility.yul\":7616:7654   */\n      mstore\n        /* \"#utility.yul\":7675:7748   */\n      tag_412\n        /* \"#utility.yul\":7743:7747   */\n      dup3\n        /* \"#utility.yul\":7729:7741   */\n      dup3\n        /* \"#utility.yul\":7675:7748   */\n      tag_300\n      jump\t// in\n    tag_412:\n        /* \"#utility.yul\":7667:7748   */\n      swap2\n      pop\n        /* \"#utility.yul\":7520:7759   */\n      pop\n        /* \"#utility.yul\":7845:7849   */\n      0x40\n        /* \"#utility.yul\":7838:7843   */\n      dup4\n        /* \"#utility.yul\":7834:7850   */\n      add\n        /* \"#utility.yul\":7828:7851   */\n      mload\n        /* \"#utility.yul\":7864:7927   */\n      tag_413\n        /* \"#utility.yul\":7921:7925   */\n      0x40\n        /* \"#utility.yul\":7916:7919   */\n      dup7\n        /* \"#utility.yul\":7912:7926   */\n      add\n        /* \"#utility.yul\":7898:7910   */\n      dup3\n        /* \"#utility.yul\":7864:7927   */\n      tag_298\n      jump\t// in\n    tag_413:\n        /* \"#utility.yul\":7769:7937   */\n      pop\n        /* \"#utility.yul\":7954:7958   */\n      dup1\n        /* \"#utility.yul\":7947:7958   */\n      swap2\n      pop\n        /* \"#utility.yul\":7298:7964   */\n      pop\n        /* \"#utility.yul\":7184:7964   */\n      swap3\n      swap2\n      pop\n      pop\n      jump\t// out\n        /* \"#utility.yul\":7970:8226   */\n    tag_302:\n        /* \"#utility.yul\":8089:8099   */\n      0x00\n        /* \"#utility.yul\":8124:8220   */\n      tag_415\n        /* \"#utility.yul\":8216:8219   */\n      dup4\n        /* \"#utility.yul\":8208:8214   */\n      dup4\n        /* \"#utility.yul\":8124:8220   */\n      tag_301\n      jump\t// in\n    tag_415:\n        /* \"#utility.yul\":8110:8220   */\n      swap1\n      pop\n        /* \"#utility.yul\":7970:8226   */\n      swap3\n      swap2\n      pop\n      pop\n      jump\t// out\n        /* \"#utility.yul\":8232:8370   */\n    tag_303:\n        /* \"#utility.yul\":8327:8331   */\n      0x00\n        /* \"#utility.yul\":8359:8363   */\n      0x20\n        /* \"#utility.yul\":8354:8357   */\n      dup3\n        /* \"#utility.yul\":8350:8364   */\n      add\n        /* \"#utility.yul\":8342:8364   */\n      swap1\n      pop\n        /* \"#utility.yul\":8232:8370   */\n      swap2\n      swap1\n      pop\n      jump\t// out\n        /* \"#utility.yul\":8444:9555   */\n    tag_304:\n        /* \"#utility.yul\":8613:8616   */\n      0x00\n        /* \"#utility.yul\":8642:8721   */\n      tag_418\n        /* \"#utility.yul\":8715:8720   */\n      dup3\n        /* \"#utility.yul\":8642:8721   */\n      tag_295\n      jump\t// in\n    tag_418:\n        /* \"#utility.yul\":8737:8848   */\n      tag_419\n        /* \"#utility.yul\":8841:8847   */\n      dup2\n        /* \"#utility.yul\":8836:8839   */\n      dup6\n        /* \"#utility.yul\":8737:8848   */\n      tag_296\n      jump\t// in\n    tag_419:\n        /* \"#utility.yul\":8730:8848   */\n      swap4\n      pop\n        /* \"#utility.yul\":8874:8877   */\n      dup4\n        /* \"#utility.yul\":8919:8923   */\n      0x20\n        /* \"#utility.yul\":8911:8917   */\n      dup3\n        /* \"#utility.yul\":8907:8924   */\n      mul\n        /* \"#utility.yul\":8902:8905   */\n      dup6\n        /* \"#utility.yul\":8898:8925   */\n      add\n        /* \"#utility.yul\":8949:9030   */\n      tag_420\n        /* \"#utility.yul\":9024:9029   */\n      dup6\n        /* \"#utility.yul\":8949:9030   */\n      tag_297\n      jump\t// in\n    tag_420:\n        /* \"#utility.yul\":9053:9060   */\n      dup1\n        /* \"#utility.yul\":9084:9085   */\n      0x00\n        /* \"#utility.yul\":9069:9510   */\n    tag_421:\n        /* \"#utility.yul\":9094:9100   */\n      dup6\n        /* \"#utility.yul\":9091:9092   */\n      dup2\n        /* \"#utility.yul\":9088:9101   */\n      lt\n        /* \"#utility.yul\":9069:9510   */\n      iszero\n      tag_423\n      jumpi\n        /* \"#utility.yul\":9165:9174   */\n      dup5\n        /* \"#utility.yul\":9159:9163   */\n      dup5\n        /* \"#utility.yul\":9155:9175   */\n      sub\n        /* \"#utility.yul\":9150:9153   */\n      dup10\n        /* \"#utility.yul\":9143:9176   */\n      mstore\n        /* \"#utility.yul\":9216:9222   */\n      dup2\n        /* \"#utility.yul\":9210:9223   */\n      mload\n        /* \"#utility.yul\":9244:9358   */\n      tag_424\n        /* \"#utility.yul\":9353:9357   */\n      dup6\n        /* \"#utility.yul\":9338:9351   */\n      dup3\n        /* \"#utility.yul\":9244:9358   */\n      tag_302\n      jump\t// in\n    tag_424:\n        /* \"#utility.yul\":9236:9358   */\n      swap5\n      pop\n        /* \"#utility.yul\":9381:9466   */\n      tag_425\n        /* \"#utility.yul\":9459:9465   */\n      dup4\n        /* \"#utility.yul\":9381:9466   */\n      tag_303\n      jump\t// in\n    tag_425:\n        /* \"#utility.yul\":9371:9466   */\n      swap3\n      pop\n        /* \"#utility.yul\":9495:9499   */\n      0x20\n        /* \"#utility.yul\":9490:9493   */\n      dup11\n        /* \"#utility.yul\":9486:9500   */\n      add\n        /* \"#utility.yul\":9479:9500   */\n      swap10\n      pop\n        /* \"#utility.yul\":9129:9510   */\n      pop\n        /* \"#utility.yul\":9116:9117   */\n      0x01\n        /* \"#utility.yul\":9113:9114   */\n      dup2\n        /* \"#utility.yul\":9109:9118   */\n      add\n        /* \"#utility.yul\":9104:9118   */\n      swap1\n      pop\n        /* \"#utility.yul\":9069:9510   */\n      jump(tag_421)\n    tag_423:\n        /* \"#utility.yul\":9073:9087   */\n      pop\n        /* \"#utility.yul\":9526:9530   */\n      dup3\n        /* \"#utility.yul\":9519:9530   */\n      swap8\n      pop\n        /* \"#utility.yul\":9546:9549   */\n      dup8\n        /* \"#utility.yul\":9539:9549   */\n      swap6\n      pop\n        /* \"#utility.yul\":8618:9555   */\n      pop\n      pop\n      pop\n      pop\n      pop\n        /* \"#utility.yul\":8444:9555   */\n      swap3\n      swap2\n      pop\n      pop\n      jump\t// out\n        /* \"#utility.yul\":9561:10034   */\n    tag_74:\n        /* \"#utility.yul\":9754:9758   */\n      0x00\n        /* \"#utility.yul\":9792:9794   */\n      0x20\n        /* \"#utility.yul\":9781:9790   */\n      dup3\n        /* \"#utility.yul\":9777:9795   */\n      add\n        /* \"#utility.yul\":9769:9795   */\n      swap1\n      pop\n        /* \"#utility.yul\":9841:9850   */\n      dup2\n        /* \"#utility.yul\":9835:9839   */\n      dup2\n        /* \"#utility.yul\":9831:9851   */\n      sub\n        /* \"#utility.yul\":9827:9828   */\n      0x00\n        /* \"#utility.yul\":9816:9825   */\n      dup4\n        /* \"#utility.yul\":9812:9829   */\n      add\n        /* \"#utility.yul\":9805:9852   */\n      mstore\n        /* \"#utility.yul\":9869:10027   */\n      tag_427\n        /* \"#utility.yul\":10022:10026   */\n      dup2\n        /* \"#utility.yul\":10013:10019   */\n      dup5\n        /* \"#utility.yul\":9869:10027   */\n      tag_304\n      jump\t// in\n    tag_427:\n        /* \"#utility.yul\":9861:10027   */\n      swap1\n      pop\n        /* \"#utility.yul\":9561:10034   */\n      swap3\n      swap2\n      pop\n      pop\n      jump\t// out\n        /* \"#utility.yul\":10040:10158   */\n    tag_305:\n        /* \"#utility.yul\":10127:10151   */\n      tag_429\n        /* \"#utility.yul\":10145:10150   */\n      dup2\n        /* \"#utility.yul\":10127:10151   */\n      tag_284\n      jump\t// in\n    tag_429:\n        /* \"#utility.yul\":10122:10125   */\n      dup3\n        /* \"#utility.yul\":10115:10152   */\n      mstore\n        /* \"#utility.yul\":10040:10158   */\n      pop\n      pop\n      jump\t// out\n        /* \"#utility.yul\":10164:10386   */\n    tag_81:\n        /* \"#utility.yul\":10257:10261   */\n      0x00\n        /* \"#utility.yul\":10295:10297   */\n      0x20\n        /* \"#utility.yul\":10284:10293   */\n      dup3\n        /* \"#utility.yul\":10280:10298   */\n      add\n        /* \"#utility.yul\":10272:10298   */\n      swap1\n      pop\n        /* \"#utility.yul\":10308:10379   */\n      tag_431\n        /* \"#utility.yul\":10376:10377   */\n      0x00\n        /* \"#utility.yul\":10365:10374   */\n      dup4\n        /* \"#utility.yul\":10361:10378   */\n      add\n        /* \"#utility.yul\":10352:10358   */\n      dup5\n        /* \"#utility.yul\":10308:10379   */\n      tag_305\n      jump\t// in\n    tag_431:\n        /* \"#utility.yul\":10164:10386   */\n      swap3\n      swap2\n      pop\n      pop\n      jump\t// out\n        /* \"#utility.yul\":10392:10866   */\n    tag_97:\n        /* \"#utility.yul\":10460:10466   */\n      0x00\n        /* \"#utility.yul\":10468:10474   */\n      dup1\n        /* \"#utility.yul\":10517:10519   */\n      0x40\n        /* \"#utility.yul\":10505:10514   */\n      dup4\n        /* \"#utility.yul\":10496:10503   */\n      dup6\n        /* \"#utility.yul\":10492:10515   */\n      sub\n        /* \"#utility.yul\":10488:10520   */\n      slt\n        /* \"#utility.yul\":10485:10604   */\n      iszero\n      tag_433\n      jumpi\n        /* \"#utility.yul\":10523:10602   */\n      tag_434\n      tag_281\n      jump\t// in\n    tag_434:\n        /* \"#utility.yul\":10485:10604   */\n    tag_433:\n        /* \"#utility.yul\":10643:10644   */\n      0x00\n        /* \"#utility.yul\":10668:10721   */\n      tag_435\n        /* \"#utility.yul\":10713:10720   */\n      dup6\n        /* \"#utility.yul\":10704:10710   */\n      dup3\n        /* \"#utility.yul\":10693:10702   */\n      dup7\n        /* \"#utility.yul\":10689:10711   */\n      add\n        /* \"#utility.yul\":10668:10721   */\n      tag_286\n      jump\t// in\n    tag_435:\n        /* \"#utility.yul\":10658:10721   */\n      swap3\n      pop\n        /* \"#utility.yul\":10614:10731   */\n      pop\n        /* \"#utility.yul\":10770:10772   */\n      0x20\n        /* \"#utility.yul\":10796:10849   */\n      tag_436\n        /* \"#utility.yul\":10841:10848   */\n      dup6\n        /* \"#utility.yul\":10832:10838   */\n      dup3\n        /* \"#utility.yul\":10821:10830   */\n      dup7\n        /* \"#utility.yul\":10817:10839   */\n      add\n        /* \"#utility.yul\":10796:10849   */\n      tag_286\n      jump\t// in\n    tag_436:\n        /* \"#utility.yul\":10786:10849   */\n      swap2\n      pop\n        /* \"#utility.yul\":10741:10859   */\n      pop\n        /* \"#utility.yul\":10392:10866   */\n      swap3\n      pop\n      swap3\n      swap1\n      pop\n      jump\t// out\n        /* \"#utility.yul\":10872:11052   */\n    tag_306:\n        /* \"#utility.yul\":10920:10997   */\n      0x4e487b7100000000000000000000000000000000000000000000000000000000\n        /* \"#utility.yul\":10917:10918   */\n      0x00\n        /* \"#utility.yul\":10910:10998   */\n      mstore\n        /* \"#utility.yul\":11017:11021   */\n      0x22\n        /* \"#utility.yul\":11014:11015   */\n      0x04\n        /* \"#utility.yul\":11007:11022   */\n      mstore\n        /* \"#utility.yul\":11041:11045   */\n      0x24\n        /* \"#utility.yul\":11038:11039   */\n      0x00\n        /* \"#utility.yul\":11031:11046   */\n      revert\n        /* \"#utility.yul\":11058:11378   */\n    tag_105:\n        /* \"#utility.yul\":11102:11108   */\n      0x00\n        /* \"#utility.yul\":11139:11140   */\n      0x02\n        /* \"#utility.yul\":11133:11137   */\n      dup3\n        /* \"#utility.yul\":11129:11141   */\n      div\n        /* \"#utility.yul\":11119:11141   */\n      swap1\n      pop\n        /* \"#utility.yul\":11186:11187   */\n      0x01\n        /* \"#utility.yul\":11180:11184   */\n      dup3\n        /* \"#utility.yul\":11176:11188   */\n      and\n        /* \"#utility.yul\":11207:11225   */\n      dup1\n        /* \"#utility.yul\":11197:11278   */\n      tag_439\n      jumpi\n        /* \"#utility.yul\":11263:11267   */\n      0x7f\n        /* \"#utility.yul\":11255:11261   */\n      dup3\n        /* \"#utility.yul\":11251:11268   */\n      and\n        /* \"#utility.yul\":11241:11268   */\n      swap2\n      pop\n        /* \"#utility.yul\":11197:11278   */\n    tag_439:\n        /* \"#utility.yul\":11325:11327   */\n      0x20\n        /* \"#utility.yul\":11317:11323   */\n      dup3\n        /* \"#utility.yul\":11314:11328   */\n      lt\n        /* \"#utility.yul\":11294:11312   */\n      dup2\n        /* \"#utility.yul\":11291:11329   */\n      sub\n        /* \"#utility.yul\":11288:11372   */\n      tag_440\n      jumpi\n        /* \"#utility.yul\":11344:11362   */\n      tag_441\n      tag_306\n      jump\t// in\n    tag_441:\n        /* \"#utility.yul\":11288:11372   */\n    tag_440:\n        /* \"#utility.yul\":11109:11378   */\n      pop\n        /* \"#utility.yul\":11058:11378   */\n      swap2\n      swap1\n      pop\n      jump\t// out\n        /* \"#utility.yul\":11384:11527   */\n    tag_307:\n        /* \"#utility.yul\":11441:11446   */\n      0x00\n        /* \"#utility.yul\":11472:11478   */\n      dup2\n        /* \"#utility.yul\":11466:11479   */\n      mload\n        /* \"#utility.yul\":11457:11479   */\n      swap1\n      pop\n        /* \"#utility.yul\":11488:11521   */\n      tag_443\n        /* \"#utility.yul\":11515:11520   */\n      dup2\n        /* \"#utility.yul\":11488:11521   */\n      tag_288\n      jump\t// in\n    tag_443:\n        /* \"#utility.yul\":11384:11527   */\n      swap3\n      swap2\n      pop\n      pop\n      jump\t// out\n        /* \"#utility.yul\":11533:11884   */\n    tag_120:\n        /* \"#utility.yul\":11603:11609   */\n      0x00\n        /* \"#utility.yul\":11652:11654   */\n      0x20\n        /* \"#utility.yul\":11640:11649   */\n      dup3\n        /* \"#utility.yul\":11631:11638   */\n      dup5\n        /* \"#utility.yul\":11627:11650   */\n      sub\n        /* \"#utility.yul\":11623:11655   */\n      slt\n        /* \"#utility.yul\":11620:11739   */\n      iszero\n      tag_445\n      jumpi\n        /* \"#utility.yul\":11658:11737   */\n      tag_446\n      tag_281\n      jump\t// in\n    tag_446:\n        /* \"#utility.yul\":11620:11739   */\n    tag_445:\n        /* \"#utility.yul\":11778:11779   */\n      0x00\n        /* \"#utility.yul\":11803:11867   */\n      tag_447\n        /* \"#utility.yul\":11859:11866   */\n      dup5\n        /* \"#utility.yul\":11850:11856   */\n      dup3\n        /* \"#utility.yul\":11839:11848   */\n      dup6\n        /* \"#utility.yul\":11835:11857   */\n      add\n        /* \"#utility.yul\":11803:11867   */\n      tag_307\n      jump\t// in\n    tag_447:\n        /* \"#utility.yul\":11793:11867   */\n      swap2\n      pop\n        /* \"#utility.yul\":11749:11877   */\n      pop\n        /* \"#utility.yul\":11533:11884   */\n      swap3\n      swap2\n      pop\n      pop\n      jump\t// out\n        /* \"#utility.yul\":11890:12112   */\n    tag_308:\n        /* \"#utility.yul\":12030:12064   */\n      0x596f7520646f206e6f74206861766520656e6f75676820446567656e20546f6b\n        /* \"#utility.yul\":12026:12027   */\n      0x00\n        /* \"#utility.yul\":12018:12024   */\n      dup3\n        /* \"#utility.yul\":12014:12028   */\n      add\n        /* \"#utility.yul\":12007:12065   */\n      mstore\n        /* \"#utility.yul\":12099:12104   */\n      0x656e730000000000000000000000000000000000000000000000000000000000\n        /* \"#utility.yul\":12094:12096   */\n      0x20\n        /* \"#utility.yul\":12086:12092   */\n      dup3\n        /* \"#utility.yul\":12082:12097   */\n      add\n        /* \"#utility.yul\":12075:12105   */\n      mstore\n        /* \"#utility.yul\":11890:12112   */\n      pop\n      jump\t// out\n        /* \"#utility.yul\":12118:12484   */\n    tag_309:\n        /* \"#utility.yul\":12260:12263   */\n      0x00\n        /* \"#utility.yul\":12281:12348   */\n      tag_450\n        /* \"#utility.yul\":12345:12347   */\n      0x23\n        /* \"#utility.yul\":12340:12343   */\n      dup4\n        /* \"#utility.yul\":12281:12348   */\n      tag_276\n      jump\t// in\n    tag_450:\n        /* \"#utility.yul\":12274:12348   */\n      swap2\n      pop\n        /* \"#utility.yul\":12357:12450   */\n      tag_451\n        /* \"#utility.yul\":12446:12449   */\n      dup3\n        /* \"#utility.yul\":12357:12450   */\n      tag_308\n      jump\t// in\n    tag_451:\n        /* \"#utility.yul\":12475:12477   */\n      0x40\n        /* \"#utility.yul\":12470:12473   */\n      dup3\n        /* \"#utility.yul\":12466:12478   */\n      add\n        /* \"#utility.yul\":12459:12478   */\n      swap1\n      pop\n        /* \"#utility.yul\":12118:12484   */\n      swap2\n      swap1\n      pop\n      jump\t// out\n        /* \"#utility.yul\":12490:12909   */\n    tag_147:\n        /* \"#utility.yul\":12656:12660   */\n      0x00\n        /* \"#utility.yul\":12694:12696   */\n      0x20\n        /* \"#utility.yul\":12683:12692   */\n      dup3\n        /* \"#utility.yul\":12679:12697   */\n      add\n        /* \"#utility.yul\":12671:12697   */\n      swap1\n      pop\n        /* \"#utility.yul\":12743:12752   */\n      dup2\n        /* \"#utility.yul\":12737:12741   */\n      dup2\n        /* \"#utility.yul\":12733:12753   */\n      sub\n        /* \"#utility.yul\":12729:12730   */\n      0x00\n        /* \"#utility.yul\":12718:12727   */\n      dup4\n        /* \"#utility.yul\":12714:12731   */\n      add\n        /* \"#utility.yul\":12707:12754   */\n      mstore\n        /* \"#utility.yul\":12771:12902   */\n      tag_453\n        /* \"#utility.yul\":12897:12901   */\n      dup2\n        /* \"#utility.yul\":12771:12902   */\n      tag_309\n      jump\t// in\n    tag_453:\n        /* \"#utility.yul\":12763:12902   */\n      swap1\n      pop\n        /* \"#utility.yul\":12490:12909   */\n      swap2\n      swap1\n      pop\n      jump\t// out\n        /* \"#utility.yul\":12915:13139   */\n    tag_310:\n        /* \"#utility.yul\":13055:13089   */\n      0x5472616e73666572206661696c65643a20696e73756666696369656e74206261\n        /* \"#utility.yul\":13051:13052   */\n      0x00\n        /* \"#utility.yul\":13043:13049   */\n      dup3\n        /* \"#utility.yul\":13039:13053   */\n      add\n        /* \"#utility.yul\":13032:13090   */\n      mstore\n        /* \"#utility.yul\":13124:13131   */\n      0x6c616e6365000000000000000000000000000000000000000000000000000000\n        /* \"#utility.yul\":13119:13121   */\n      0x20\n        /* \"#utility.yul\":13111:13117   */\n      dup3\n        /* \"#utility.yul\":13107:13122   */\n      add\n        /* \"#utility.yul\":13100:13132   */\n      mstore\n        /* \"#utility.yul\":12915:13139   */\n      pop\n      jump\t// out\n        /* \"#utility.yul\":13145:13511   */\n    tag_311:\n        /* \"#utility.yul\":13287:13290   */\n      0x00\n        /* \"#utility.yul\":13308:13375   */\n      tag_456\n        /* \"#utility.yul\":13372:13374   */\n      0x25\n        /* \"#utility.yul\":13367:13370   */\n      dup4\n        /* \"#utility.yul\":13308:13375   */\n      tag_276\n      jump\t// in\n    tag_456:\n        /* \"#utility.yul\":13301:13375   */\n      swap2\n      pop\n        /* \"#utility.yul\":13384:13477   */\n      tag_457\n        /* \"#utility.yul\":13473:13476   */\n      dup3\n        /* \"#utility.yul\":13384:13477   */\n      tag_310\n      jump\t// in\n    tag_457:\n        /* \"#utility.yul\":13502:13504   */\n      0x40\n        /* \"#utility.yul\":13497:13500   */\n      dup3\n        /* \"#utility.yul\":13493:13505   */\n      add\n        /* \"#utility.yul\":13486:13505   */\n      swap1\n      pop\n        /* \"#utility.yul\":13145:13511   */\n      swap2\n      swap1\n      pop\n      jump\t// out\n        /* \"#utility.yul\":13517:13936   */\n    tag_190:\n        /* \"#utility.yul\":13683:13687   */\n      0x00\n        /* \"#utility.yul\":13721:13723   */\n      0x20\n        /* \"#utility.yul\":13710:13719   */\n      dup3\n        /* \"#utility.yul\":13706:13724   */\n      add\n        /* \"#utility.yul\":13698:13724   */\n      swap1\n      pop\n        /* \"#utility.yul\":13770:13779   */\n      dup2\n        /* \"#utility.yul\":13764:13768   */\n      dup2\n        /* \"#utility.yul\":13760:13780   */\n      sub\n        /* \"#utility.yul\":13756:13757   */\n      0x00\n        /* \"#utility.yul\":13745:13754   */\n      dup4\n        /* \"#utility.yul\":13741:13758   */\n      add\n        /* \"#utility.yul\":13734:13781   */\n      mstore\n        /* \"#utility.yul\":13798:13929   */\n      tag_459\n        /* \"#utility.yul\":13924:13928   */\n      dup2\n        /* \"#utility.yul\":13798:13929   */\n      tag_311\n      jump\t// in\n    tag_459:\n        /* \"#utility.yul\":13790:13929   */\n      swap1\n      pop\n        /* \"#utility.yul\":13517:13936   */\n      swap2\n      swap1\n      pop\n      jump\t// out\n        /* \"#utility.yul\":13942:14107   */\n    tag_312:\n        /* \"#utility.yul\":14082:14099   */\n      0x496e76616c6964206974656d2049440000000000000000000000000000000000\n        /* \"#utility.yul\":14078:14079   */\n      0x00\n        /* \"#utility.yul\":14070:14076   */\n      dup3\n        /* \"#utility.yul\":14066:14080   */\n      add\n        /* \"#utility.yul\":14059:14100   */\n      mstore\n        /* \"#utility.yul\":13942:14107   */\n      pop\n      jump\t// out\n        /* \"#utility.yul\":14113:14479   */\n    tag_313:\n        /* \"#utility.yul\":14255:14258   */\n      0x00\n        /* \"#utility.yul\":14276:14343   */\n      tag_462\n        /* \"#utility.yul\":14340:14342   */\n      0x0f\n        /* \"#utility.yul\":14335:14338   */\n      dup4\n        /* \"#utility.yul\":14276:14343   */\n      tag_276\n      jump\t// in\n    tag_462:\n        /* \"#utility.yul\":14269:14343   */\n      swap2\n      pop\n        /* \"#utility.yul\":14352:14445   */\n      tag_463\n        /* \"#utility.yul\":14441:14444   */\n      dup3\n        /* \"#utility.yul\":14352:14445   */\n      tag_312\n      jump\t// in\n    tag_463:\n        /* \"#utility.yul\":14470:14472   */\n      0x20\n        /* \"#utility.yul\":14465:14468   */\n      dup3\n        /* \"#utility.yul\":14461:14473   */\n      add\n        /* \"#utility.yul\":14454:14473   */\n      swap1\n      pop\n        /* \"#utility.yul\":14113:14479   */\n      swap2\n      swap1\n      pop\n      jump\t// out\n        /* \"#utility.yul\":14485:14904   */\n    tag_197:\n        /* \"#utility.yul\":14651:14655   */\n      0x00\n        /* \"#utility.yul\":14689:14691   */\n      0x20\n        /* \"#utility.yul\":14678:14687   */\n      dup3\n        /* \"#utility.yul\":14674:14692   */\n      add\n        /* \"#utility.yul\":14666:14692   */\n      swap1\n      pop\n        /* \"#utility.yul\":14738:14747   */\n      dup2\n        /* \"#utility.yul\":14732:14736   */\n      dup2\n        /* \"#utility.yul\":14728:14748   */\n      sub\n        /* \"#utility.yul\":14724:14725   */\n      0x00\n        /* \"#utility.yul\":14713:14722   */\n      dup4\n        /* \"#utility.yul\":14709:14726   */\n      add\n        /* \"#utility.yul\":14702:14749   */\n      mstore\n        /* \"#utility.yul\":14766:14897   */\n      tag_465\n        /* \"#utility.yul\":14892:14896   */\n      dup2\n        /* \"#utility.yul\":14766:14897   */\n      tag_313\n      jump\t// in\n    tag_465:\n        /* \"#utility.yul\":14758:14897   */\n      swap1\n      pop\n        /* \"#utility.yul\":14485:14904   */\n      swap2\n      swap1\n      pop\n      jump\t// out\n        /* \"#utility.yul\":14910:15090   */\n    tag_314:\n        /* \"#utility.yul\":14958:15035   */\n      0x4e487b7100000000000000000000000000000000000000000000000000000000\n        /* \"#utility.yul\":14955:14956   */\n      0x00\n        /* \"#utility.yul\":14948:15036   */\n      mstore\n        /* \"#utility.yul\":15055:15059   */\n      0x11\n        /* \"#utility.yul\":15052:15053   */\n      0x04\n        /* \"#utility.yul\":15045:15060   */\n      mstore\n        /* \"#utility.yul\":15079:15083   */\n      0x24\n        /* \"#utility.yul\":15076:15077   */\n      0x00\n        /* \"#utility.yul\":15069:15084   */\n      revert\n        /* \"#utility.yul\":15096:15290   */\n    tag_199:\n        /* \"#utility.yul\":15136:15140   */\n      0x00\n        /* \"#utility.yul\":15156:15176   */\n      tag_468\n        /* \"#utility.yul\":15174:15175   */\n      dup3\n        /* \"#utility.yul\":15156:15176   */\n      tag_287\n      jump\t// in\n    tag_468:\n        /* \"#utility.yul\":15151:15176   */\n      swap2\n      pop\n        /* \"#utility.yul\":15190:15210   */\n      tag_469\n        /* \"#utility.yul\":15208:15209   */\n      dup4\n        /* \"#utility.yul\":15190:15210   */\n      tag_287\n      jump\t// in\n    tag_469:\n        /* \"#utility.yul\":15185:15210   */\n      swap3\n      pop\n        /* \"#utility.yul\":15234:15235   */\n      dup3\n        /* \"#utility.yul\":15231:15232   */\n      dup3\n        /* \"#utility.yul\":15227:15236   */\n      sub\n        /* \"#utility.yul\":15219:15236   */\n      swap1\n      pop\n        /* \"#utility.yul\":15258:15259   */\n      dup2\n        /* \"#utility.yul\":15252:15256   */\n      dup2\n        /* \"#utility.yul\":15249:15260   */\n      gt\n        /* \"#utility.yul\":15246:15283   */\n      iszero\n      tag_470\n      jumpi\n        /* \"#utility.yul\":15263:15281   */\n      tag_471\n      tag_314\n      jump\t// in\n    tag_471:\n        /* \"#utility.yul\":15246:15283   */\n    tag_470:\n        /* \"#utility.yul\":15096:15290   */\n      swap3\n      swap2\n      pop\n      pop\n      jump\t// out\n        /* \"#utility.yul\":15296:15476   */\n    tag_202:\n        /* \"#utility.yul\":15344:15421   */\n      0x4e487b7100000000000000000000000000000000000000000000000000000000\n        /* \"#utility.yul\":15341:15342   */\n      0x00\n        /* \"#utility.yul\":15334:15422   */\n      mstore\n        /* \"#utility.yul\":15441:15445   */\n      0x32\n        /* \"#utility.yul\":15438:15439   */\n      0x04\n        /* \"#utility.yul\":15431:15446   */\n      mstore\n        /* \"#utility.yul\":15465:15469   */\n      0x24\n        /* \"#utility.yul\":15462:15463   */\n      0x00\n        /* \"#utility.yul\":15455:15470   */\n      revert\n        /* \"#utility.yul\":15482:15662   */\n    tag_315:\n        /* \"#utility.yul\":15622:15654   */\n      0x496e73756666696369656e742062616c616e636520746f2072656465656d0000\n        /* \"#utility.yul\":15618:15619   */\n      0x00\n        /* \"#utility.yul\":15610:15616   */\n      dup3\n        /* \"#utility.yul\":15606:15620   */\n      add\n        /* \"#utility.yul\":15599:15655   */\n      mstore\n        /* \"#utility.yul\":15482:15662   */\n      pop\n      jump\t// out\n        /* \"#utility.yul\":15668:16034   */\n    tag_316:\n        /* \"#utility.yul\":15810:15813   */\n      0x00\n        /* \"#utility.yul\":15831:15898   */\n      tag_475\n        /* \"#utility.yul\":15895:15897   */\n      0x1e\n        /* \"#utility.yul\":15890:15893   */\n      dup4\n        /* \"#utility.yul\":15831:15898   */\n      tag_276\n      jump\t// in\n    tag_475:\n        /* \"#utility.yul\":15824:15898   */\n      swap2\n      pop\n        /* \"#utility.yul\":15907:16000   */\n      tag_476\n        /* \"#utility.yul\":15996:15999   */\n      dup3\n        /* \"#utility.yul\":15907:16000   */\n      tag_315\n      jump\t// in\n    tag_476:\n        /* \"#utility.yul\":16025:16027   */\n      0x20\n        /* \"#utility.yul\":16020:16023   */\n      dup3\n        /* \"#utility.yul\":16016:16028   */\n      add\n        /* \"#utility.yul\":16009:16028   */\n      swap1\n      pop\n        /* \"#utility.yul\":15668:16034   */\n      swap2\n      swap1\n      pop\n      jump\t// out\n        /* \"#utility.yul\":16040:16459   */\n    tag_212:\n        /* \"#utility.yul\":16206:16210   */\n      0x00\n        /* \"#utility.yul\":16244:16246   */\n      0x20\n        /* \"#utility.yul\":16233:16242   */\n      dup3\n        /* \"#utility.yul\":16229:16247   */\n      add\n        /* \"#utility.yul\":16221:16247   */\n      swap1\n      pop\n        /* \"#utility.yul\":16293:16302   */\n      dup2\n        /* \"#utility.yul\":16287:16291   */\n      dup2\n        /* \"#utility.yul\":16283:16303   */\n      sub\n        /* \"#utility.yul\":16279:16280   */\n      0x00\n        /* \"#utility.yul\":16268:16277   */\n      dup4\n        /* \"#utility.yul\":16264:16281   */\n      add\n        /* \"#utility.yul\":16257:16304   */\n      mstore\n        /* \"#utility.yul\":16321:16452   */\n      tag_478\n        /* \"#utility.yul\":16447:16451   */\n      dup2\n        /* \"#utility.yul\":16321:16452   */\n      tag_316\n      jump\t// in\n    tag_478:\n        /* \"#utility.yul\":16313:16452   */\n      swap1\n      pop\n        /* \"#utility.yul\":16040:16459   */\n      swap2\n      swap1\n      pop\n      jump\t// out\n        /* \"#utility.yul\":16465:16645   */\n    tag_317:\n        /* \"#utility.yul\":16513:16590   */\n      0x4e487b7100000000000000000000000000000000000000000000000000000000\n        /* \"#utility.yul\":16510:16511   */\n      0x00\n        /* \"#utility.yul\":16503:16591   */\n      mstore\n        /* \"#utility.yul\":16610:16614   */\n      0x41\n        /* \"#utility.yul\":16607:16608   */\n      0x04\n        /* \"#utility.yul\":16600:16615   */\n      mstore\n        /* \"#utility.yul\":16634:16638   */\n      0x24\n        /* \"#utility.yul\":16631:16632   */\n      0x00\n        /* \"#utility.yul\":16624:16639   */\n      revert\n        /* \"#utility.yul\":16651:16792   */\n    tag_318:\n        /* \"#utility.yul\":16700:16704   */\n      0x00\n        /* \"#utility.yul\":16723:16726   */\n      dup2\n        /* \"#utility.yul\":16715:16726   */\n      swap1\n      pop\n        /* \"#utility.yul\":16746:16749   */\n      dup2\n        /* \"#utility.yul\":16743:16744   */\n      0x00\n        /* \"#utility.yul\":16736:16750   */\n      mstore\n        /* \"#utility.yul\":16780:16784   */\n      0x20\n        /* \"#utility.yul\":16777:16778   */\n      0x00\n        /* \"#utility.yul\":16767:16785   */\n      keccak256\n        /* \"#utility.yul\":16759:16785   */\n      swap1\n      pop\n        /* \"#utility.yul\":16651:16792   */\n      swap2\n      swap1\n      pop\n      jump\t// out\n        /* \"#utility.yul\":16798:16891   */\n    tag_319:\n        /* \"#utility.yul\":16835:16841   */\n      0x00\n        /* \"#utility.yul\":16882:16884   */\n      0x20\n        /* \"#utility.yul\":16877:16879   */\n      0x1f\n        /* \"#utility.yul\":16870:16875   */\n      dup4\n        /* \"#utility.yul\":16866:16880   */\n      add\n        /* \"#utility.yul\":16862:16885   */\n      div\n        /* \"#utility.yul\":16852:16885   */\n      swap1\n      pop\n        /* \"#utility.yul\":16798:16891   */\n      swap2\n      swap1\n      pop\n      jump\t// out\n        /* \"#utility.yul\":16897:17004   */\n    tag_320:\n        /* \"#utility.yul\":16941:16949   */\n      0x00\n        /* \"#utility.yul\":16991:16996   */\n      dup3\n        /* \"#utility.yul\":16985:16989   */\n      dup3\n        /* \"#utility.yul\":16981:16997   */\n      shl\n        /* \"#utility.yul\":16960:16997   */\n      swap1\n      pop\n        /* \"#utility.yul\":16897:17004   */\n      swap3\n      swap2\n      pop\n      pop\n      jump\t// out\n        /* \"#utility.yul\":17010:17403   */\n    tag_321:\n        /* \"#utility.yul\":17079:17085   */\n      0x00\n        /* \"#utility.yul\":17129:17130   */\n      0x08\n        /* \"#utility.yul\":17117:17127   */\n      dup4\n        /* \"#utility.yul\":17113:17131   */\n      mul\n        /* \"#utility.yul\":17152:17249   */\n      tag_484\n        /* \"#utility.yul\":17182:17248   */\n      0xffffffffffffffffffffffffffffffffffffffffffffffffffffffffffffffff\n        /* \"#utility.yul\":17171:17180   */\n      dup3\n        /* \"#utility.yul\":17152:17249   */\n      tag_320\n      jump\t// in\n    tag_484:\n        /* \"#utility.yul\":17270:17309   */\n      tag_485\n        /* \"#utility.yul\":17300:17308   */\n      dup7\n        /* \"#utility.yul\":17289:17298   */\n      dup4\n        /* \"#utility.yul\":17270:17309   */\n      tag_320\n      jump\t// in\n    tag_485:\n        /* \"#utility.yul\":17258:17309   */\n      swap6\n      pop\n        /* \"#utility.yul\":17342:17346   */\n      dup1\n        /* \"#utility.yul\":17338:17347   */\n      not\n        /* \"#utility.yul\":17331:17336   */\n      dup5\n        /* \"#utility.yul\":17327:17348   */\n      and\n        /* \"#utility.yul\":17318:17348   */\n      swap4\n      pop\n        /* \"#utility.yul\":17391:17395   */\n      dup1\n        /* \"#utility.yul\":17381:17389   */\n      dup7\n        /* \"#utility.yul\":17377:17396   */\n      and\n        /* \"#utility.yul\":17370:17375   */\n      dup5\n        /* \"#utility.yul\":17367:17397   */\n      or\n        /* \"#utility.yul\":17357:17397   */\n      swap3\n      pop\n        /* \"#utility.yul\":17086:17403   */\n      pop\n      pop\n        /* \"#utility.yul\":17010:17403   */\n      swap4\n      swap3\n      pop\n      pop\n      pop\n      jump\t// out\n        /* \"#utility.yul\":17409:17469   */\n    tag_322:\n        /* \"#utility.yul\":17437:17440   */\n      0x00\n        /* \"#utility.yul\":17458:17463   */\n      dup2\n        /* \"#utility.yul\":17451:17463   */\n      swap1\n      pop\n        /* \"#utility.yul\":17409:17469   */\n      swap2\n      swap1\n      pop\n      jump\t// out\n        /* \"#utility.yul\":17475:17617   */\n    tag_323:\n        /* \"#utility.yul\":17525:17534   */\n      0x00\n        /* \"#utility.yul\":17558:17611   */\n      tag_488\n        /* \"#utility.yul\":17576:17610   */\n      tag_489\n        /* \"#utility.yul\":17585:17609   */\n      tag_490\n        /* \"#utility.yul\":17603:17608   */\n      dup5\n        /* \"#utility.yul\":17585:17609   */\n      tag_287\n      jump\t// in\n    tag_490:\n        /* \"#utility.yul\":17576:17610   */\n      tag_322\n      jump\t// in\n    tag_489:\n        /* \"#utility.yul\":17558:17611   */\n      tag_287\n      jump\t// in\n    tag_488:\n        /* \"#utility.yul\":17545:17611   */\n      swap1\n      pop\n        /* \"#utility.yul\":17475:17617   */\n      swap2\n      swap1\n      pop\n      jump\t// out\n        /* \"#utility.yul\":17623:17698   */\n    tag_324:\n        /* \"#utility.yul\":17666:17669   */\n      0x00\n        /* \"#utility.yul\":17687:17692   */\n      dup2\n        /* \"#utility.yul\":17680:17692   */\n      swap1\n      pop\n        /* \"#utility.yul\":17623:17698   */\n      swap2\n      swap1\n      pop\n      jump\t// out\n        /* \"#utility.yul\":17704:17973   */\n    tag_325:\n        /* \"#utility.yul\":17814:17853   */\n      tag_493\n        /* \"#utility.yul\":17845:17852   */\n      dup4\n        /* \"#utility.yul\":17814:17853   */\n      tag_323\n      jump\t// in\n    tag_493:\n        /* \"#utility.yul\":17875:17966   */\n      tag_494\n        /* \"#utility.yul\":17924:17965   */\n      tag_495\n        /* \"#utility.yul\":17948:17964   */\n      dup3\n        /* \"#utility.yul\":17924:17965   */\n      tag_324\n      jump\t// in\n    tag_495:\n        /* \"#utility.yul\":17916:17922   */\n      dup5\n        /* \"#utility.yul\":17909:17913   */\n      dup5\n        /* \"#utility.yul\":17903:17914   */\n      sload\n        /* \"#utility.yul\":17875:17966   */\n      tag_321\n      jump\t// in\n    tag_494:\n        /* \"#utility.yul\":17869:17873   */\n      dup3\n        /* \"#utility.yul\":17862:17967   */\n      sstore\n        /* \"#utility.yul\":17780:17973   */\n      pop\n        /* \"#utility.yul\":17704:17973   */\n      pop\n      pop\n      pop\n      jump\t// out\n        /* \"#utility.yul\":17979:18052   */\n    tag_326:\n        /* \"#utility.yul\":18024:18027   */\n      0x00\n        /* \"#utility.yul\":17979:18052   */\n      swap1\n      jump\t// out\n        /* \"#utility.yul\":18058:18247   */\n    tag_327:\n        /* \"#utility.yul\":18135:18167   */\n      tag_498\n      tag_326\n      jump\t// in\n    tag_498:\n        /* \"#utility.yul\":18176:18241   */\n      tag_499\n        /* \"#utility.yul\":18234:18240   */\n      dup2\n        /* \"#utility.yul\":18226:18232   */\n      dup5\n        /* \"#utility.yul\":18220:18224   */\n      dup5\n        /* \"#utility.yul\":18176:18241   */\n      tag_325\n      jump\t// in\n    tag_499:\n        /* \"#utility.yul\":18111:18247   */\n      pop\n        /* \"#utility.yul\":18058:18247   */\n      pop\n      pop\n      jump\t// out\n        /* \"#utility.yul\":18253:18439   */\n    tag_328:\n        /* \"#utility.yul\":18313:18433   */\n    tag_501:\n        /* \"#utility.yul\":18330:18333   */\n      dup2\n        /* \"#utility.yul\":18323:18328   */\n      dup2\n        /* \"#utility.yul\":18320:18334   */\n      lt\n        /* \"#utility.yul\":18313:18433   */\n      iszero\n      tag_503\n      jumpi\n        /* \"#utility.yul\":18384:18423   */\n      tag_504\n        /* \"#utility.yul\":18421:18422   */\n      0x00\n        /* \"#utility.yul\":18414:18419   */\n      dup3\n        /* \"#utility.yul\":18384:18423   */\n      tag_327\n      jump\t// in\n    tag_504:\n        /* \"#utility.yul\":18357:18358   */\n      0x01\n        /* \"#utility.yul\":18350:18355   */\n      dup2\n        /* \"#utility.yul\":18346:18359   */\n      add\n        /* \"#utility.yul\":18337:18359   */\n      swap1\n      pop\n        /* \"#utility.yul\":18313:18433   */\n      jump(tag_501)\n    tag_503:\n        /* \"#utility.yul\":18253:18439   */\n      pop\n      pop\n      jump\t// out\n        /* \"#utility.yul\":18445:18988   */\n    tag_329:\n        /* \"#utility.yul\":18546:18548   */\n      0x1f\n        /* \"#utility.yul\":18541:18544   */\n      dup3\n        /* \"#utility.yul\":18538:18549   */\n      gt\n        /* \"#utility.yul\":18535:18981   */\n      iszero\n      tag_506\n      jumpi\n        /* \"#utility.yul\":18580:18618   */\n      tag_507\n        /* \"#utility.yul\":18612:18617   */\n      dup2\n        /* \"#utility.yul\":18580:18618   */\n      tag_318\n      jump\t// in\n    tag_507:\n        /* \"#utility.yul\":18664:18693   */\n      tag_508\n        /* \"#utility.yul\":18682:18692   */\n      dup5\n        /* \"#utility.yul\":18664:18693   */\n      tag_319\n      jump\t// in\n    tag_508:\n        /* \"#utility.yul\":18654:18662   */\n      dup2\n        /* \"#utility.yul\":18650:18694   */\n      add\n        /* \"#utility.yul\":18847:18849   */\n      0x20\n        /* \"#utility.yul\":18835:18845   */\n      dup6\n        /* \"#utility.yul\":18832:18850   */\n      lt\n        /* \"#utility.yul\":18829:18878   */\n      iszero\n      tag_509\n      jumpi\n        /* \"#utility.yul\":18868:18876   */\n      dup2\n        /* \"#utility.yul\":18853:18876   */\n      swap1\n      pop\n        /* \"#utility.yul\":18829:18878   */\n    tag_509:\n        /* \"#utility.yul\":18891:18971   */\n      tag_510\n        /* \"#utility.yul\":18947:18969   */\n      tag_511\n        /* \"#utility.yul\":18965:18968   */\n      dup6\n        /* \"#utility.yul\":18947:18969   */\n      tag_319\n      jump\t// in\n    tag_511:\n        /* \"#utility.yul\":18937:18945   */\n      dup4\n        /* \"#utility.yul\":18933:18970   */\n      add\n        /* \"#utility.yul\":18920:18931   */\n      dup3\n        /* \"#utility.yul\":18891:18971   */\n      tag_328\n      jump\t// in\n    tag_510:\n        /* \"#utility.yul\":18550:18981   */\n      pop\n      pop\n        /* \"#utility.yul\":18535:18981   */\n    tag_506:\n        /* \"#utility.yul\":18445:18988   */\n      pop\n      pop\n      pop\n      jump\t// out\n        /* \"#utility.yul\":18994:19111   */\n    tag_330:\n        /* \"#utility.yul\":19048:19056   */\n      0x00\n        /* \"#utility.yul\":19098:19103   */\n      dup3\n        /* \"#utility.yul\":19092:19096   */\n      dup3\n        /* \"#utility.yul\":19088:19104   */\n      shr\n        /* \"#utility.yul\":19067:19104   */\n      swap1\n      pop\n        /* \"#utility.yul\":18994:19111   */\n      swap3\n      swap2\n      pop\n      pop\n      jump\t// out\n        /* \"#utility.yul\":19117:19286   */\n    tag_331:\n        /* \"#utility.yul\":19161:19167   */\n      0x00\n        /* \"#utility.yul\":19194:19245   */\n      tag_514\n        /* \"#utility.yul\":19242:19243   */\n      0x00\n        /* \"#utility.yul\":19238:19244   */\n      not\n        /* \"#utility.yul\":19230:19235   */\n      dup5\n        /* \"#utility.yul\":19227:19228   */\n      0x08\n        /* \"#utility.yul\":19223:19236   */\n      mul\n        /* \"#utility.yul\":19194:19245   */\n      tag_330\n      jump\t// in\n    tag_514:\n        /* \"#utility.yul\":19190:19246   */\n      not\n        /* \"#utility.yul\":19275:19279   */\n      dup1\n        /* \"#utility.yul\":19269:19273   */\n      dup4\n        /* \"#utility.yul\":19265:19280   */\n      and\n        /* \"#utility.yul\":19255:19280   */\n      swap2\n      pop\n        /* \"#utility.yul\":19168:19286   */\n      pop\n        /* \"#utility.yul\":19117:19286   */\n      swap3\n      swap2\n      pop\n      pop\n      jump\t// out\n        /* \"#utility.yul\":19291:19586   */\n    tag_332:\n        /* \"#utility.yul\":19367:19371   */\n      0x00\n        /* \"#utility.yul\":19513:19542   */\n      tag_516\n        /* \"#utility.yul\":19538:19541   */\n      dup4\n        /* \"#utility.yul\":19532:19536   */\n      dup4\n        /* \"#utility.yul\":19513:19542   */\n      tag_331\n      jump\t// in\n    tag_516:\n        /* \"#utility.yul\":19505:19542   */\n      swap2\n      pop\n        /* \"#utility.yul\":19575:19578   */\n      dup3\n        /* \"#utility.yul\":19572:19573   */\n      0x02\n        /* \"#utility.yul\":19568:19579   */\n      mul\n        /* \"#utility.yul\":19562:19566   */\n      dup3\n        /* \"#utility.yul\":19559:19580   */\n      or\n        /* \"#utility.yul\":19551:19580   */\n      swap1\n      pop\n        /* \"#utility.yul\":19291:19586   */\n      swap3\n      swap2\n      pop\n      pop\n      jump\t// out\n        /* \"#utility.yul\":19591:20986   */\n    tag_216:\n        /* \"#utility.yul\":19708:19745   */\n      tag_518\n        /* \"#utility.yul\":19741:19744   */\n      dup3\n        /* \"#utility.yul\":19708:19745   */\n      tag_275\n      jump\t// in\n    tag_518:\n        /* \"#utility.yul\":19810:19828   */\n      0xffffffffffffffff\n        /* \"#utility.yul\":19802:19808   */\n      dup2\n        /* \"#utility.yul\":19799:19829   */\n      gt\n        /* \"#utility.yul\":19796:19852   */\n      iszero\n      tag_519\n      jumpi\n        /* \"#utility.yul\":19832:19850   */\n      tag_520\n      tag_317\n      jump\t// in\n    tag_520:\n        /* \"#utility.yul\":19796:19852   */\n    tag_519:\n        /* \"#utility.yul\":19876:19914   */\n      tag_521\n        /* \"#utility.yul\":19908:19912   */\n      dup3\n        /* \"#utility.yul\":19902:19913   */\n      sload\n        /* \"#utility.yul\":19876:19914   */\n      tag_105\n      jump\t// in\n    tag_521:\n        /* \"#utility.yul\":19961:20028   */\n      tag_522\n        /* \"#utility.yul\":20021:20027   */\n      dup3\n        /* \"#utility.yul\":20013:20019   */\n      dup3\n        /* \"#utility.yul\":20007:20011   */\n      dup6\n        /* \"#utility.yul\":19961:20028   */\n      tag_329\n      jump\t// in\n    tag_522:\n        /* \"#utility.yul\":20055:20056   */\n      0x00\n        /* \"#utility.yul\":20079:20083   */\n      0x20\n        /* \"#utility.yul\":20066:20083   */\n      swap1\n      pop\n        /* \"#utility.yul\":20111:20113   */\n      0x1f\n        /* \"#utility.yul\":20103:20109   */\n      dup4\n        /* \"#utility.yul\":20100:20114   */\n      gt\n        /* \"#utility.yul\":20128:20129   */\n      0x01\n        /* \"#utility.yul\":20123:20741   */\n      dup2\n      eq\n      tag_524\n      jumpi\n        /* \"#utility.yul\":20785:20786   */\n      0x00\n        /* \"#utility.yul\":20802:20808   */\n      dup5\n        /* \"#utility.yul\":20799:20876   */\n      iszero\n      tag_525\n      jumpi\n        /* \"#utility.yul\":20851:20860   */\n      dup3\n        /* \"#utility.yul\":20846:20849   */\n      dup8\n        /* \"#utility.yul\":20842:20861   */\n      add\n        /* \"#utility.yul\":20836:20862   */\n      mload\n        /* \"#utility.yul\":20827:20862   */\n      swap1\n      pop\n        /* \"#utility.yul\":20799:20876   */\n    tag_525:\n        /* \"#utility.yul\":20902:20969   */\n      tag_526\n        /* \"#utility.yul\":20962:20968   */\n      dup6\n        /* \"#utility.yul\":20955:20960   */\n      dup3\n        /* \"#utility.yul\":20902:20969   */\n      tag_332\n      jump\t// in\n    tag_526:\n        /* \"#utility.yul\":20896:20900   */\n      dup7\n        /* \"#utility.yul\":20889:20970   */\n      sstore\n        /* \"#utility.yul\":20758:20980   */\n      pop\n        /* \"#utility.yul\":20093:20980   */\n      jump(tag_523)\n        /* \"#utility.yul\":20123:20741   */\n    tag_524:\n        /* \"#utility.yul\":20175:20179   */\n      0x1f\n        /* \"#utility.yul\":20171:20180   */\n      not\n        /* \"#utility.yul\":20163:20169   */\n      dup5\n        /* \"#utility.yul\":20159:20181   */\n      and\n        /* \"#utility.yul\":20209:20246   */\n      tag_527\n        /* \"#utility.yul\":20241:20245   */\n      dup7\n        /* \"#utility.yul\":20209:20246   */\n      tag_318\n      jump\t// in\n    tag_527:\n        /* \"#utility.yul\":20268:20269   */\n      0x00\n        /* \"#utility.yul\":20282:20490   */\n    tag_528:\n        /* \"#utility.yul\":20296:20303   */\n      dup3\n        /* \"#utility.yul\":20293:20294   */\n      dup2\n        /* \"#utility.yul\":20290:20304   */\n      lt\n        /* \"#utility.yul\":20282:20490   */\n      iszero\n      tag_530\n      jumpi\n        /* \"#utility.yul\":20375:20384   */\n      dup5\n        /* \"#utility.yul\":20370:20373   */\n      dup10\n        /* \"#utility.yul\":20366:20385   */\n      add\n        /* \"#utility.yul\":20360:20386   */\n      mload\n        /* \"#utility.yul\":20352:20358   */\n      dup3\n        /* \"#utility.yul\":20345:20387   */\n      sstore\n        /* \"#utility.yul\":20426:20427   */\n      0x01\n        /* \"#utility.yul\":20418:20424   */\n      dup3\n        /* \"#utility.yul\":20414:20428   */\n      add\n        /* \"#utility.yul\":20404:20428   */\n      swap2\n      pop\n        /* \"#utility.yul\":20473:20475   */\n      0x20\n        /* \"#utility.yul\":20462:20471   */\n      dup6\n        /* \"#utility.yul\":20458:20476   */\n      add\n        /* \"#utility.yul\":20445:20476   */\n      swap5\n      pop\n        /* \"#utility.yul\":20319:20323   */\n      0x20\n        /* \"#utility.yul\":20316:20317   */\n      dup2\n        /* \"#utility.yul\":20312:20324   */\n      add\n        /* \"#utility.yul\":20307:20324   */\n      swap1\n      pop\n        /* \"#utility.yul\":20282:20490   */\n      jump(tag_528)\n    tag_530:\n        /* \"#utility.yul\":20518:20524   */\n      dup7\n        /* \"#utility.yul\":20509:20516   */\n      dup4\n        /* \"#utility.yul\":20506:20525   */\n      lt\n        /* \"#utility.yul\":20503:20682   */\n      iszero\n      tag_531\n      jumpi\n        /* \"#utility.yul\":20576:20585   */\n      dup5\n        /* \"#utility.yul\":20571:20574   */\n      dup10\n        /* \"#utility.yul\":20567:20586   */\n      add\n        /* \"#utility.yul\":20561:20587   */\n      mload\n        /* \"#utility.yul\":20619:20667   */\n      tag_532\n        /* \"#utility.yul\":20661:20665   */\n      0x1f\n        /* \"#utility.yul\":20653:20659   */\n      dup10\n        /* \"#utility.yul\":20649:20666   */\n      and\n        /* \"#utility.yul\":20638:20647   */\n      dup3\n        /* \"#utility.yul\":20619:20667   */\n      tag_331\n      jump\t// in\n    tag_532:\n        /* \"#utility.yul\":20611:20617   */\n      dup4\n        /* \"#utility.yul\":20604:20668   */\n      sstore\n        /* \"#utility.yul\":20526:20682   */\n      pop\n        /* \"#utility.yul\":20503:20682   */\n    tag_531:\n        /* \"#utility.yul\":20728:20729   */\n      0x01\n        /* \"#utility.yul\":20724:20725   */\n      0x02\n        /* \"#utility.yul\":20716:20722   */\n      dup9\n        /* \"#utility.yul\":20712:20726   */\n      mul\n        /* \"#utility.yul\":20708:20730   */\n      add\n        /* \"#utility.yul\":20702:20706   */\n      dup9\n        /* \"#utility.yul\":20695:20731   */\n      sstore\n        /* \"#utility.yul\":20130:20741   */\n      pop\n      pop\n      pop\n        /* \"#utility.yul\":20093:20980   */\n    tag_523:\n      pop\n        /* \"#utility.yul\":19683:20986   */\n      pop\n      pop\n      pop\n        /* \"#utility.yul\":19591:20986   */\n      pop\n      pop\n      jump\t// out\n        /* \"#utility.yul\":20992:21434   */\n    tag_234:\n        /* \"#utility.yul\":21141:21145   */\n      0x00\n        /* \"#utility.yul\":21179:21181   */\n      0x60\n        /* \"#utility.yul\":21168:21177   */\n      dup3\n        /* \"#utility.yul\":21164:21182   */\n      add\n        /* \"#utility.yul\":21156:21182   */\n      swap1\n      pop\n        /* \"#utility.yul\":21192:21263   */\n      tag_534\n        /* \"#utility.yul\":21260:21261   */\n      0x00\n        /* \"#utility.yul\":21249:21258   */\n      dup4\n        /* \"#utility.yul\":21245:21262   */\n      add\n        /* \"#utility.yul\":21236:21242   */\n      dup7\n        /* \"#utility.yul\":21192:21263   */\n      tag_305\n      jump\t// in\n    tag_534:\n        /* \"#utility.yul\":21273:21345   */\n      tag_535\n        /* \"#utility.yul\":21341:21343   */\n      0x20\n        /* \"#utility.yul\":21330:21339   */\n      dup4\n        /* \"#utility.yul\":21326:21344   */\n      add\n        /* \"#utility.yul\":21317:21323   */\n      dup6\n        /* \"#utility.yul\":21273:21345   */\n      tag_292\n      jump\t// in\n    tag_535:\n        /* \"#utility.yul\":21355:21427   */\n      tag_536\n        /* \"#utility.yul\":21423:21425   */\n      0x40\n        /* \"#utility.yul\":21412:21421   */\n      dup4\n        /* \"#utility.yul\":21408:21426   */\n      add\n        /* \"#utility.yul\":21399:21405   */\n      dup5\n        /* \"#utility.yul\":21355:21427   */\n      tag_292\n      jump\t// in\n    tag_536:\n        /* \"#utility.yul\":20992:21434   */\n      swap5\n      swap4\n      pop\n      pop\n      pop\n      pop\n      jump\t// out\n        /* \"#utility.yul\":21440:21631   */\n    tag_268:\n        /* \"#utility.yul\":21480:21483   */\n      0x00\n        /* \"#utility.yul\":21499:21519   */\n      tag_538\n        /* \"#utility.yul\":21517:21518   */\n      dup3\n        /* \"#utility.yul\":21499:21519   */\n      tag_287\n      jump\t// in\n    tag_538:\n        /* \"#utility.yul\":21494:21519   */\n      swap2\n      pop\n        /* \"#utility.yul\":21533:21553   */\n      tag_539\n        /* \"#utility.yul\":21551:21552   */\n      dup4\n        /* \"#utility.yul\":21533:21553   */\n      tag_287\n      jump\t// in\n    tag_539:\n        /* \"#utility.yul\":21528:21553   */\n      swap3\n      pop\n        /* \"#utility.yul\":21576:21577   */\n      dup3\n        /* \"#utility.yul\":21573:21574   */\n      dup3\n        /* \"#utility.yul\":21569:21578   */\n      add\n        /* \"#utility.yul\":21562:21578   */\n      swap1\n      pop\n        /* \"#utility.yul\":21597:21600   */\n      dup1\n        /* \"#utility.yul\":21594:21595   */\n      dup3\n        /* \"#utility.yul\":21591:21601   */\n      gt\n        /* \"#utility.yul\":21588:21624   */\n      iszero\n      tag_540\n      jumpi\n        /* \"#utility.yul\":21604:21622   */\n      tag_541\n      tag_314\n      jump\t// in\n    tag_541:\n        /* \"#utility.yul\":21588:21624   */\n    tag_540:\n        /* \"#utility.yul\":21440:21631   */\n      swap3\n      swap2\n      pop\n      pop\n      jump\t// out\n\n    auxdata: 0xa264697066735822122012dd45b060d87a7c8b6de272b2f0623552785e605c0a0f439baaca9db0ad5ccf64736f6c634300081a0033\n}\n",
				"bytecode": {
					"linkReferences": {},
					"object": "608060405234801561000f575f80fd5b50336040518060400160405280600581526020017f446567656e0000000000000000000000000000000000000000000000000000008152506040518060400160405280600381526020017f44474e0000000000000000000000000000000000000000000000000000000000815250816003908161008c919061060d565b50806004908161009c919061060d565b5050505f73ffffffffffffffffffffffffffffffffffffffff168173ffffffffffffffffffffffffffffffffffffffff160361010f575f6040517f1e4fbdf7000000000000000000000000000000000000000000000000000000008152600401610106919061071b565b60405180910390fd5b61011e8161031060201b60201c565b5060066040518060600160405280600181526020016040518060400160405280600e81526020017f456e646c657373204261746c6c6500000000000000000000000000000000000081525081526020016064815250908060018154018082558091505060019003905f5260205f2090600302015f909190919091505f820151815f015560208201518160010190816101b6919061060d565b5060408201518160020155505060066040518060600160405280600281526020016040518060400160405280601281526020017f44656d6f6e2048756e7465722053776f7264000000000000000000000000000081525081526020016096815250908060018154018082558091505060019003905f5260205f2090600302015f909190919091505f820151815f0155602082015181600101908161025a919061060d565b5060408201518160020155505060066040518060600160405280600381526020016040518060400160405280600a81526020017f57696e6474616c6b657200000000000000000000000000000000000000000000815250815260200160fa815250908060018154018082558091505060019003905f5260205f2090600302015f909190919091505f820151815f015560208201518160010190816102fe919061060d565b50604082015181600201555050610734565b5f60055f9054906101000a900473ffffffffffffffffffffffffffffffffffffffff1690508160055f6101000a81548173ffffffffffffffffffffffffffffffffffffffff021916908373ffffffffffffffffffffffffffffffffffffffff1602179055508173ffffffffffffffffffffffffffffffffffffffff168173ffffffffffffffffffffffffffffffffffffffff167f8be0079c531659141344cd1fd0a4f28419497f9722a3daafe3b4186f6b6457e060405160405180910390a35050565b5f81519050919050565b7f4e487b71000000000000000000000000000000000000000000000000000000005f52604160045260245ffd5b7f4e487b71000000000000000000000000000000000000000000000000000000005f52602260045260245ffd5b5f600282049050600182168061044e57607f821691505b6020821081036104615761046061040a565b5b50919050565b5f819050815f5260205f209050919050565b5f6020601f8301049050919050565b5f82821b905092915050565b5f600883026104c37fffffffffffffffffffffffffffffffffffffffffffffffffffffffffffffffff82610488565b6104cd8683610488565b95508019841693508086168417925050509392505050565b5f819050919050565b5f819050919050565b5f61051161050c610507846104e5565b6104ee565b6104e5565b9050919050565b5f819050919050565b61052a836104f7565b61053e61053682610518565b848454610494565b825550505050565b5f90565b610552610546565b61055d818484610521565b505050565b5b81811015610580576105755f8261054a565b600181019050610563565b5050565b601f8211156105c55761059681610467565b61059f84610479565b810160208510156105ae578190505b6105c26105ba85610479565b830182610562565b50505b505050565b5f82821c905092915050565b5f6105e55f19846008026105ca565b1980831691505092915050565b5f6105fd83836105d6565b9150826002028217905092915050565b610616826103d3565b67ffffffffffffffff81111561062f5761062e6103dd565b5b6106398254610437565b610644828285610584565b5f60209050601f831160018114610675575f8415610663578287015190505b61066d85826105f2565b8655506106d4565b601f19841661068386610467565b5f5b828110156106aa57848901518255600182019150602085019450602081019050610685565b868310156106c757848901516106c3601f8916826105d6565b8355505b6001600288020188555050505b505050505050565b5f73ffffffffffffffffffffffffffffffffffffffff82169050919050565b5f610705826106dc565b9050919050565b610715816106fb565b82525050565b5f60208201905061072e5f83018461070c565b92915050565b61209e806107415f395ff3fe608060405234801561000f575f80fd5b506004361061012a575f3560e01c8063715018a6116100ab578063a9059cbb1161006f578063a9059cbb14610322578063bec3fa1714610352578063db006a751461036e578063dd62ed3e1461038a578063f2fde38b146103ba5761012a565b8063715018a6146102a05780637a97840d146102aa5780638cffa21c146102c85780638da5cb5b146102e657806395d89b41146103045761012a565b8063313ce567116100f2578063313ce567146101e857806340c10f1914610206578063430074c2146102225780636d1b229d1461025457806370a08231146102705761012a565b806306fdde031461012e578063095ea7b31461014c57806312065fe01461017c57806318160ddd1461019a57806323b872dd146101b8575b5f80fd5b6101366103d6565b604051610143919061160d565b60405180910390f35b610166600480360381019061016191906116be565b610466565b6040516101739190611716565b60405180910390f35b610184610488565b604051610191919061173e565b60405180910390f35b6101a2610506565b6040516101af919061173e565b60405180910390f35b6101d260048036038101906101cd9190611757565b61050f565b6040516101df9190611716565b60405180910390f35b6101f061053d565b6040516101fd91906117c2565b60405180910390f35b610220600480360381019061021b91906116be565b610541565b005b61023c600480360381019061023791906117db565b610557565b60405161024b93929190611806565b60405180910390f35b61026e600480360381019061026991906117db565b610612565b005b61028a60048036038101906102859190611842565b610678565b604051610297919061173e565b60405180910390f35b6102a86106bd565b005b6102b26106d0565b6040516102bf91906119cc565b60405180910390f35b6102d06107cf565b6040516102dd91906119cc565b60405180910390f35b6102ee610909565b6040516102fb91906119fb565b60405180910390f35b61030c610931565b604051610319919061160d565b60405180910390f35b61033c600480360381019061033791906116be565b6109c1565b6040516103499190611716565b60405180910390f35b61036c600480360381019061036791906116be565b6109e3565b005b610388600480360381019061038391906117db565b610a50565b005b6103a4600480360381019061039f9190611a14565b610ccc565b6040516103b1919061173e565b60405180910390f35b6103d460048036038101906103cf9190611842565b610d4e565b005b6060600380546103e590611a7f565b80601f016020809104026020016040519081016040528092919081815260200182805461041190611a7f565b801561045c5780601f106104335761010080835404028352916020019161045c565b820191905f5260205f20905b81548152906001019060200180831161043f57829003601f168201915b5050505050905090565b5f80610470610dd2565b905061047d818585610dd9565b600191505092915050565b5f3073ffffffffffffffffffffffffffffffffffffffff166370a08231336040518263ffffffff1660e01b81526004016104c291906119fb565b602060405180830381865afa1580156104dd573d5f803e3d5ffd5b505050506040513d601f19601f820116820180604052508101906105019190611ac3565b905090565b5f600254905090565b5f80610519610dd2565b9050610526858285610deb565b610531858585610e7d565b60019150509392505050565b5f90565b610549610f6d565b6105538282610ff4565b5050565b60068181548110610566575f80fd5b905f5260205f2090600302015f91509050805f01549080600101805461058b90611a7f565b80601f01602080910402602001604051908101604052809291908181526020018280546105b790611a7f565b80156106025780601f106105d957610100808354040283529160200191610602565b820191905f5260205f20905b8154815290600101906020018083116105e557829003601f168201915b5050505050908060020154905083565b8061062361061e610dd2565b610678565b1015610664576040517f08c379a000000000000000000000000000000000000000000000000000000000815260040161065b90611b5e565b60405180910390fd5b61067561066f610dd2565b82611073565b50565b5f805f8373ffffffffffffffffffffffffffffffffffffffff1673ffffffffffffffffffffffffffffffffffffffff1681526020019081526020015f20549050919050565b6106c5610f6d565b6106ce5f6110f2565b565b60606006805480602002602001604051908101604052809291908181526020015f905b828210156107c6578382905f5260205f2090600302016040518060600160405290815f820154815260200160018201805461072d90611a7f565b80601f016020809104026020016040519081016040528092919081815260200182805461075990611a7f565b80156107a45780601f1061077b576101008083540402835291602001916107a4565b820191905f5260205f20905b81548152906001019060200180831161078757829003601f168201915b50505050508152602001600282015481525050815260200190600101906106f3565b50505050905090565b606060075f3373ffffffffffffffffffffffffffffffffffffffff1673ffffffffffffffffffffffffffffffffffffffff1681526020019081526020015f20805480602002602001604051908101604052809291908181526020015f905b82821015610900578382905f5260205f2090600302016040518060600160405290815f820154815260200160018201805461086790611a7f565b80601f016020809104026020016040519081016040528092919081815260200182805461089390611a7f565b80156108de5780601f106108b5576101008083540402835291602001916108de565b820191905f5260205f20905b8154815290600101906020018083116108c157829003601f168201915b505050505081526020016002820154815250508152602001906001019061082d565b50505050905090565b5f60055f9054906101000a900473ffffffffffffffffffffffffffffffffffffffff16905090565b60606004805461094090611a7f565b80601f016020809104026020016040519081016040528092919081815260200182805461096c90611a7f565b80156109b75780601f1061098e576101008083540402835291602001916109b7565b820191905f5260205f20905b81548152906001019060200180831161099a57829003601f168201915b5050505050905090565b5f806109cb610dd2565b90506109d8818585610e7d565b600191505092915050565b806109f46109ef610dd2565b610678565b1015610a35576040517f08c379a0000000000000000000000000000000000000000000000000000000008152600401610a2c90611bec565b60405180910390fd5b610a3f3382610466565b50610a4b33838361050f565b505050565b5f81118015610a6457506006805490508111155b610aa3576040517f08c379a0000000000000000000000000000000000000000000000000000000008152600401610a9a90611c54565b60405180910390fd5b5f6006600183610ab39190611c9f565b81548110610ac457610ac3611cd2565b5b905f5260205f2090600302016040518060600160405290815f8201548152602001600182018054610af490611a7f565b80601f0160208091040260200160405190810160405280929190818152602001828054610b2090611a7f565b8015610b6b5780601f10610b4257610100808354040283529160200191610b6b565b820191905f5260205f20905b815481529060010190602001808311610b4e57829003601f168201915b5050505050815260200160028201548152505090508060400151610b8e33610678565b1015610bcf576040517f08c379a0000000000000000000000000000000000000000000000000000000008152600401610bc690611d49565b60405180910390fd5b610bdd338260400151611073565b60075f3373ffffffffffffffffffffffffffffffffffffffff1673ffffffffffffffffffffffffffffffffffffffff1681526020019081526020015f2081908060018154018082558091505060019003905f5260205f2090600302015f909190919091505f820151815f01556020820151816001019081610c5e9190611f31565b506040820151816002015550503373ffffffffffffffffffffffffffffffffffffffff167f2748aed474e8b2615b65f003a5fac4b64d8c9eb9c911daf175b6103f3802cd4c825f015183602001518460400151604051610cc093929190611806565b60405180910390a25050565b5f60015f8473ffffffffffffffffffffffffffffffffffffffff1673ffffffffffffffffffffffffffffffffffffffff1681526020019081526020015f205f8373ffffffffffffffffffffffffffffffffffffffff1673ffffffffffffffffffffffffffffffffffffffff1681526020019081526020015f2054905092915050565b610d56610f6d565b5f73ffffffffffffffffffffffffffffffffffffffff168173ffffffffffffffffffffffffffffffffffffffff1603610dc6575f6040517f1e4fbdf7000000000000000000000000000000000000000000000000000000008152600401610dbd91906119fb565b60405180910390fd5b610dcf816110f2565b50565b5f33905090565b610de683838360016111b5565b505050565b5f610df68484610ccc565b90507fffffffffffffffffffffffffffffffffffffffffffffffffffffffffffffffff8114610e775781811015610e68578281836040517ffb8f41b2000000000000000000000000000000000000000000000000000000008152600401610e5f93929190612000565b60405180910390fd5b610e7684848484035f6111b5565b5b50505050565b5f73ffffffffffffffffffffffffffffffffffffffff168373ffffffffffffffffffffffffffffffffffffffff1603610eed575f6040517f96c6fd1e000000000000000000000000000000000000000000000000000000008152600401610ee491906119fb565b60405180910390fd5b5f73ffffffffffffffffffffffffffffffffffffffff168273ffffffffffffffffffffffffffffffffffffffff1603610f5d575f6040517fec442f05000000000000000000000000000000000000000000000000000000008152600401610f5491906119fb565b60405180910390fd5b610f68838383611384565b505050565b610f75610dd2565b73ffffffffffffffffffffffffffffffffffffffff16610f93610909565b73ffffffffffffffffffffffffffffffffffffffff1614610ff257610fb6610dd2565b6040517f118cdaa7000000000000000000000000000000000000000000000000000000008152600401610fe991906119fb565b60405180910390fd5b565b5f73ffffffffffffffffffffffffffffffffffffffff168273ffffffffffffffffffffffffffffffffffffffff1603611064575f6040517fec442f0500000000000000000000000000000000000000000000000000000000815260040161105b91906119fb565b60405180910390fd5b61106f5f8383611384565b5050565b5f73ffffffffffffffffffffffffffffffffffffffff168273ffffffffffffffffffffffffffffffffffffffff16036110e3575f6040517f96c6fd1e0000000000000000000000000000000000000000000000000000000081526004016110da91906119fb565b60405180910390fd5b6110ee825f83611384565b5050565b5f60055f9054906101000a900473ffffffffffffffffffffffffffffffffffffffff1690508160055f6101000a81548173ffffffffffffffffffffffffffffffffffffffff021916908373ffffffffffffffffffffffffffffffffffffffff1602179055508173ffffffffffffffffffffffffffffffffffffffff168173ffffffffffffffffffffffffffffffffffffffff167f8be0079c531659141344cd1fd0a4f28419497f9722a3daafe3b4186f6b6457e060405160405180910390a35050565b5f73ffffffffffffffffffffffffffffffffffffffff168473ffffffffffffffffffffffffffffffffffffffff1603611225575f6040517fe602df0500000000000000000000000000000000000000000000000000000000815260040161121c91906119fb565b60405180910390fd5b5f73ffffffffffffffffffffffffffffffffffffffff168373ffffffffffffffffffffffffffffffffffffffff1603611295575f6040517f94280d6200000000000000000000000000000000000000000000000000000000815260040161128c91906119fb565b60405180910390fd5b8160015f8673ffffffffffffffffffffffffffffffffffffffff1673ffffffffffffffffffffffffffffffffffffffff1681526020019081526020015f205f8573ffffffffffffffffffffffffffffffffffffffff1673ffffffffffffffffffffffffffffffffffffffff1681526020019081526020015f2081905550801561137e578273ffffffffffffffffffffffffffffffffffffffff168473ffffffffffffffffffffffffffffffffffffffff167f8c5be1e5ebec7d5bd14f71427d1e84f3dd0314c0f7b2291e5b200ac8c7c3b92584604051611375919061173e565b60405180910390a35b50505050565b5f73ffffffffffffffffffffffffffffffffffffffff168373ffffffffffffffffffffffffffffffffffffffff16036113d4578060025f8282546113c89190612035565b925050819055506114a2565b5f805f8573ffffffffffffffffffffffffffffffffffffffff1673ffffffffffffffffffffffffffffffffffffffff1681526020019081526020015f205490508181101561145d578381836040517fe450d38c00000000000000000000000000000000000000000000000000000000815260040161145493929190612000565b60405180910390fd5b8181035f808673ffffffffffffffffffffffffffffffffffffffff1673ffffffffffffffffffffffffffffffffffffffff1681526020019081526020015f2081905550505b5f73ffffffffffffffffffffffffffffffffffffffff168273ffffffffffffffffffffffffffffffffffffffff16036114e9578060025f8282540392505081905550611533565b805f808473ffffffffffffffffffffffffffffffffffffffff1673ffffffffffffffffffffffffffffffffffffffff1681526020019081526020015f205f82825401925050819055505b8173ffffffffffffffffffffffffffffffffffffffff168373ffffffffffffffffffffffffffffffffffffffff167fddf252ad1be2c89b69c2b068fc378daa952ba7f163c4a11628f55a4df523b3ef83604051611590919061173e565b60405180910390a3505050565b5f81519050919050565b5f82825260208201905092915050565b8281835e5f83830152505050565b5f601f19601f8301169050919050565b5f6115df8261159d565b6115e981856115a7565b93506115f98185602086016115b7565b611602816115c5565b840191505092915050565b5f6020820190508181035f83015261162581846115d5565b905092915050565b5f80fd5b5f73ffffffffffffffffffffffffffffffffffffffff82169050919050565b5f61165a82611631565b9050919050565b61166a81611650565b8114611674575f80fd5b50565b5f8135905061168581611661565b92915050565b5f819050919050565b61169d8161168b565b81146116a7575f80fd5b50565b5f813590506116b881611694565b92915050565b5f80604083850312156116d4576116d361162d565b5b5f6116e185828601611677565b92505060206116f2858286016116aa565b9150509250929050565b5f8115159050919050565b611710816116fc565b82525050565b5f6020820190506117295f830184611707565b92915050565b6117388161168b565b82525050565b5f6020820190506117515f83018461172f565b92915050565b5f805f6060848603121561176e5761176d61162d565b5b5f61177b86828701611677565b935050602061178c86828701611677565b925050604061179d868287016116aa565b9150509250925092565b5f60ff82169050919050565b6117bc816117a7565b82525050565b5f6020820190506117d55f8301846117b3565b92915050565b5f602082840312156117f0576117ef61162d565b5b5f6117fd848285016116aa565b91505092915050565b5f6060820190506118195f83018661172f565b818103602083015261182b81856115d5565b905061183a604083018461172f565b949350505050565b5f602082840312156118575761185661162d565b5b5f61186484828501611677565b91505092915050565b5f81519050919050565b5f82825260208201905092915050565b5f819050602082019050919050565b61189f8161168b565b82525050565b5f82825260208201905092915050565b5f6118bf8261159d565b6118c981856118a5565b93506118d98185602086016115b7565b6118e2816115c5565b840191505092915050565b5f606083015f8301516119025f860182611896565b506020830151848203602086015261191a82826118b5565b915050604083015161192f6040860182611896565b508091505092915050565b5f61194583836118ed565b905092915050565b5f602082019050919050565b5f6119638261186d565b61196d8185611877565b93508360208202850161197f85611887565b805f5b858110156119ba578484038952815161199b858261193a565b94506119a68361194d565b925060208a01995050600181019050611982565b50829750879550505050505092915050565b5f6020820190508181035f8301526119e48184611959565b905092915050565b6119f581611650565b82525050565b5f602082019050611a0e5f8301846119ec565b92915050565b5f8060408385031215611a2a57611a2961162d565b5b5f611a3785828601611677565b9250506020611a4885828601611677565b9150509250929050565b7f4e487b71000000000000000000000000000000000000000000000000000000005f52602260045260245ffd5b5f6002820490506001821680611a9657607f821691505b602082108103611aa957611aa8611a52565b5b50919050565b5f81519050611abd81611694565b92915050565b5f60208284031215611ad857611ad761162d565b5b5f611ae584828501611aaf565b91505092915050565b7f596f7520646f206e6f74206861766520656e6f75676820446567656e20546f6b5f8201527f656e730000000000000000000000000000000000000000000000000000000000602082015250565b5f611b486023836115a7565b9150611b5382611aee565b604082019050919050565b5f6020820190508181035f830152611b7581611b3c565b9050919050565b7f5472616e73666572206661696c65643a20696e73756666696369656e742062615f8201527f6c616e6365000000000000000000000000000000000000000000000000000000602082015250565b5f611bd66025836115a7565b9150611be182611b7c565b604082019050919050565b5f6020820190508181035f830152611c0381611bca565b9050919050565b7f496e76616c6964206974656d20494400000000000000000000000000000000005f82015250565b5f611c3e600f836115a7565b9150611c4982611c0a565b602082019050919050565b5f6020820190508181035f830152611c6b81611c32565b9050919050565b7f4e487b71000000000000000000000000000000000000000000000000000000005f52601160045260245ffd5b5f611ca98261168b565b9150611cb48361168b565b9250828203905081811115611ccc57611ccb611c72565b5b92915050565b7f4e487b71000000000000000000000000000000000000000000000000000000005f52603260045260245ffd5b7f496e73756666696369656e742062616c616e636520746f2072656465656d00005f82015250565b5f611d33601e836115a7565b9150611d3e82611cff565b602082019050919050565b5f6020820190508181035f830152611d6081611d27565b9050919050565b7f4e487b71000000000000000000000000000000000000000000000000000000005f52604160045260245ffd5b5f819050815f5260205f209050919050565b5f6020601f8301049050919050565b5f82821b905092915050565b5f60088302611df07fffffffffffffffffffffffffffffffffffffffffffffffffffffffffffffffff82611db5565b611dfa8683611db5565b95508019841693508086168417925050509392505050565b5f819050919050565b5f611e35611e30611e2b8461168b565b611e12565b61168b565b9050919050565b5f819050919050565b611e4e83611e1b565b611e62611e5a82611e3c565b848454611dc1565b825550505050565b5f90565b611e76611e6a565b611e81818484611e45565b505050565b5b81811015611ea457611e995f82611e6e565b600181019050611e87565b5050565b601f821115611ee957611eba81611d94565b611ec384611da6565b81016020851015611ed2578190505b611ee6611ede85611da6565b830182611e86565b50505b505050565b5f82821c905092915050565b5f611f095f1984600802611eee565b1980831691505092915050565b5f611f218383611efa565b9150826002028217905092915050565b611f3a8261159d565b67ffffffffffffffff811115611f5357611f52611d67565b5b611f5d8254611a7f565b611f68828285611ea8565b5f60209050601f831160018114611f99575f8415611f87578287015190505b611f918582611f16565b865550611ff8565b601f198416611fa786611d94565b5f5b82811015611fce57848901518255600182019150602085019450602081019050611fa9565b86831015611feb5784890151611fe7601f891682611efa565b8355505b6001600288020188555050505b505050505050565b5f6060820190506120135f8301866119ec565b612020602083018561172f565b61202d604083018461172f565b949350505050565b5f61203f8261168b565b915061204a8361168b565b925082820190508082111561206257612061611c72565b5b9291505056fea264697066735822122012dd45b060d87a7c8b6de272b2f0623552785e605c0a0f439baaca9db0ad5ccf64736f6c634300081a0033",
					"opcodes": "PUSH1 0x80 PUSH1 0x40 MSTORE CALLVALUE DUP1 ISZERO PUSH2 0xF JUMPI PUSH0 DUP1 REVERT JUMPDEST POP CALLER PUSH1 0x40 MLOAD DUP1 PUSH1 0x40 ADD PUSH1 0x40 MSTORE DUP1 PUSH1 0x5 DUP2 MSTORE PUSH1 0x20 ADD PUSH32 0x446567656E000000000000000000000000000000000000000000000000000000 DUP2 MSTORE POP PUSH1 0x40 MLOAD DUP1 PUSH1 0x40 ADD PUSH1 0x40 MSTORE DUP1 PUSH1 0x3 DUP2 MSTORE PUSH1 0x20 ADD PUSH32 0x44474E0000000000000000000000000000000000000000000000000000000000 DUP2 MSTORE POP DUP2 PUSH1 0x3 SWAP1 DUP2 PUSH2 0x8C SWAP2 SWAP1 PUSH2 0x60D JUMP JUMPDEST POP DUP1 PUSH1 0x4 SWAP1 DUP2 PUSH2 0x9C SWAP2 SWAP1 PUSH2 0x60D JUMP JUMPDEST POP POP POP PUSH0 PUSH20 0xFFFFFFFFFFFFFFFFFFFFFFFFFFFFFFFFFFFFFFFF AND DUP2 PUSH20 0xFFFFFFFFFFFFFFFFFFFFFFFFFFFFFFFFFFFFFFFF AND SUB PUSH2 0x10F JUMPI PUSH0 PUSH1 0x40 MLOAD PUSH32 0x1E4FBDF700000000000000000000000000000000000000000000000000000000 DUP2 MSTORE PUSH1 0x4 ADD PUSH2 0x106 SWAP2 SWAP1 PUSH2 0x71B JUMP JUMPDEST PUSH1 0x40 MLOAD DUP1 SWAP2 SUB SWAP1 REVERT JUMPDEST PUSH2 0x11E DUP2 PUSH2 0x310 PUSH1 0x20 SHL PUSH1 0x20 SHR JUMP JUMPDEST POP PUSH1 0x6 PUSH1 0x40 MLOAD DUP1 PUSH1 0x60 ADD PUSH1 0x40 MSTORE DUP1 PUSH1 0x1 DUP2 MSTORE PUSH1 0x20 ADD PUSH1 0x40 MLOAD DUP1 PUSH1 0x40 ADD PUSH1 0x40 MSTORE DUP1 PUSH1 0xE DUP2 MSTORE PUSH1 0x20 ADD PUSH32 0x456E646C657373204261746C6C65000000000000000000000000000000000000 DUP2 MSTORE POP DUP2 MSTORE PUSH1 0x20 ADD PUSH1 0x64 DUP2 MSTORE POP SWAP1 DUP1 PUSH1 0x1 DUP2 SLOAD ADD DUP1 DUP3 SSTORE DUP1 SWAP2 POP POP PUSH1 0x1 SWAP1 SUB SWAP1 PUSH0 MSTORE PUSH1 0x20 PUSH0 KECCAK256 SWAP1 PUSH1 0x3 MUL ADD PUSH0 SWAP1 SWAP2 SWAP1 SWAP2 SWAP1 SWAP2 POP PUSH0 DUP3 ADD MLOAD DUP2 PUSH0 ADD SSTORE PUSH1 0x20 DUP3 ADD MLOAD DUP2 PUSH1 0x1 ADD SWAP1 DUP2 PUSH2 0x1B6 SWAP2 SWAP1 PUSH2 0x60D JUMP JUMPDEST POP PUSH1 0x40 DUP3 ADD MLOAD DUP2 PUSH1 0x2 ADD SSTORE POP POP PUSH1 0x6 PUSH1 0x40 MLOAD DUP1 PUSH1 0x60 ADD PUSH1 0x40 MSTORE DUP1 PUSH1 0x2 DUP2 MSTORE PUSH1 0x20 ADD PUSH1 0x40 MLOAD DUP1 PUSH1 0x40 ADD PUSH1 0x40 MSTORE DUP1 PUSH1 0x12 DUP2 MSTORE PUSH1 0x20 ADD PUSH32 0x44656D6F6E2048756E7465722053776F72640000000000000000000000000000 DUP2 MSTORE POP DUP2 MSTORE PUSH1 0x20 ADD PUSH1 0x96 DUP2 MSTORE POP SWAP1 DUP1 PUSH1 0x1 DUP2 SLOAD ADD DUP1 DUP3 SSTORE DUP1 SWAP2 POP POP PUSH1 0x1 SWAP1 SUB SWAP1 PUSH0 MSTORE PUSH1 0x20 PUSH0 KECCAK256 SWAP1 PUSH1 0x3 MUL ADD PUSH0 SWAP1 SWAP2 SWAP1 SWAP2 SWAP1 SWAP2 POP PUSH0 DUP3 ADD MLOAD DUP2 PUSH0 ADD SSTORE PUSH1 0x20 DUP3 ADD MLOAD DUP2 PUSH1 0x1 ADD SWAP1 DUP2 PUSH2 0x25A SWAP2 SWAP1 PUSH2 0x60D JUMP JUMPDEST POP PUSH1 0x40 DUP3 ADD MLOAD DUP2 PUSH1 0x2 ADD SSTORE POP POP PUSH1 0x6 PUSH1 0x40 MLOAD DUP1 PUSH1 0x60 ADD PUSH1 0x40 MSTORE DUP1 PUSH1 0x3 DUP2 MSTORE PUSH1 0x20 ADD PUSH1 0x40 MLOAD DUP1 PUSH1 0x40 ADD PUSH1 0x40 MSTORE DUP1 PUSH1 0xA DUP2 MSTORE PUSH1 0x20 ADD PUSH32 0x57696E6474616C6B657200000000000000000000000000000000000000000000 DUP2 MSTORE POP DUP2 MSTORE PUSH1 0x20 ADD PUSH1 0xFA DUP2 MSTORE POP SWAP1 DUP1 PUSH1 0x1 DUP2 SLOAD ADD DUP1 DUP3 SSTORE DUP1 SWAP2 POP POP PUSH1 0x1 SWAP1 SUB SWAP1 PUSH0 MSTORE PUSH1 0x20 PUSH0 KECCAK256 SWAP1 PUSH1 0x3 MUL ADD PUSH0 SWAP1 SWAP2 SWAP1 SWAP2 SWAP1 SWAP2 POP PUSH0 DUP3 ADD MLOAD DUP2 PUSH0 ADD SSTORE PUSH1 0x20 DUP3 ADD MLOAD DUP2 PUSH1 0x1 ADD SWAP1 DUP2 PUSH2 0x2FE SWAP2 SWAP1 PUSH2 0x60D JUMP JUMPDEST POP PUSH1 0x40 DUP3 ADD MLOAD DUP2 PUSH1 0x2 ADD SSTORE POP POP PUSH2 0x734 JUMP JUMPDEST PUSH0 PUSH1 0x5 PUSH0 SWAP1 SLOAD SWAP1 PUSH2 0x100 EXP SWAP1 DIV PUSH20 0xFFFFFFFFFFFFFFFFFFFFFFFFFFFFFFFFFFFFFFFF AND SWAP1 POP DUP2 PUSH1 0x5 PUSH0 PUSH2 0x100 EXP DUP2 SLOAD DUP2 PUSH20 0xFFFFFFFFFFFFFFFFFFFFFFFFFFFFFFFFFFFFFFFF MUL NOT AND SWAP1 DUP4 PUSH20 0xFFFFFFFFFFFFFFFFFFFFFFFFFFFFFFFFFFFFFFFF AND MUL OR SWAP1 SSTORE POP DUP2 PUSH20 0xFFFFFFFFFFFFFFFFFFFFFFFFFFFFFFFFFFFFFFFF AND DUP2 PUSH20 0xFFFFFFFFFFFFFFFFFFFFFFFFFFFFFFFFFFFFFFFF AND PUSH32 0x8BE0079C531659141344CD1FD0A4F28419497F9722A3DAAFE3B4186F6B6457E0 PUSH1 0x40 MLOAD PUSH1 0x40 MLOAD DUP1 SWAP2 SUB SWAP1 LOG3 POP POP JUMP JUMPDEST PUSH0 DUP2 MLOAD SWAP1 POP SWAP2 SWAP1 POP JUMP JUMPDEST PUSH32 0x4E487B7100000000000000000000000000000000000000000000000000000000 PUSH0 MSTORE PUSH1 0x41 PUSH1 0x4 MSTORE PUSH1 0x24 PUSH0 REVERT JUMPDEST PUSH32 0x4E487B7100000000000000000000000000000000000000000000000000000000 PUSH0 MSTORE PUSH1 0x22 PUSH1 0x4 MSTORE PUSH1 0x24 PUSH0 REVERT JUMPDEST PUSH0 PUSH1 0x2 DUP3 DIV SWAP1 POP PUSH1 0x1 DUP3 AND DUP1 PUSH2 0x44E JUMPI PUSH1 0x7F DUP3 AND SWAP2 POP JUMPDEST PUSH1 0x20 DUP3 LT DUP2 SUB PUSH2 0x461 JUMPI PUSH2 0x460 PUSH2 0x40A JUMP JUMPDEST JUMPDEST POP SWAP2 SWAP1 POP JUMP JUMPDEST PUSH0 DUP2 SWAP1 POP DUP2 PUSH0 MSTORE PUSH1 0x20 PUSH0 KECCAK256 SWAP1 POP SWAP2 SWAP1 POP JUMP JUMPDEST PUSH0 PUSH1 0x20 PUSH1 0x1F DUP4 ADD DIV SWAP1 POP SWAP2 SWAP1 POP JUMP JUMPDEST PUSH0 DUP3 DUP3 SHL SWAP1 POP SWAP3 SWAP2 POP POP JUMP JUMPDEST PUSH0 PUSH1 0x8 DUP4 MUL PUSH2 0x4C3 PUSH32 0xFFFFFFFFFFFFFFFFFFFFFFFFFFFFFFFFFFFFFFFFFFFFFFFFFFFFFFFFFFFFFFFF DUP3 PUSH2 0x488 JUMP JUMPDEST PUSH2 0x4CD DUP7 DUP4 PUSH2 0x488 JUMP JUMPDEST SWAP6 POP DUP1 NOT DUP5 AND SWAP4 POP DUP1 DUP7 AND DUP5 OR SWAP3 POP POP POP SWAP4 SWAP3 POP POP POP JUMP JUMPDEST PUSH0 DUP2 SWAP1 POP SWAP2 SWAP1 POP JUMP JUMPDEST PUSH0 DUP2 SWAP1 POP SWAP2 SWAP1 POP JUMP JUMPDEST PUSH0 PUSH2 0x511 PUSH2 0x50C PUSH2 0x507 DUP5 PUSH2 0x4E5 JUMP JUMPDEST PUSH2 0x4EE JUMP JUMPDEST PUSH2 0x4E5 JUMP JUMPDEST SWAP1 POP SWAP2 SWAP1 POP JUMP JUMPDEST PUSH0 DUP2 SWAP1 POP SWAP2 SWAP1 POP JUMP JUMPDEST PUSH2 0x52A DUP4 PUSH2 0x4F7 JUMP JUMPDEST PUSH2 0x53E PUSH2 0x536 DUP3 PUSH2 0x518 JUMP JUMPDEST DUP5 DUP5 SLOAD PUSH2 0x494 JUMP JUMPDEST DUP3 SSTORE POP POP POP POP JUMP JUMPDEST PUSH0 SWAP1 JUMP JUMPDEST PUSH2 0x552 PUSH2 0x546 JUMP JUMPDEST PUSH2 0x55D DUP2 DUP5 DUP5 PUSH2 0x521 JUMP JUMPDEST POP POP POP JUMP JUMPDEST JUMPDEST DUP2 DUP2 LT ISZERO PUSH2 0x580 JUMPI PUSH2 0x575 PUSH0 DUP3 PUSH2 0x54A JUMP JUMPDEST PUSH1 0x1 DUP2 ADD SWAP1 POP PUSH2 0x563 JUMP JUMPDEST POP POP JUMP JUMPDEST PUSH1 0x1F DUP3 GT ISZERO PUSH2 0x5C5 JUMPI PUSH2 0x596 DUP2 PUSH2 0x467 JUMP JUMPDEST PUSH2 0x59F DUP5 PUSH2 0x479 JUMP JUMPDEST DUP2 ADD PUSH1 0x20 DUP6 LT ISZERO PUSH2 0x5AE JUMPI DUP2 SWAP1 POP JUMPDEST PUSH2 0x5C2 PUSH2 0x5BA DUP6 PUSH2 0x479 JUMP JUMPDEST DUP4 ADD DUP3 PUSH2 0x562 JUMP JUMPDEST POP POP JUMPDEST POP POP POP JUMP JUMPDEST PUSH0 DUP3 DUP3 SHR SWAP1 POP SWAP3 SWAP2 POP POP JUMP JUMPDEST PUSH0 PUSH2 0x5E5 PUSH0 NOT DUP5 PUSH1 0x8 MUL PUSH2 0x5CA JUMP JUMPDEST NOT DUP1 DUP4 AND SWAP2 POP POP SWAP3 SWAP2 POP POP JUMP JUMPDEST PUSH0 PUSH2 0x5FD DUP4 DUP4 PUSH2 0x5D6 JUMP JUMPDEST SWAP2 POP DUP3 PUSH1 0x2 MUL DUP3 OR SWAP1 POP SWAP3 SWAP2 POP POP JUMP JUMPDEST PUSH2 0x616 DUP3 PUSH2 0x3D3 JUMP JUMPDEST PUSH8 0xFFFFFFFFFFFFFFFF DUP2 GT ISZERO PUSH2 0x62F JUMPI PUSH2 0x62E PUSH2 0x3DD JUMP JUMPDEST JUMPDEST PUSH2 0x639 DUP3 SLOAD PUSH2 0x437 JUMP JUMPDEST PUSH2 0x644 DUP3 DUP3 DUP6 PUSH2 0x584 JUMP JUMPDEST PUSH0 PUSH1 0x20 SWAP1 POP PUSH1 0x1F DUP4 GT PUSH1 0x1 DUP2 EQ PUSH2 0x675 JUMPI PUSH0 DUP5 ISZERO PUSH2 0x663 JUMPI DUP3 DUP8 ADD MLOAD SWAP1 POP JUMPDEST PUSH2 0x66D DUP6 DUP3 PUSH2 0x5F2 JUMP JUMPDEST DUP7 SSTORE POP PUSH2 0x6D4 JUMP JUMPDEST PUSH1 0x1F NOT DUP5 AND PUSH2 0x683 DUP7 PUSH2 0x467 JUMP JUMPDEST PUSH0 JUMPDEST DUP3 DUP2 LT ISZERO PUSH2 0x6AA JUMPI DUP5 DUP10 ADD MLOAD DUP3 SSTORE PUSH1 0x1 DUP3 ADD SWAP2 POP PUSH1 0x20 DUP6 ADD SWAP5 POP PUSH1 0x20 DUP2 ADD SWAP1 POP PUSH2 0x685 JUMP JUMPDEST DUP7 DUP4 LT ISZERO PUSH2 0x6C7 JUMPI DUP5 DUP10 ADD MLOAD PUSH2 0x6C3 PUSH1 0x1F DUP10 AND DUP3 PUSH2 0x5D6 JUMP JUMPDEST DUP4 SSTORE POP JUMPDEST PUSH1 0x1 PUSH1 0x2 DUP9 MUL ADD DUP9 SSTORE POP POP POP JUMPDEST POP POP POP POP POP POP JUMP JUMPDEST PUSH0 PUSH20 0xFFFFFFFFFFFFFFFFFFFFFFFFFFFFFFFFFFFFFFFF DUP3 AND SWAP1 POP SWAP2 SWAP1 POP JUMP JUMPDEST PUSH0 PUSH2 0x705 DUP3 PUSH2 0x6DC JUMP JUMPDEST SWAP1 POP SWAP2 SWAP1 POP JUMP JUMPDEST PUSH2 0x715 DUP2 PUSH2 0x6FB JUMP JUMPDEST DUP3 MSTORE POP POP JUMP JUMPDEST PUSH0 PUSH1 0x20 DUP3 ADD SWAP1 POP PUSH2 0x72E PUSH0 DUP4 ADD DUP5 PUSH2 0x70C JUMP JUMPDEST SWAP3 SWAP2 POP POP JUMP JUMPDEST PUSH2 0x209E DUP1 PUSH2 0x741 PUSH0 CODECOPY PUSH0 RETURN INVALID PUSH1 0x80 PUSH1 0x40 MSTORE CALLVALUE DUP1 ISZERO PUSH2 0xF JUMPI PUSH0 DUP1 REVERT JUMPDEST POP PUSH1 0x4 CALLDATASIZE LT PUSH2 0x12A JUMPI PUSH0 CALLDATALOAD PUSH1 0xE0 SHR DUP1 PUSH4 0x715018A6 GT PUSH2 0xAB JUMPI DUP1 PUSH4 0xA9059CBB GT PUSH2 0x6F JUMPI DUP1 PUSH4 0xA9059CBB EQ PUSH2 0x322 JUMPI DUP1 PUSH4 0xBEC3FA17 EQ PUSH2 0x352 JUMPI DUP1 PUSH4 0xDB006A75 EQ PUSH2 0x36E JUMPI DUP1 PUSH4 0xDD62ED3E EQ PUSH2 0x38A JUMPI DUP1 PUSH4 0xF2FDE38B EQ PUSH2 0x3BA JUMPI PUSH2 0x12A JUMP JUMPDEST DUP1 PUSH4 0x715018A6 EQ PUSH2 0x2A0 JUMPI DUP1 PUSH4 0x7A97840D EQ PUSH2 0x2AA JUMPI DUP1 PUSH4 0x8CFFA21C EQ PUSH2 0x2C8 JUMPI DUP1 PUSH4 0x8DA5CB5B EQ PUSH2 0x2E6 JUMPI DUP1 PUSH4 0x95D89B41 EQ PUSH2 0x304 JUMPI PUSH2 0x12A JUMP JUMPDEST DUP1 PUSH4 0x313CE567 GT PUSH2 0xF2 JUMPI DUP1 PUSH4 0x313CE567 EQ PUSH2 0x1E8 JUMPI DUP1 PUSH4 0x40C10F19 EQ PUSH2 0x206 JUMPI DUP1 PUSH4 0x430074C2 EQ PUSH2 0x222 JUMPI DUP1 PUSH4 0x6D1B229D EQ PUSH2 0x254 JUMPI DUP1 PUSH4 0x70A08231 EQ PUSH2 0x270 JUMPI PUSH2 0x12A JUMP JUMPDEST DUP1 PUSH4 0x6FDDE03 EQ PUSH2 0x12E JUMPI DUP1 PUSH4 0x95EA7B3 EQ PUSH2 0x14C JUMPI DUP1 PUSH4 0x12065FE0 EQ PUSH2 0x17C JUMPI DUP1 PUSH4 0x18160DDD EQ PUSH2 0x19A JUMPI DUP1 PUSH4 0x23B872DD EQ PUSH2 0x1B8 JUMPI JUMPDEST PUSH0 DUP1 REVERT JUMPDEST PUSH2 0x136 PUSH2 0x3D6 JUMP JUMPDEST PUSH1 0x40 MLOAD PUSH2 0x143 SWAP2 SWAP1 PUSH2 0x160D JUMP JUMPDEST PUSH1 0x40 MLOAD DUP1 SWAP2 SUB SWAP1 RETURN JUMPDEST PUSH2 0x166 PUSH1 0x4 DUP1 CALLDATASIZE SUB DUP2 ADD SWAP1 PUSH2 0x161 SWAP2 SWAP1 PUSH2 0x16BE JUMP JUMPDEST PUSH2 0x466 JUMP JUMPDEST PUSH1 0x40 MLOAD PUSH2 0x173 SWAP2 SWAP1 PUSH2 0x1716 JUMP JUMPDEST PUSH1 0x40 MLOAD DUP1 SWAP2 SUB SWAP1 RETURN JUMPDEST PUSH2 0x184 PUSH2 0x488 JUMP JUMPDEST PUSH1 0x40 MLOAD PUSH2 0x191 SWAP2 SWAP1 PUSH2 0x173E JUMP JUMPDEST PUSH1 0x40 MLOAD DUP1 SWAP2 SUB SWAP1 RETURN JUMPDEST PUSH2 0x1A2 PUSH2 0x506 JUMP JUMPDEST PUSH1 0x40 MLOAD PUSH2 0x1AF SWAP2 SWAP1 PUSH2 0x173E JUMP JUMPDEST PUSH1 0x40 MLOAD DUP1 SWAP2 SUB SWAP1 RETURN JUMPDEST PUSH2 0x1D2 PUSH1 0x4 DUP1 CALLDATASIZE SUB DUP2 ADD SWAP1 PUSH2 0x1CD SWAP2 SWAP1 PUSH2 0x1757 JUMP JUMPDEST PUSH2 0x50F JUMP JUMPDEST PUSH1 0x40 MLOAD PUSH2 0x1DF SWAP2 SWAP1 PUSH2 0x1716 JUMP JUMPDEST PUSH1 0x40 MLOAD DUP1 SWAP2 SUB SWAP1 RETURN JUMPDEST PUSH2 0x1F0 PUSH2 0x53D JUMP JUMPDEST PUSH1 0x40 MLOAD PUSH2 0x1FD SWAP2 SWAP1 PUSH2 0x17C2 JUMP JUMPDEST PUSH1 0x40 MLOAD DUP1 SWAP2 SUB SWAP1 RETURN JUMPDEST PUSH2 0x220 PUSH1 0x4 DUP1 CALLDATASIZE SUB DUP2 ADD SWAP1 PUSH2 0x21B SWAP2 SWAP1 PUSH2 0x16BE JUMP JUMPDEST PUSH2 0x541 JUMP JUMPDEST STOP JUMPDEST PUSH2 0x23C PUSH1 0x4 DUP1 CALLDATASIZE SUB DUP2 ADD SWAP1 PUSH2 0x237 SWAP2 SWAP1 PUSH2 0x17DB JUMP JUMPDEST PUSH2 0x557 JUMP JUMPDEST PUSH1 0x40 MLOAD PUSH2 0x24B SWAP4 SWAP3 SWAP2 SWAP1 PUSH2 0x1806 JUMP JUMPDEST PUSH1 0x40 MLOAD DUP1 SWAP2 SUB SWAP1 RETURN JUMPDEST PUSH2 0x26E PUSH1 0x4 DUP1 CALLDATASIZE SUB DUP2 ADD SWAP1 PUSH2 0x269 SWAP2 SWAP1 PUSH2 0x17DB JUMP JUMPDEST PUSH2 0x612 JUMP JUMPDEST STOP JUMPDEST PUSH2 0x28A PUSH1 0x4 DUP1 CALLDATASIZE SUB DUP2 ADD SWAP1 PUSH2 0x285 SWAP2 SWAP1 PUSH2 0x1842 JUMP JUMPDEST PUSH2 0x678 JUMP JUMPDEST PUSH1 0x40 MLOAD PUSH2 0x297 SWAP2 SWAP1 PUSH2 0x173E JUMP JUMPDEST PUSH1 0x40 MLOAD DUP1 SWAP2 SUB SWAP1 RETURN JUMPDEST PUSH2 0x2A8 PUSH2 0x6BD JUMP JUMPDEST STOP JUMPDEST PUSH2 0x2B2 PUSH2 0x6D0 JUMP JUMPDEST PUSH1 0x40 MLOAD PUSH2 0x2BF SWAP2 SWAP1 PUSH2 0x19CC JUMP JUMPDEST PUSH1 0x40 MLOAD DUP1 SWAP2 SUB SWAP1 RETURN JUMPDEST PUSH2 0x2D0 PUSH2 0x7CF JUMP JUMPDEST PUSH1 0x40 MLOAD PUSH2 0x2DD SWAP2 SWAP1 PUSH2 0x19CC JUMP JUMPDEST PUSH1 0x40 MLOAD DUP1 SWAP2 SUB SWAP1 RETURN JUMPDEST PUSH2 0x2EE PUSH2 0x909 JUMP JUMPDEST PUSH1 0x40 MLOAD PUSH2 0x2FB SWAP2 SWAP1 PUSH2 0x19FB JUMP JUMPDEST PUSH1 0x40 MLOAD DUP1 SWAP2 SUB SWAP1 RETURN JUMPDEST PUSH2 0x30C PUSH2 0x931 JUMP JUMPDEST PUSH1 0x40 MLOAD PUSH2 0x319 SWAP2 SWAP1 PUSH2 0x160D JUMP JUMPDEST PUSH1 0x40 MLOAD DUP1 SWAP2 SUB SWAP1 RETURN JUMPDEST PUSH2 0x33C PUSH1 0x4 DUP1 CALLDATASIZE SUB DUP2 ADD SWAP1 PUSH2 0x337 SWAP2 SWAP1 PUSH2 0x16BE JUMP JUMPDEST PUSH2 0x9C1 JUMP JUMPDEST PUSH1 0x40 MLOAD PUSH2 0x349 SWAP2 SWAP1 PUSH2 0x1716 JUMP JUMPDEST PUSH1 0x40 MLOAD DUP1 SWAP2 SUB SWAP1 RETURN JUMPDEST PUSH2 0x36C PUSH1 0x4 DUP1 CALLDATASIZE SUB DUP2 ADD SWAP1 PUSH2 0x367 SWAP2 SWAP1 PUSH2 0x16BE JUMP JUMPDEST PUSH2 0x9E3 JUMP JUMPDEST STOP JUMPDEST PUSH2 0x388 PUSH1 0x4 DUP1 CALLDATASIZE SUB DUP2 ADD SWAP1 PUSH2 0x383 SWAP2 SWAP1 PUSH2 0x17DB JUMP JUMPDEST PUSH2 0xA50 JUMP JUMPDEST STOP JUMPDEST PUSH2 0x3A4 PUSH1 0x4 DUP1 CALLDATASIZE SUB DUP2 ADD SWAP1 PUSH2 0x39F SWAP2 SWAP1 PUSH2 0x1A14 JUMP JUMPDEST PUSH2 0xCCC JUMP JUMPDEST PUSH1 0x40 MLOAD PUSH2 0x3B1 SWAP2 SWAP1 PUSH2 0x173E JUMP JUMPDEST PUSH1 0x40 MLOAD DUP1 SWAP2 SUB SWAP1 RETURN JUMPDEST PUSH2 0x3D4 PUSH1 0x4 DUP1 CALLDATASIZE SUB DUP2 ADD SWAP1 PUSH2 0x3CF SWAP2 SWAP1 PUSH2 0x1842 JUMP JUMPDEST PUSH2 0xD4E JUMP JUMPDEST STOP JUMPDEST PUSH1 0x60 PUSH1 0x3 DUP1 SLOAD PUSH2 0x3E5 SWAP1 PUSH2 0x1A7F JUMP JUMPDEST DUP1 PUSH1 0x1F ADD PUSH1 0x20 DUP1 SWAP2 DIV MUL PUSH1 0x20 ADD PUSH1 0x40 MLOAD SWAP1 DUP2 ADD PUSH1 0x40 MSTORE DUP1 SWAP3 SWAP2 SWAP1 DUP2 DUP2 MSTORE PUSH1 0x20 ADD DUP3 DUP1 SLOAD PUSH2 0x411 SWAP1 PUSH2 0x1A7F JUMP JUMPDEST DUP1 ISZERO PUSH2 0x45C JUMPI DUP1 PUSH1 0x1F LT PUSH2 0x433 JUMPI PUSH2 0x100 DUP1 DUP4 SLOAD DIV MUL DUP4 MSTORE SWAP2 PUSH1 0x20 ADD SWAP2 PUSH2 0x45C JUMP JUMPDEST DUP3 ADD SWAP2 SWAP1 PUSH0 MSTORE PUSH1 0x20 PUSH0 KECCAK256 SWAP1 JUMPDEST DUP2 SLOAD DUP2 MSTORE SWAP1 PUSH1 0x1 ADD SWAP1 PUSH1 0x20 ADD DUP1 DUP4 GT PUSH2 0x43F JUMPI DUP3 SWAP1 SUB PUSH1 0x1F AND DUP3 ADD SWAP2 JUMPDEST POP POP POP POP POP SWAP1 POP SWAP1 JUMP JUMPDEST PUSH0 DUP1 PUSH2 0x470 PUSH2 0xDD2 JUMP JUMPDEST SWAP1 POP PUSH2 0x47D DUP2 DUP6 DUP6 PUSH2 0xDD9 JUMP JUMPDEST PUSH1 0x1 SWAP2 POP POP SWAP3 SWAP2 POP POP JUMP JUMPDEST PUSH0 ADDRESS PUSH20 0xFFFFFFFFFFFFFFFFFFFFFFFFFFFFFFFFFFFFFFFF AND PUSH4 0x70A08231 CALLER PUSH1 0x40 MLOAD DUP3 PUSH4 0xFFFFFFFF AND PUSH1 0xE0 SHL DUP2 MSTORE PUSH1 0x4 ADD PUSH2 0x4C2 SWAP2 SWAP1 PUSH2 0x19FB JUMP JUMPDEST PUSH1 0x20 PUSH1 0x40 MLOAD DUP1 DUP4 SUB DUP2 DUP7 GAS STATICCALL ISZERO DUP1 ISZERO PUSH2 0x4DD JUMPI RETURNDATASIZE PUSH0 DUP1 RETURNDATACOPY RETURNDATASIZE PUSH0 REVERT JUMPDEST POP POP POP POP PUSH1 0x40 MLOAD RETURNDATASIZE PUSH1 0x1F NOT PUSH1 0x1F DUP3 ADD AND DUP3 ADD DUP1 PUSH1 0x40 MSTORE POP DUP2 ADD SWAP1 PUSH2 0x501 SWAP2 SWAP1 PUSH2 0x1AC3 JUMP JUMPDEST SWAP1 POP SWAP1 JUMP JUMPDEST PUSH0 PUSH1 0x2 SLOAD SWAP1 POP SWAP1 JUMP JUMPDEST PUSH0 DUP1 PUSH2 0x519 PUSH2 0xDD2 JUMP JUMPDEST SWAP1 POP PUSH2 0x526 DUP6 DUP3 DUP6 PUSH2 0xDEB JUMP JUMPDEST PUSH2 0x531 DUP6 DUP6 DUP6 PUSH2 0xE7D JUMP JUMPDEST PUSH1 0x1 SWAP2 POP POP SWAP4 SWAP3 POP POP POP JUMP JUMPDEST PUSH0 SWAP1 JUMP JUMPDEST PUSH2 0x549 PUSH2 0xF6D JUMP JUMPDEST PUSH2 0x553 DUP3 DUP3 PUSH2 0xFF4 JUMP JUMPDEST POP POP JUMP JUMPDEST PUSH1 0x6 DUP2 DUP2 SLOAD DUP2 LT PUSH2 0x566 JUMPI PUSH0 DUP1 REVERT JUMPDEST SWAP1 PUSH0 MSTORE PUSH1 0x20 PUSH0 KECCAK256 SWAP1 PUSH1 0x3 MUL ADD PUSH0 SWAP2 POP SWAP1 POP DUP1 PUSH0 ADD SLOAD SWAP1 DUP1 PUSH1 0x1 ADD DUP1 SLOAD PUSH2 0x58B SWAP1 PUSH2 0x1A7F JUMP JUMPDEST DUP1 PUSH1 0x1F ADD PUSH1 0x20 DUP1 SWAP2 DIV MUL PUSH1 0x20 ADD PUSH1 0x40 MLOAD SWAP1 DUP2 ADD PUSH1 0x40 MSTORE DUP1 SWAP3 SWAP2 SWAP1 DUP2 DUP2 MSTORE PUSH1 0x20 ADD DUP3 DUP1 SLOAD PUSH2 0x5B7 SWAP1 PUSH2 0x1A7F JUMP JUMPDEST DUP1 ISZERO PUSH2 0x602 JUMPI DUP1 PUSH1 0x1F LT PUSH2 0x5D9 JUMPI PUSH2 0x100 DUP1 DUP4 SLOAD DIV MUL DUP4 MSTORE SWAP2 PUSH1 0x20 ADD SWAP2 PUSH2 0x602 JUMP JUMPDEST DUP3 ADD SWAP2 SWAP1 PUSH0 MSTORE PUSH1 0x20 PUSH0 KECCAK256 SWAP1 JUMPDEST DUP2 SLOAD DUP2 MSTORE SWAP1 PUSH1 0x1 ADD SWAP1 PUSH1 0x20 ADD DUP1 DUP4 GT PUSH2 0x5E5 JUMPI DUP3 SWAP1 SUB PUSH1 0x1F AND DUP3 ADD SWAP2 JUMPDEST POP POP POP POP POP SWAP1 DUP1 PUSH1 0x2 ADD SLOAD SWAP1 POP DUP4 JUMP JUMPDEST DUP1 PUSH2 0x623 PUSH2 0x61E PUSH2 0xDD2 JUMP JUMPDEST PUSH2 0x678 JUMP JUMPDEST LT ISZERO PUSH2 0x664 JUMPI PUSH1 0x40 MLOAD PUSH32 0x8C379A000000000000000000000000000000000000000000000000000000000 DUP2 MSTORE PUSH1 0x4 ADD PUSH2 0x65B SWAP1 PUSH2 0x1B5E JUMP JUMPDEST PUSH1 0x40 MLOAD DUP1 SWAP2 SUB SWAP1 REVERT JUMPDEST PUSH2 0x675 PUSH2 0x66F PUSH2 0xDD2 JUMP JUMPDEST DUP3 PUSH2 0x1073 JUMP JUMPDEST POP JUMP JUMPDEST PUSH0 DUP1 PUSH0 DUP4 PUSH20 0xFFFFFFFFFFFFFFFFFFFFFFFFFFFFFFFFFFFFFFFF AND PUSH20 0xFFFFFFFFFFFFFFFFFFFFFFFFFFFFFFFFFFFFFFFF AND DUP2 MSTORE PUSH1 0x20 ADD SWAP1 DUP2 MSTORE PUSH1 0x20 ADD PUSH0 KECCAK256 SLOAD SWAP1 POP SWAP2 SWAP1 POP JUMP JUMPDEST PUSH2 0x6C5 PUSH2 0xF6D JUMP JUMPDEST PUSH2 0x6CE PUSH0 PUSH2 0x10F2 JUMP JUMPDEST JUMP JUMPDEST PUSH1 0x60 PUSH1 0x6 DUP1 SLOAD DUP1 PUSH1 0x20 MUL PUSH1 0x20 ADD PUSH1 0x40 MLOAD SWAP1 DUP2 ADD PUSH1 0x40 MSTORE DUP1 SWAP3 SWAP2 SWAP1 DUP2 DUP2 MSTORE PUSH1 0x20 ADD PUSH0 SWAP1 JUMPDEST DUP3 DUP3 LT ISZERO PUSH2 0x7C6 JUMPI DUP4 DUP3 SWAP1 PUSH0 MSTORE PUSH1 0x20 PUSH0 KECCAK256 SWAP1 PUSH1 0x3 MUL ADD PUSH1 0x40 MLOAD DUP1 PUSH1 0x60 ADD PUSH1 0x40 MSTORE SWAP1 DUP2 PUSH0 DUP3 ADD SLOAD DUP2 MSTORE PUSH1 0x20 ADD PUSH1 0x1 DUP3 ADD DUP1 SLOAD PUSH2 0x72D SWAP1 PUSH2 0x1A7F JUMP JUMPDEST DUP1 PUSH1 0x1F ADD PUSH1 0x20 DUP1 SWAP2 DIV MUL PUSH1 0x20 ADD PUSH1 0x40 MLOAD SWAP1 DUP2 ADD PUSH1 0x40 MSTORE DUP1 SWAP3 SWAP2 SWAP1 DUP2 DUP2 MSTORE PUSH1 0x20 ADD DUP3 DUP1 SLOAD PUSH2 0x759 SWAP1 PUSH2 0x1A7F JUMP JUMPDEST DUP1 ISZERO PUSH2 0x7A4 JUMPI DUP1 PUSH1 0x1F LT PUSH2 0x77B JUMPI PUSH2 0x100 DUP1 DUP4 SLOAD DIV MUL DUP4 MSTORE SWAP2 PUSH1 0x20 ADD SWAP2 PUSH2 0x7A4 JUMP JUMPDEST DUP3 ADD SWAP2 SWAP1 PUSH0 MSTORE PUSH1 0x20 PUSH0 KECCAK256 SWAP1 JUMPDEST DUP2 SLOAD DUP2 MSTORE SWAP1 PUSH1 0x1 ADD SWAP1 PUSH1 0x20 ADD DUP1 DUP4 GT PUSH2 0x787 JUMPI DUP3 SWAP1 SUB PUSH1 0x1F AND DUP3 ADD SWAP2 JUMPDEST POP POP POP POP POP DUP2 MSTORE PUSH1 0x20 ADD PUSH1 0x2 DUP3 ADD SLOAD DUP2 MSTORE POP POP DUP2 MSTORE PUSH1 0x20 ADD SWAP1 PUSH1 0x1 ADD SWAP1 PUSH2 0x6F3 JUMP JUMPDEST POP POP POP POP SWAP1 POP SWAP1 JUMP JUMPDEST PUSH1 0x60 PUSH1 0x7 PUSH0 CALLER PUSH20 0xFFFFFFFFFFFFFFFFFFFFFFFFFFFFFFFFFFFFFFFF AND PUSH20 0xFFFFFFFFFFFFFFFFFFFFFFFFFFFFFFFFFFFFFFFF AND DUP2 MSTORE PUSH1 0x20 ADD SWAP1 DUP2 MSTORE PUSH1 0x20 ADD PUSH0 KECCAK256 DUP1 SLOAD DUP1 PUSH1 0x20 MUL PUSH1 0x20 ADD PUSH1 0x40 MLOAD SWAP1 DUP2 ADD PUSH1 0x40 MSTORE DUP1 SWAP3 SWAP2 SWAP1 DUP2 DUP2 MSTORE PUSH1 0x20 ADD PUSH0 SWAP1 JUMPDEST DUP3 DUP3 LT ISZERO PUSH2 0x900 JUMPI DUP4 DUP3 SWAP1 PUSH0 MSTORE PUSH1 0x20 PUSH0 KECCAK256 SWAP1 PUSH1 0x3 MUL ADD PUSH1 0x40 MLOAD DUP1 PUSH1 0x60 ADD PUSH1 0x40 MSTORE SWAP1 DUP2 PUSH0 DUP3 ADD SLOAD DUP2 MSTORE PUSH1 0x20 ADD PUSH1 0x1 DUP3 ADD DUP1 SLOAD PUSH2 0x867 SWAP1 PUSH2 0x1A7F JUMP JUMPDEST DUP1 PUSH1 0x1F ADD PUSH1 0x20 DUP1 SWAP2 DIV MUL PUSH1 0x20 ADD PUSH1 0x40 MLOAD SWAP1 DUP2 ADD PUSH1 0x40 MSTORE DUP1 SWAP3 SWAP2 SWAP1 DUP2 DUP2 MSTORE PUSH1 0x20 ADD DUP3 DUP1 SLOAD PUSH2 0x893 SWAP1 PUSH2 0x1A7F JUMP JUMPDEST DUP1 ISZERO PUSH2 0x8DE JUMPI DUP1 PUSH1 0x1F LT PUSH2 0x8B5 JUMPI PUSH2 0x100 DUP1 DUP4 SLOAD DIV MUL DUP4 MSTORE SWAP2 PUSH1 0x20 ADD SWAP2 PUSH2 0x8DE JUMP JUMPDEST DUP3 ADD SWAP2 SWAP1 PUSH0 MSTORE PUSH1 0x20 PUSH0 KECCAK256 SWAP1 JUMPDEST DUP2 SLOAD DUP2 MSTORE SWAP1 PUSH1 0x1 ADD SWAP1 PUSH1 0x20 ADD DUP1 DUP4 GT PUSH2 0x8C1 JUMPI DUP3 SWAP1 SUB PUSH1 0x1F AND DUP3 ADD SWAP2 JUMPDEST POP POP POP POP POP DUP2 MSTORE PUSH1 0x20 ADD PUSH1 0x2 DUP3 ADD SLOAD DUP2 MSTORE POP POP DUP2 MSTORE PUSH1 0x20 ADD SWAP1 PUSH1 0x1 ADD SWAP1 PUSH2 0x82D JUMP JUMPDEST POP POP POP POP SWAP1 POP SWAP1 JUMP JUMPDEST PUSH0 PUSH1 0x5 PUSH0 SWAP1 SLOAD SWAP1 PUSH2 0x100 EXP SWAP1 DIV PUSH20 0xFFFFFFFFFFFFFFFFFFFFFFFFFFFFFFFFFFFFFFFF AND SWAP1 POP SWAP1 JUMP JUMPDEST PUSH1 0x60 PUSH1 0x4 DUP1 SLOAD PUSH2 0x940 SWAP1 PUSH2 0x1A7F JUMP JUMPDEST DUP1 PUSH1 0x1F ADD PUSH1 0x20 DUP1 SWAP2 DIV MUL PUSH1 0x20 ADD PUSH1 0x40 MLOAD SWAP1 DUP2 ADD PUSH1 0x40 MSTORE DUP1 SWAP3 SWAP2 SWAP1 DUP2 DUP2 MSTORE PUSH1 0x20 ADD DUP3 DUP1 SLOAD PUSH2 0x96C SWAP1 PUSH2 0x1A7F JUMP JUMPDEST DUP1 ISZERO PUSH2 0x9B7 JUMPI DUP1 PUSH1 0x1F LT PUSH2 0x98E JUMPI PUSH2 0x100 DUP1 DUP4 SLOAD DIV MUL DUP4 MSTORE SWAP2 PUSH1 0x20 ADD SWAP2 PUSH2 0x9B7 JUMP JUMPDEST DUP3 ADD SWAP2 SWAP1 PUSH0 MSTORE PUSH1 0x20 PUSH0 KECCAK256 SWAP1 JUMPDEST DUP2 SLOAD DUP2 MSTORE SWAP1 PUSH1 0x1 ADD SWAP1 PUSH1 0x20 ADD DUP1 DUP4 GT PUSH2 0x99A JUMPI DUP3 SWAP1 SUB PUSH1 0x1F AND DUP3 ADD SWAP2 JUMPDEST POP POP POP POP POP SWAP1 POP SWAP1 JUMP JUMPDEST PUSH0 DUP1 PUSH2 0x9CB PUSH2 0xDD2 JUMP JUMPDEST SWAP1 POP PUSH2 0x9D8 DUP2 DUP6 DUP6 PUSH2 0xE7D JUMP JUMPDEST PUSH1 0x1 SWAP2 POP POP SWAP3 SWAP2 POP POP JUMP JUMPDEST DUP1 PUSH2 0x9F4 PUSH2 0x9EF PUSH2 0xDD2 JUMP JUMPDEST PUSH2 0x678 JUMP JUMPDEST LT ISZERO PUSH2 0xA35 JUMPI PUSH1 0x40 MLOAD PUSH32 0x8C379A000000000000000000000000000000000000000000000000000000000 DUP2 MSTORE PUSH1 0x4 ADD PUSH2 0xA2C SWAP1 PUSH2 0x1BEC JUMP JUMPDEST PUSH1 0x40 MLOAD DUP1 SWAP2 SUB SWAP1 REVERT JUMPDEST PUSH2 0xA3F CALLER DUP3 PUSH2 0x466 JUMP JUMPDEST POP PUSH2 0xA4B CALLER DUP4 DUP4 PUSH2 0x50F JUMP JUMPDEST POP POP POP JUMP JUMPDEST PUSH0 DUP2 GT DUP1 ISZERO PUSH2 0xA64 JUMPI POP PUSH1 0x6 DUP1 SLOAD SWAP1 POP DUP2 GT ISZERO JUMPDEST PUSH2 0xAA3 JUMPI PUSH1 0x40 MLOAD PUSH32 0x8C379A000000000000000000000000000000000000000000000000000000000 DUP2 MSTORE PUSH1 0x4 ADD PUSH2 0xA9A SWAP1 PUSH2 0x1C54 JUMP JUMPDEST PUSH1 0x40 MLOAD DUP1 SWAP2 SUB SWAP1 REVERT JUMPDEST PUSH0 PUSH1 0x6 PUSH1 0x1 DUP4 PUSH2 0xAB3 SWAP2 SWAP1 PUSH2 0x1C9F JUMP JUMPDEST DUP2 SLOAD DUP2 LT PUSH2 0xAC4 JUMPI PUSH2 0xAC3 PUSH2 0x1CD2 JUMP JUMPDEST JUMPDEST SWAP1 PUSH0 MSTORE PUSH1 0x20 PUSH0 KECCAK256 SWAP1 PUSH1 0x3 MUL ADD PUSH1 0x40 MLOAD DUP1 PUSH1 0x60 ADD PUSH1 0x40 MSTORE SWAP1 DUP2 PUSH0 DUP3 ADD SLOAD DUP2 MSTORE PUSH1 0x20 ADD PUSH1 0x1 DUP3 ADD DUP1 SLOAD PUSH2 0xAF4 SWAP1 PUSH2 0x1A7F JUMP JUMPDEST DUP1 PUSH1 0x1F ADD PUSH1 0x20 DUP1 SWAP2 DIV MUL PUSH1 0x20 ADD PUSH1 0x40 MLOAD SWAP1 DUP2 ADD PUSH1 0x40 MSTORE DUP1 SWAP3 SWAP2 SWAP1 DUP2 DUP2 MSTORE PUSH1 0x20 ADD DUP3 DUP1 SLOAD PUSH2 0xB20 SWAP1 PUSH2 0x1A7F JUMP JUMPDEST DUP1 ISZERO PUSH2 0xB6B JUMPI DUP1 PUSH1 0x1F LT PUSH2 0xB42 JUMPI PUSH2 0x100 DUP1 DUP4 SLOAD DIV MUL DUP4 MSTORE SWAP2 PUSH1 0x20 ADD SWAP2 PUSH2 0xB6B JUMP JUMPDEST DUP3 ADD SWAP2 SWAP1 PUSH0 MSTORE PUSH1 0x20 PUSH0 KECCAK256 SWAP1 JUMPDEST DUP2 SLOAD DUP2 MSTORE SWAP1 PUSH1 0x1 ADD SWAP1 PUSH1 0x20 ADD DUP1 DUP4 GT PUSH2 0xB4E JUMPI DUP3 SWAP1 SUB PUSH1 0x1F AND DUP3 ADD SWAP2 JUMPDEST POP POP POP POP POP DUP2 MSTORE PUSH1 0x20 ADD PUSH1 0x2 DUP3 ADD SLOAD DUP2 MSTORE POP POP SWAP1 POP DUP1 PUSH1 0x40 ADD MLOAD PUSH2 0xB8E CALLER PUSH2 0x678 JUMP JUMPDEST LT ISZERO PUSH2 0xBCF JUMPI PUSH1 0x40 MLOAD PUSH32 0x8C379A000000000000000000000000000000000000000000000000000000000 DUP2 MSTORE PUSH1 0x4 ADD PUSH2 0xBC6 SWAP1 PUSH2 0x1D49 JUMP JUMPDEST PUSH1 0x40 MLOAD DUP1 SWAP2 SUB SWAP1 REVERT JUMPDEST PUSH2 0xBDD CALLER DUP3 PUSH1 0x40 ADD MLOAD PUSH2 0x1073 JUMP JUMPDEST PUSH1 0x7 PUSH0 CALLER PUSH20 0xFFFFFFFFFFFFFFFFFFFFFFFFFFFFFFFFFFFFFFFF AND PUSH20 0xFFFFFFFFFFFFFFFFFFFFFFFFFFFFFFFFFFFFFFFF AND DUP2 MSTORE PUSH1 0x20 ADD SWAP1 DUP2 MSTORE PUSH1 0x20 ADD PUSH0 KECCAK256 DUP2 SWAP1 DUP1 PUSH1 0x1 DUP2 SLOAD ADD DUP1 DUP3 SSTORE DUP1 SWAP2 POP POP PUSH1 0x1 SWAP1 SUB SWAP1 PUSH0 MSTORE PUSH1 0x20 PUSH0 KECCAK256 SWAP1 PUSH1 0x3 MUL ADD PUSH0 SWAP1 SWAP2 SWAP1 SWAP2 SWAP1 SWAP2 POP PUSH0 DUP3 ADD MLOAD DUP2 PUSH0 ADD SSTORE PUSH1 0x20 DUP3 ADD MLOAD DUP2 PUSH1 0x1 ADD SWAP1 DUP2 PUSH2 0xC5E SWAP2 SWAP1 PUSH2 0x1F31 JUMP JUMPDEST POP PUSH1 0x40 DUP3 ADD MLOAD DUP2 PUSH1 0x2 ADD SSTORE POP POP CALLER PUSH20 0xFFFFFFFFFFFFFFFFFFFFFFFFFFFFFFFFFFFFFFFF AND PUSH32 0x2748AED474E8B2615B65F003A5FAC4B64D8C9EB9C911DAF175B6103F3802CD4C DUP3 PUSH0 ADD MLOAD DUP4 PUSH1 0x20 ADD MLOAD DUP5 PUSH1 0x40 ADD MLOAD PUSH1 0x40 MLOAD PUSH2 0xCC0 SWAP4 SWAP3 SWAP2 SWAP1 PUSH2 0x1806 JUMP JUMPDEST PUSH1 0x40 MLOAD DUP1 SWAP2 SUB SWAP1 LOG2 POP POP JUMP JUMPDEST PUSH0 PUSH1 0x1 PUSH0 DUP5 PUSH20 0xFFFFFFFFFFFFFFFFFFFFFFFFFFFFFFFFFFFFFFFF AND PUSH20 0xFFFFFFFFFFFFFFFFFFFFFFFFFFFFFFFFFFFFFFFF AND DUP2 MSTORE PUSH1 0x20 ADD SWAP1 DUP2 MSTORE PUSH1 0x20 ADD PUSH0 KECCAK256 PUSH0 DUP4 PUSH20 0xFFFFFFFFFFFFFFFFFFFFFFFFFFFFFFFFFFFFFFFF AND PUSH20 0xFFFFFFFFFFFFFFFFFFFFFFFFFFFFFFFFFFFFFFFF AND DUP2 MSTORE PUSH1 0x20 ADD SWAP1 DUP2 MSTORE PUSH1 0x20 ADD PUSH0 KECCAK256 SLOAD SWAP1 POP SWAP3 SWAP2 POP POP JUMP JUMPDEST PUSH2 0xD56 PUSH2 0xF6D JUMP JUMPDEST PUSH0 PUSH20 0xFFFFFFFFFFFFFFFFFFFFFFFFFFFFFFFFFFFFFFFF AND DUP2 PUSH20 0xFFFFFFFFFFFFFFFFFFFFFFFFFFFFFFFFFFFFFFFF AND SUB PUSH2 0xDC6 JUMPI PUSH0 PUSH1 0x40 MLOAD PUSH32 0x1E4FBDF700000000000000000000000000000000000000000000000000000000 DUP2 MSTORE PUSH1 0x4 ADD PUSH2 0xDBD SWAP2 SWAP1 PUSH2 0x19FB JUMP JUMPDEST PUSH1 0x40 MLOAD DUP1 SWAP2 SUB SWAP1 REVERT JUMPDEST PUSH2 0xDCF DUP2 PUSH2 0x10F2 JUMP JUMPDEST POP JUMP JUMPDEST PUSH0 CALLER SWAP1 POP SWAP1 JUMP JUMPDEST PUSH2 0xDE6 DUP4 DUP4 DUP4 PUSH1 0x1 PUSH2 0x11B5 JUMP JUMPDEST POP POP POP JUMP JUMPDEST PUSH0 PUSH2 0xDF6 DUP5 DUP5 PUSH2 0xCCC JUMP JUMPDEST SWAP1 POP PUSH32 0xFFFFFFFFFFFFFFFFFFFFFFFFFFFFFFFFFFFFFFFFFFFFFFFFFFFFFFFFFFFFFFFF DUP2 EQ PUSH2 0xE77 JUMPI DUP2 DUP2 LT ISZERO PUSH2 0xE68 JUMPI DUP3 DUP2 DUP4 PUSH1 0x40 MLOAD PUSH32 0xFB8F41B200000000000000000000000000000000000000000000000000000000 DUP2 MSTORE PUSH1 0x4 ADD PUSH2 0xE5F SWAP4 SWAP3 SWAP2 SWAP1 PUSH2 0x2000 JUMP JUMPDEST PUSH1 0x40 MLOAD DUP1 SWAP2 SUB SWAP1 REVERT JUMPDEST PUSH2 0xE76 DUP5 DUP5 DUP5 DUP5 SUB PUSH0 PUSH2 0x11B5 JUMP JUMPDEST JUMPDEST POP POP POP POP JUMP JUMPDEST PUSH0 PUSH20 0xFFFFFFFFFFFFFFFFFFFFFFFFFFFFFFFFFFFFFFFF AND DUP4 PUSH20 0xFFFFFFFFFFFFFFFFFFFFFFFFFFFFFFFFFFFFFFFF AND SUB PUSH2 0xEED JUMPI PUSH0 PUSH1 0x40 MLOAD PUSH32 0x96C6FD1E00000000000000000000000000000000000000000000000000000000 DUP2 MSTORE PUSH1 0x4 ADD PUSH2 0xEE4 SWAP2 SWAP1 PUSH2 0x19FB JUMP JUMPDEST PUSH1 0x40 MLOAD DUP1 SWAP2 SUB SWAP1 REVERT JUMPDEST PUSH0 PUSH20 0xFFFFFFFFFFFFFFFFFFFFFFFFFFFFFFFFFFFFFFFF AND DUP3 PUSH20 0xFFFFFFFFFFFFFFFFFFFFFFFFFFFFFFFFFFFFFFFF AND SUB PUSH2 0xF5D JUMPI PUSH0 PUSH1 0x40 MLOAD PUSH32 0xEC442F0500000000000000000000000000000000000000000000000000000000 DUP2 MSTORE PUSH1 0x4 ADD PUSH2 0xF54 SWAP2 SWAP1 PUSH2 0x19FB JUMP JUMPDEST PUSH1 0x40 MLOAD DUP1 SWAP2 SUB SWAP1 REVERT JUMPDEST PUSH2 0xF68 DUP4 DUP4 DUP4 PUSH2 0x1384 JUMP JUMPDEST POP POP POP JUMP JUMPDEST PUSH2 0xF75 PUSH2 0xDD2 JUMP JUMPDEST PUSH20 0xFFFFFFFFFFFFFFFFFFFFFFFFFFFFFFFFFFFFFFFF AND PUSH2 0xF93 PUSH2 0x909 JUMP JUMPDEST PUSH20 0xFFFFFFFFFFFFFFFFFFFFFFFFFFFFFFFFFFFFFFFF AND EQ PUSH2 0xFF2 JUMPI PUSH2 0xFB6 PUSH2 0xDD2 JUMP JUMPDEST PUSH1 0x40 MLOAD PUSH32 0x118CDAA700000000000000000000000000000000000000000000000000000000 DUP2 MSTORE PUSH1 0x4 ADD PUSH2 0xFE9 SWAP2 SWAP1 PUSH2 0x19FB JUMP JUMPDEST PUSH1 0x40 MLOAD DUP1 SWAP2 SUB SWAP1 REVERT JUMPDEST JUMP JUMPDEST PUSH0 PUSH20 0xFFFFFFFFFFFFFFFFFFFFFFFFFFFFFFFFFFFFFFFF AND DUP3 PUSH20 0xFFFFFFFFFFFFFFFFFFFFFFFFFFFFFFFFFFFFFFFF AND SUB PUSH2 0x1064 JUMPI PUSH0 PUSH1 0x40 MLOAD PUSH32 0xEC442F0500000000000000000000000000000000000000000000000000000000 DUP2 MSTORE PUSH1 0x4 ADD PUSH2 0x105B SWAP2 SWAP1 PUSH2 0x19FB JUMP JUMPDEST PUSH1 0x40 MLOAD DUP1 SWAP2 SUB SWAP1 REVERT JUMPDEST PUSH2 0x106F PUSH0 DUP4 DUP4 PUSH2 0x1384 JUMP JUMPDEST POP POP JUMP JUMPDEST PUSH0 PUSH20 0xFFFFFFFFFFFFFFFFFFFFFFFFFFFFFFFFFFFFFFFF AND DUP3 PUSH20 0xFFFFFFFFFFFFFFFFFFFFFFFFFFFFFFFFFFFFFFFF AND SUB PUSH2 0x10E3 JUMPI PUSH0 PUSH1 0x40 MLOAD PUSH32 0x96C6FD1E00000000000000000000000000000000000000000000000000000000 DUP2 MSTORE PUSH1 0x4 ADD PUSH2 0x10DA SWAP2 SWAP1 PUSH2 0x19FB JUMP JUMPDEST PUSH1 0x40 MLOAD DUP1 SWAP2 SUB SWAP1 REVERT JUMPDEST PUSH2 0x10EE DUP3 PUSH0 DUP4 PUSH2 0x1384 JUMP JUMPDEST POP POP JUMP JUMPDEST PUSH0 PUSH1 0x5 PUSH0 SWAP1 SLOAD SWAP1 PUSH2 0x100 EXP SWAP1 DIV PUSH20 0xFFFFFFFFFFFFFFFFFFFFFFFFFFFFFFFFFFFFFFFF AND SWAP1 POP DUP2 PUSH1 0x5 PUSH0 PUSH2 0x100 EXP DUP2 SLOAD DUP2 PUSH20 0xFFFFFFFFFFFFFFFFFFFFFFFFFFFFFFFFFFFFFFFF MUL NOT AND SWAP1 DUP4 PUSH20 0xFFFFFFFFFFFFFFFFFFFFFFFFFFFFFFFFFFFFFFFF AND MUL OR SWAP1 SSTORE POP DUP2 PUSH20 0xFFFFFFFFFFFFFFFFFFFFFFFFFFFFFFFFFFFFFFFF AND DUP2 PUSH20 0xFFFFFFFFFFFFFFFFFFFFFFFFFFFFFFFFFFFFFFFF AND PUSH32 0x8BE0079C531659141344CD1FD0A4F28419497F9722A3DAAFE3B4186F6B6457E0 PUSH1 0x40 MLOAD PUSH1 0x40 MLOAD DUP1 SWAP2 SUB SWAP1 LOG3 POP POP JUMP JUMPDEST PUSH0 PUSH20 0xFFFFFFFFFFFFFFFFFFFFFFFFFFFFFFFFFFFFFFFF AND DUP5 PUSH20 0xFFFFFFFFFFFFFFFFFFFFFFFFFFFFFFFFFFFFFFFF AND SUB PUSH2 0x1225 JUMPI PUSH0 PUSH1 0x40 MLOAD PUSH32 0xE602DF0500000000000000000000000000000000000000000000000000000000 DUP2 MSTORE PUSH1 0x4 ADD PUSH2 0x121C SWAP2 SWAP1 PUSH2 0x19FB JUMP JUMPDEST PUSH1 0x40 MLOAD DUP1 SWAP2 SUB SWAP1 REVERT JUMPDEST PUSH0 PUSH20 0xFFFFFFFFFFFFFFFFFFFFFFFFFFFFFFFFFFFFFFFF AND DUP4 PUSH20 0xFFFFFFFFFFFFFFFFFFFFFFFFFFFFFFFFFFFFFFFF AND SUB PUSH2 0x1295 JUMPI PUSH0 PUSH1 0x40 MLOAD PUSH32 0x94280D6200000000000000000000000000000000000000000000000000000000 DUP2 MSTORE PUSH1 0x4 ADD PUSH2 0x128C SWAP2 SWAP1 PUSH2 0x19FB JUMP JUMPDEST PUSH1 0x40 MLOAD DUP1 SWAP2 SUB SWAP1 REVERT JUMPDEST DUP2 PUSH1 0x1 PUSH0 DUP7 PUSH20 0xFFFFFFFFFFFFFFFFFFFFFFFFFFFFFFFFFFFFFFFF AND PUSH20 0xFFFFFFFFFFFFFFFFFFFFFFFFFFFFFFFFFFFFFFFF AND DUP2 MSTORE PUSH1 0x20 ADD SWAP1 DUP2 MSTORE PUSH1 0x20 ADD PUSH0 KECCAK256 PUSH0 DUP6 PUSH20 0xFFFFFFFFFFFFFFFFFFFFFFFFFFFFFFFFFFFFFFFF AND PUSH20 0xFFFFFFFFFFFFFFFFFFFFFFFFFFFFFFFFFFFFFFFF AND DUP2 MSTORE PUSH1 0x20 ADD SWAP1 DUP2 MSTORE PUSH1 0x20 ADD PUSH0 KECCAK256 DUP2 SWAP1 SSTORE POP DUP1 ISZERO PUSH2 0x137E JUMPI DUP3 PUSH20 0xFFFFFFFFFFFFFFFFFFFFFFFFFFFFFFFFFFFFFFFF AND DUP5 PUSH20 0xFFFFFFFFFFFFFFFFFFFFFFFFFFFFFFFFFFFFFFFF AND PUSH32 0x8C5BE1E5EBEC7D5BD14F71427D1E84F3DD0314C0F7B2291E5B200AC8C7C3B925 DUP5 PUSH1 0x40 MLOAD PUSH2 0x1375 SWAP2 SWAP1 PUSH2 0x173E JUMP JUMPDEST PUSH1 0x40 MLOAD DUP1 SWAP2 SUB SWAP1 LOG3 JUMPDEST POP POP POP POP JUMP JUMPDEST PUSH0 PUSH20 0xFFFFFFFFFFFFFFFFFFFFFFFFFFFFFFFFFFFFFFFF AND DUP4 PUSH20 0xFFFFFFFFFFFFFFFFFFFFFFFFFFFFFFFFFFFFFFFF AND SUB PUSH2 0x13D4 JUMPI DUP1 PUSH1 0x2 PUSH0 DUP3 DUP3 SLOAD PUSH2 0x13C8 SWAP2 SWAP1 PUSH2 0x2035 JUMP JUMPDEST SWAP3 POP POP DUP2 SWAP1 SSTORE POP PUSH2 0x14A2 JUMP JUMPDEST PUSH0 DUP1 PUSH0 DUP6 PUSH20 0xFFFFFFFFFFFFFFFFFFFFFFFFFFFFFFFFFFFFFFFF AND PUSH20 0xFFFFFFFFFFFFFFFFFFFFFFFFFFFFFFFFFFFFFFFF AND DUP2 MSTORE PUSH1 0x20 ADD SWAP1 DUP2 MSTORE PUSH1 0x20 ADD PUSH0 KECCAK256 SLOAD SWAP1 POP DUP2 DUP2 LT ISZERO PUSH2 0x145D JUMPI DUP4 DUP2 DUP4 PUSH1 0x40 MLOAD PUSH32 0xE450D38C00000000000000000000000000000000000000000000000000000000 DUP2 MSTORE PUSH1 0x4 ADD PUSH2 0x1454 SWAP4 SWAP3 SWAP2 SWAP1 PUSH2 0x2000 JUMP JUMPDEST PUSH1 0x40 MLOAD DUP1 SWAP2 SUB SWAP1 REVERT JUMPDEST DUP2 DUP2 SUB PUSH0 DUP1 DUP7 PUSH20 0xFFFFFFFFFFFFFFFFFFFFFFFFFFFFFFFFFFFFFFFF AND PUSH20 0xFFFFFFFFFFFFFFFFFFFFFFFFFFFFFFFFFFFFFFFF AND DUP2 MSTORE PUSH1 0x20 ADD SWAP1 DUP2 MSTORE PUSH1 0x20 ADD PUSH0 KECCAK256 DUP2 SWAP1 SSTORE POP POP JUMPDEST PUSH0 PUSH20 0xFFFFFFFFFFFFFFFFFFFFFFFFFFFFFFFFFFFFFFFF AND DUP3 PUSH20 0xFFFFFFFFFFFFFFFFFFFFFFFFFFFFFFFFFFFFFFFF AND SUB PUSH2 0x14E9 JUMPI DUP1 PUSH1 0x2 PUSH0 DUP3 DUP3 SLOAD SUB SWAP3 POP POP DUP2 SWAP1 SSTORE POP PUSH2 0x1533 JUMP JUMPDEST DUP1 PUSH0 DUP1 DUP5 PUSH20 0xFFFFFFFFFFFFFFFFFFFFFFFFFFFFFFFFFFFFFFFF AND PUSH20 0xFFFFFFFFFFFFFFFFFFFFFFFFFFFFFFFFFFFFFFFF AND DUP2 MSTORE PUSH1 0x20 ADD SWAP1 DUP2 MSTORE PUSH1 0x20 ADD PUSH0 KECCAK256 PUSH0 DUP3 DUP3 SLOAD ADD SWAP3 POP POP DUP2 SWAP1 SSTORE POP JUMPDEST DUP2 PUSH20 0xFFFFFFFFFFFFFFFFFFFFFFFFFFFFFFFFFFFFFFFF AND DUP4 PUSH20 0xFFFFFFFFFFFFFFFFFFFFFFFFFFFFFFFFFFFFFFFF AND PUSH32 0xDDF252AD1BE2C89B69C2B068FC378DAA952BA7F163C4A11628F55A4DF523B3EF DUP4 PUSH1 0x40 MLOAD PUSH2 0x1590 SWAP2 SWAP1 PUSH2 0x173E JUMP JUMPDEST PUSH1 0x40 MLOAD DUP1 SWAP2 SUB SWAP1 LOG3 POP POP POP JUMP JUMPDEST PUSH0 DUP2 MLOAD SWAP1 POP SWAP2 SWAP1 POP JUMP JUMPDEST PUSH0 DUP3 DUP3 MSTORE PUSH1 0x20 DUP3 ADD SWAP1 POP SWAP3 SWAP2 POP POP JUMP JUMPDEST DUP3 DUP2 DUP4 MCOPY PUSH0 DUP4 DUP4 ADD MSTORE POP POP POP JUMP JUMPDEST PUSH0 PUSH1 0x1F NOT PUSH1 0x1F DUP4 ADD AND SWAP1 POP SWAP2 SWAP1 POP JUMP JUMPDEST PUSH0 PUSH2 0x15DF DUP3 PUSH2 0x159D JUMP JUMPDEST PUSH2 0x15E9 DUP2 DUP6 PUSH2 0x15A7 JUMP JUMPDEST SWAP4 POP PUSH2 0x15F9 DUP2 DUP6 PUSH1 0x20 DUP7 ADD PUSH2 0x15B7 JUMP JUMPDEST PUSH2 0x1602 DUP2 PUSH2 0x15C5 JUMP JUMPDEST DUP5 ADD SWAP2 POP POP SWAP3 SWAP2 POP POP JUMP JUMPDEST PUSH0 PUSH1 0x20 DUP3 ADD SWAP1 POP DUP2 DUP2 SUB PUSH0 DUP4 ADD MSTORE PUSH2 0x1625 DUP2 DUP5 PUSH2 0x15D5 JUMP JUMPDEST SWAP1 POP SWAP3 SWAP2 POP POP JUMP JUMPDEST PUSH0 DUP1 REVERT JUMPDEST PUSH0 PUSH20 0xFFFFFFFFFFFFFFFFFFFFFFFFFFFFFFFFFFFFFFFF DUP3 AND SWAP1 POP SWAP2 SWAP1 POP JUMP JUMPDEST PUSH0 PUSH2 0x165A DUP3 PUSH2 0x1631 JUMP JUMPDEST SWAP1 POP SWAP2 SWAP1 POP JUMP JUMPDEST PUSH2 0x166A DUP2 PUSH2 0x1650 JUMP JUMPDEST DUP2 EQ PUSH2 0x1674 JUMPI PUSH0 DUP1 REVERT JUMPDEST POP JUMP JUMPDEST PUSH0 DUP2 CALLDATALOAD SWAP1 POP PUSH2 0x1685 DUP2 PUSH2 0x1661 JUMP JUMPDEST SWAP3 SWAP2 POP POP JUMP JUMPDEST PUSH0 DUP2 SWAP1 POP SWAP2 SWAP1 POP JUMP JUMPDEST PUSH2 0x169D DUP2 PUSH2 0x168B JUMP JUMPDEST DUP2 EQ PUSH2 0x16A7 JUMPI PUSH0 DUP1 REVERT JUMPDEST POP JUMP JUMPDEST PUSH0 DUP2 CALLDATALOAD SWAP1 POP PUSH2 0x16B8 DUP2 PUSH2 0x1694 JUMP JUMPDEST SWAP3 SWAP2 POP POP JUMP JUMPDEST PUSH0 DUP1 PUSH1 0x40 DUP4 DUP6 SUB SLT ISZERO PUSH2 0x16D4 JUMPI PUSH2 0x16D3 PUSH2 0x162D JUMP JUMPDEST JUMPDEST PUSH0 PUSH2 0x16E1 DUP6 DUP3 DUP7 ADD PUSH2 0x1677 JUMP JUMPDEST SWAP3 POP POP PUSH1 0x20 PUSH2 0x16F2 DUP6 DUP3 DUP7 ADD PUSH2 0x16AA JUMP JUMPDEST SWAP2 POP POP SWAP3 POP SWAP3 SWAP1 POP JUMP JUMPDEST PUSH0 DUP2 ISZERO ISZERO SWAP1 POP SWAP2 SWAP1 POP JUMP JUMPDEST PUSH2 0x1710 DUP2 PUSH2 0x16FC JUMP JUMPDEST DUP3 MSTORE POP POP JUMP JUMPDEST PUSH0 PUSH1 0x20 DUP3 ADD SWAP1 POP PUSH2 0x1729 PUSH0 DUP4 ADD DUP5 PUSH2 0x1707 JUMP JUMPDEST SWAP3 SWAP2 POP POP JUMP JUMPDEST PUSH2 0x1738 DUP2 PUSH2 0x168B JUMP JUMPDEST DUP3 MSTORE POP POP JUMP JUMPDEST PUSH0 PUSH1 0x20 DUP3 ADD SWAP1 POP PUSH2 0x1751 PUSH0 DUP4 ADD DUP5 PUSH2 0x172F JUMP JUMPDEST SWAP3 SWAP2 POP POP JUMP JUMPDEST PUSH0 DUP1 PUSH0 PUSH1 0x60 DUP5 DUP7 SUB SLT ISZERO PUSH2 0x176E JUMPI PUSH2 0x176D PUSH2 0x162D JUMP JUMPDEST JUMPDEST PUSH0 PUSH2 0x177B DUP7 DUP3 DUP8 ADD PUSH2 0x1677 JUMP JUMPDEST SWAP4 POP POP PUSH1 0x20 PUSH2 0x178C DUP7 DUP3 DUP8 ADD PUSH2 0x1677 JUMP JUMPDEST SWAP3 POP POP PUSH1 0x40 PUSH2 0x179D DUP7 DUP3 DUP8 ADD PUSH2 0x16AA JUMP JUMPDEST SWAP2 POP POP SWAP3 POP SWAP3 POP SWAP3 JUMP JUMPDEST PUSH0 PUSH1 0xFF DUP3 AND SWAP1 POP SWAP2 SWAP1 POP JUMP JUMPDEST PUSH2 0x17BC DUP2 PUSH2 0x17A7 JUMP JUMPDEST DUP3 MSTORE POP POP JUMP JUMPDEST PUSH0 PUSH1 0x20 DUP3 ADD SWAP1 POP PUSH2 0x17D5 PUSH0 DUP4 ADD DUP5 PUSH2 0x17B3 JUMP JUMPDEST SWAP3 SWAP2 POP POP JUMP JUMPDEST PUSH0 PUSH1 0x20 DUP3 DUP5 SUB SLT ISZERO PUSH2 0x17F0 JUMPI PUSH2 0x17EF PUSH2 0x162D JUMP JUMPDEST JUMPDEST PUSH0 PUSH2 0x17FD DUP5 DUP3 DUP6 ADD PUSH2 0x16AA JUMP JUMPDEST SWAP2 POP POP SWAP3 SWAP2 POP POP JUMP JUMPDEST PUSH0 PUSH1 0x60 DUP3 ADD SWAP1 POP PUSH2 0x1819 PUSH0 DUP4 ADD DUP7 PUSH2 0x172F JUMP JUMPDEST DUP2 DUP2 SUB PUSH1 0x20 DUP4 ADD MSTORE PUSH2 0x182B DUP2 DUP6 PUSH2 0x15D5 JUMP JUMPDEST SWAP1 POP PUSH2 0x183A PUSH1 0x40 DUP4 ADD DUP5 PUSH2 0x172F JUMP JUMPDEST SWAP5 SWAP4 POP POP POP POP JUMP JUMPDEST PUSH0 PUSH1 0x20 DUP3 DUP5 SUB SLT ISZERO PUSH2 0x1857 JUMPI PUSH2 0x1856 PUSH2 0x162D JUMP JUMPDEST JUMPDEST PUSH0 PUSH2 0x1864 DUP5 DUP3 DUP6 ADD PUSH2 0x1677 JUMP JUMPDEST SWAP2 POP POP SWAP3 SWAP2 POP POP JUMP JUMPDEST PUSH0 DUP2 MLOAD SWAP1 POP SWAP2 SWAP1 POP JUMP JUMPDEST PUSH0 DUP3 DUP3 MSTORE PUSH1 0x20 DUP3 ADD SWAP1 POP SWAP3 SWAP2 POP POP JUMP JUMPDEST PUSH0 DUP2 SWAP1 POP PUSH1 0x20 DUP3 ADD SWAP1 POP SWAP2 SWAP1 POP JUMP JUMPDEST PUSH2 0x189F DUP2 PUSH2 0x168B JUMP JUMPDEST DUP3 MSTORE POP POP JUMP JUMPDEST PUSH0 DUP3 DUP3 MSTORE PUSH1 0x20 DUP3 ADD SWAP1 POP SWAP3 SWAP2 POP POP JUMP JUMPDEST PUSH0 PUSH2 0x18BF DUP3 PUSH2 0x159D JUMP JUMPDEST PUSH2 0x18C9 DUP2 DUP6 PUSH2 0x18A5 JUMP JUMPDEST SWAP4 POP PUSH2 0x18D9 DUP2 DUP6 PUSH1 0x20 DUP7 ADD PUSH2 0x15B7 JUMP JUMPDEST PUSH2 0x18E2 DUP2 PUSH2 0x15C5 JUMP JUMPDEST DUP5 ADD SWAP2 POP POP SWAP3 SWAP2 POP POP JUMP JUMPDEST PUSH0 PUSH1 0x60 DUP4 ADD PUSH0 DUP4 ADD MLOAD PUSH2 0x1902 PUSH0 DUP7 ADD DUP3 PUSH2 0x1896 JUMP JUMPDEST POP PUSH1 0x20 DUP4 ADD MLOAD DUP5 DUP3 SUB PUSH1 0x20 DUP7 ADD MSTORE PUSH2 0x191A DUP3 DUP3 PUSH2 0x18B5 JUMP JUMPDEST SWAP2 POP POP PUSH1 0x40 DUP4 ADD MLOAD PUSH2 0x192F PUSH1 0x40 DUP7 ADD DUP3 PUSH2 0x1896 JUMP JUMPDEST POP DUP1 SWAP2 POP POP SWAP3 SWAP2 POP POP JUMP JUMPDEST PUSH0 PUSH2 0x1945 DUP4 DUP4 PUSH2 0x18ED JUMP JUMPDEST SWAP1 POP SWAP3 SWAP2 POP POP JUMP JUMPDEST PUSH0 PUSH1 0x20 DUP3 ADD SWAP1 POP SWAP2 SWAP1 POP JUMP JUMPDEST PUSH0 PUSH2 0x1963 DUP3 PUSH2 0x186D JUMP JUMPDEST PUSH2 0x196D DUP2 DUP6 PUSH2 0x1877 JUMP JUMPDEST SWAP4 POP DUP4 PUSH1 0x20 DUP3 MUL DUP6 ADD PUSH2 0x197F DUP6 PUSH2 0x1887 JUMP JUMPDEST DUP1 PUSH0 JUMPDEST DUP6 DUP2 LT ISZERO PUSH2 0x19BA JUMPI DUP5 DUP5 SUB DUP10 MSTORE DUP2 MLOAD PUSH2 0x199B DUP6 DUP3 PUSH2 0x193A JUMP JUMPDEST SWAP5 POP PUSH2 0x19A6 DUP4 PUSH2 0x194D JUMP JUMPDEST SWAP3 POP PUSH1 0x20 DUP11 ADD SWAP10 POP POP PUSH1 0x1 DUP2 ADD SWAP1 POP PUSH2 0x1982 JUMP JUMPDEST POP DUP3 SWAP8 POP DUP8 SWAP6 POP POP POP POP POP POP SWAP3 SWAP2 POP POP JUMP JUMPDEST PUSH0 PUSH1 0x20 DUP3 ADD SWAP1 POP DUP2 DUP2 SUB PUSH0 DUP4 ADD MSTORE PUSH2 0x19E4 DUP2 DUP5 PUSH2 0x1959 JUMP JUMPDEST SWAP1 POP SWAP3 SWAP2 POP POP JUMP JUMPDEST PUSH2 0x19F5 DUP2 PUSH2 0x1650 JUMP JUMPDEST DUP3 MSTORE POP POP JUMP JUMPDEST PUSH0 PUSH1 0x20 DUP3 ADD SWAP1 POP PUSH2 0x1A0E PUSH0 DUP4 ADD DUP5 PUSH2 0x19EC JUMP JUMPDEST SWAP3 SWAP2 POP POP JUMP JUMPDEST PUSH0 DUP1 PUSH1 0x40 DUP4 DUP6 SUB SLT ISZERO PUSH2 0x1A2A JUMPI PUSH2 0x1A29 PUSH2 0x162D JUMP JUMPDEST JUMPDEST PUSH0 PUSH2 0x1A37 DUP6 DUP3 DUP7 ADD PUSH2 0x1677 JUMP JUMPDEST SWAP3 POP POP PUSH1 0x20 PUSH2 0x1A48 DUP6 DUP3 DUP7 ADD PUSH2 0x1677 JUMP JUMPDEST SWAP2 POP POP SWAP3 POP SWAP3 SWAP1 POP JUMP JUMPDEST PUSH32 0x4E487B7100000000000000000000000000000000000000000000000000000000 PUSH0 MSTORE PUSH1 0x22 PUSH1 0x4 MSTORE PUSH1 0x24 PUSH0 REVERT JUMPDEST PUSH0 PUSH1 0x2 DUP3 DIV SWAP1 POP PUSH1 0x1 DUP3 AND DUP1 PUSH2 0x1A96 JUMPI PUSH1 0x7F DUP3 AND SWAP2 POP JUMPDEST PUSH1 0x20 DUP3 LT DUP2 SUB PUSH2 0x1AA9 JUMPI PUSH2 0x1AA8 PUSH2 0x1A52 JUMP JUMPDEST JUMPDEST POP SWAP2 SWAP1 POP JUMP JUMPDEST PUSH0 DUP2 MLOAD SWAP1 POP PUSH2 0x1ABD DUP2 PUSH2 0x1694 JUMP JUMPDEST SWAP3 SWAP2 POP POP JUMP JUMPDEST PUSH0 PUSH1 0x20 DUP3 DUP5 SUB SLT ISZERO PUSH2 0x1AD8 JUMPI PUSH2 0x1AD7 PUSH2 0x162D JUMP JUMPDEST JUMPDEST PUSH0 PUSH2 0x1AE5 DUP5 DUP3 DUP6 ADD PUSH2 0x1AAF JUMP JUMPDEST SWAP2 POP POP SWAP3 SWAP2 POP POP JUMP JUMPDEST PUSH32 0x596F7520646F206E6F74206861766520656E6F75676820446567656E20546F6B PUSH0 DUP3 ADD MSTORE PUSH32 0x656E730000000000000000000000000000000000000000000000000000000000 PUSH1 0x20 DUP3 ADD MSTORE POP JUMP JUMPDEST PUSH0 PUSH2 0x1B48 PUSH1 0x23 DUP4 PUSH2 0x15A7 JUMP JUMPDEST SWAP2 POP PUSH2 0x1B53 DUP3 PUSH2 0x1AEE JUMP JUMPDEST PUSH1 0x40 DUP3 ADD SWAP1 POP SWAP2 SWAP1 POP JUMP JUMPDEST PUSH0 PUSH1 0x20 DUP3 ADD SWAP1 POP DUP2 DUP2 SUB PUSH0 DUP4 ADD MSTORE PUSH2 0x1B75 DUP2 PUSH2 0x1B3C JUMP JUMPDEST SWAP1 POP SWAP2 SWAP1 POP JUMP JUMPDEST PUSH32 0x5472616E73666572206661696C65643A20696E73756666696369656E74206261 PUSH0 DUP3 ADD MSTORE PUSH32 0x6C616E6365000000000000000000000000000000000000000000000000000000 PUSH1 0x20 DUP3 ADD MSTORE POP JUMP JUMPDEST PUSH0 PUSH2 0x1BD6 PUSH1 0x25 DUP4 PUSH2 0x15A7 JUMP JUMPDEST SWAP2 POP PUSH2 0x1BE1 DUP3 PUSH2 0x1B7C JUMP JUMPDEST PUSH1 0x40 DUP3 ADD SWAP1 POP SWAP2 SWAP1 POP JUMP JUMPDEST PUSH0 PUSH1 0x20 DUP3 ADD SWAP1 POP DUP2 DUP2 SUB PUSH0 DUP4 ADD MSTORE PUSH2 0x1C03 DUP2 PUSH2 0x1BCA JUMP JUMPDEST SWAP1 POP SWAP2 SWAP1 POP JUMP JUMPDEST PUSH32 0x496E76616C6964206974656D2049440000000000000000000000000000000000 PUSH0 DUP3 ADD MSTORE POP JUMP JUMPDEST PUSH0 PUSH2 0x1C3E PUSH1 0xF DUP4 PUSH2 0x15A7 JUMP JUMPDEST SWAP2 POP PUSH2 0x1C49 DUP3 PUSH2 0x1C0A JUMP JUMPDEST PUSH1 0x20 DUP3 ADD SWAP1 POP SWAP2 SWAP1 POP JUMP JUMPDEST PUSH0 PUSH1 0x20 DUP3 ADD SWAP1 POP DUP2 DUP2 SUB PUSH0 DUP4 ADD MSTORE PUSH2 0x1C6B DUP2 PUSH2 0x1C32 JUMP JUMPDEST SWAP1 POP SWAP2 SWAP1 POP JUMP JUMPDEST PUSH32 0x4E487B7100000000000000000000000000000000000000000000000000000000 PUSH0 MSTORE PUSH1 0x11 PUSH1 0x4 MSTORE PUSH1 0x24 PUSH0 REVERT JUMPDEST PUSH0 PUSH2 0x1CA9 DUP3 PUSH2 0x168B JUMP JUMPDEST SWAP2 POP PUSH2 0x1CB4 DUP4 PUSH2 0x168B JUMP JUMPDEST SWAP3 POP DUP3 DUP3 SUB SWAP1 POP DUP2 DUP2 GT ISZERO PUSH2 0x1CCC JUMPI PUSH2 0x1CCB PUSH2 0x1C72 JUMP JUMPDEST JUMPDEST SWAP3 SWAP2 POP POP JUMP JUMPDEST PUSH32 0x4E487B7100000000000000000000000000000000000000000000000000000000 PUSH0 MSTORE PUSH1 0x32 PUSH1 0x4 MSTORE PUSH1 0x24 PUSH0 REVERT JUMPDEST PUSH32 0x496E73756666696369656E742062616C616E636520746F2072656465656D0000 PUSH0 DUP3 ADD MSTORE POP JUMP JUMPDEST PUSH0 PUSH2 0x1D33 PUSH1 0x1E DUP4 PUSH2 0x15A7 JUMP JUMPDEST SWAP2 POP PUSH2 0x1D3E DUP3 PUSH2 0x1CFF JUMP JUMPDEST PUSH1 0x20 DUP3 ADD SWAP1 POP SWAP2 SWAP1 POP JUMP JUMPDEST PUSH0 PUSH1 0x20 DUP3 ADD SWAP1 POP DUP2 DUP2 SUB PUSH0 DUP4 ADD MSTORE PUSH2 0x1D60 DUP2 PUSH2 0x1D27 JUMP JUMPDEST SWAP1 POP SWAP2 SWAP1 POP JUMP JUMPDEST PUSH32 0x4E487B7100000000000000000000000000000000000000000000000000000000 PUSH0 MSTORE PUSH1 0x41 PUSH1 0x4 MSTORE PUSH1 0x24 PUSH0 REVERT JUMPDEST PUSH0 DUP2 SWAP1 POP DUP2 PUSH0 MSTORE PUSH1 0x20 PUSH0 KECCAK256 SWAP1 POP SWAP2 SWAP1 POP JUMP JUMPDEST PUSH0 PUSH1 0x20 PUSH1 0x1F DUP4 ADD DIV SWAP1 POP SWAP2 SWAP1 POP JUMP JUMPDEST PUSH0 DUP3 DUP3 SHL SWAP1 POP SWAP3 SWAP2 POP POP JUMP JUMPDEST PUSH0 PUSH1 0x8 DUP4 MUL PUSH2 0x1DF0 PUSH32 0xFFFFFFFFFFFFFFFFFFFFFFFFFFFFFFFFFFFFFFFFFFFFFFFFFFFFFFFFFFFFFFFF DUP3 PUSH2 0x1DB5 JUMP JUMPDEST PUSH2 0x1DFA DUP7 DUP4 PUSH2 0x1DB5 JUMP JUMPDEST SWAP6 POP DUP1 NOT DUP5 AND SWAP4 POP DUP1 DUP7 AND DUP5 OR SWAP3 POP POP POP SWAP4 SWAP3 POP POP POP JUMP JUMPDEST PUSH0 DUP2 SWAP1 POP SWAP2 SWAP1 POP JUMP JUMPDEST PUSH0 PUSH2 0x1E35 PUSH2 0x1E30 PUSH2 0x1E2B DUP5 PUSH2 0x168B JUMP JUMPDEST PUSH2 0x1E12 JUMP JUMPDEST PUSH2 0x168B JUMP JUMPDEST SWAP1 POP SWAP2 SWAP1 POP JUMP JUMPDEST PUSH0 DUP2 SWAP1 POP SWAP2 SWAP1 POP JUMP JUMPDEST PUSH2 0x1E4E DUP4 PUSH2 0x1E1B JUMP JUMPDEST PUSH2 0x1E62 PUSH2 0x1E5A DUP3 PUSH2 0x1E3C JUMP JUMPDEST DUP5 DUP5 SLOAD PUSH2 0x1DC1 JUMP JUMPDEST DUP3 SSTORE POP POP POP POP JUMP JUMPDEST PUSH0 SWAP1 JUMP JUMPDEST PUSH2 0x1E76 PUSH2 0x1E6A JUMP JUMPDEST PUSH2 0x1E81 DUP2 DUP5 DUP5 PUSH2 0x1E45 JUMP JUMPDEST POP POP POP JUMP JUMPDEST JUMPDEST DUP2 DUP2 LT ISZERO PUSH2 0x1EA4 JUMPI PUSH2 0x1E99 PUSH0 DUP3 PUSH2 0x1E6E JUMP JUMPDEST PUSH1 0x1 DUP2 ADD SWAP1 POP PUSH2 0x1E87 JUMP JUMPDEST POP POP JUMP JUMPDEST PUSH1 0x1F DUP3 GT ISZERO PUSH2 0x1EE9 JUMPI PUSH2 0x1EBA DUP2 PUSH2 0x1D94 JUMP JUMPDEST PUSH2 0x1EC3 DUP5 PUSH2 0x1DA6 JUMP JUMPDEST DUP2 ADD PUSH1 0x20 DUP6 LT ISZERO PUSH2 0x1ED2 JUMPI DUP2 SWAP1 POP JUMPDEST PUSH2 0x1EE6 PUSH2 0x1EDE DUP6 PUSH2 0x1DA6 JUMP JUMPDEST DUP4 ADD DUP3 PUSH2 0x1E86 JUMP JUMPDEST POP POP JUMPDEST POP POP POP JUMP JUMPDEST PUSH0 DUP3 DUP3 SHR SWAP1 POP SWAP3 SWAP2 POP POP JUMP JUMPDEST PUSH0 PUSH2 0x1F09 PUSH0 NOT DUP5 PUSH1 0x8 MUL PUSH2 0x1EEE JUMP JUMPDEST NOT DUP1 DUP4 AND SWAP2 POP POP SWAP3 SWAP2 POP POP JUMP JUMPDEST PUSH0 PUSH2 0x1F21 DUP4 DUP4 PUSH2 0x1EFA JUMP JUMPDEST SWAP2 POP DUP3 PUSH1 0x2 MUL DUP3 OR SWAP1 POP SWAP3 SWAP2 POP POP JUMP JUMPDEST PUSH2 0x1F3A DUP3 PUSH2 0x159D JUMP JUMPDEST PUSH8 0xFFFFFFFFFFFFFFFF DUP2 GT ISZERO PUSH2 0x1F53 JUMPI PUSH2 0x1F52 PUSH2 0x1D67 JUMP JUMPDEST JUMPDEST PUSH2 0x1F5D DUP3 SLOAD PUSH2 0x1A7F JUMP JUMPDEST PUSH2 0x1F68 DUP3 DUP3 DUP6 PUSH2 0x1EA8 JUMP JUMPDEST PUSH0 PUSH1 0x20 SWAP1 POP PUSH1 0x1F DUP4 GT PUSH1 0x1 DUP2 EQ PUSH2 0x1F99 JUMPI PUSH0 DUP5 ISZERO PUSH2 0x1F87 JUMPI DUP3 DUP8 ADD MLOAD SWAP1 POP JUMPDEST PUSH2 0x1F91 DUP6 DUP3 PUSH2 0x1F16 JUMP JUMPDEST DUP7 SSTORE POP PUSH2 0x1FF8 JUMP JUMPDEST PUSH1 0x1F NOT DUP5 AND PUSH2 0x1FA7 DUP7 PUSH2 0x1D94 JUMP JUMPDEST PUSH0 JUMPDEST DUP3 DUP2 LT ISZERO PUSH2 0x1FCE JUMPI DUP5 DUP10 ADD MLOAD DUP3 SSTORE PUSH1 0x1 DUP3 ADD SWAP2 POP PUSH1 0x20 DUP6 ADD SWAP5 POP PUSH1 0x20 DUP2 ADD SWAP1 POP PUSH2 0x1FA9 JUMP JUMPDEST DUP7 DUP4 LT ISZERO PUSH2 0x1FEB JUMPI DUP5 DUP10 ADD MLOAD PUSH2 0x1FE7 PUSH1 0x1F DUP10 AND DUP3 PUSH2 0x1EFA JUMP JUMPDEST DUP4 SSTORE POP JUMPDEST PUSH1 0x1 PUSH1 0x2 DUP9 MUL ADD DUP9 SSTORE POP POP POP JUMPDEST POP POP POP POP POP POP JUMP JUMPDEST PUSH0 PUSH1 0x60 DUP3 ADD SWAP1 POP PUSH2 0x2013 PUSH0 DUP4 ADD DUP7 PUSH2 0x19EC JUMP JUMPDEST PUSH2 0x2020 PUSH1 0x20 DUP4 ADD DUP6 PUSH2 0x172F JUMP JUMPDEST PUSH2 0x202D PUSH1 0x40 DUP4 ADD DUP5 PUSH2 0x172F JUMP JUMPDEST SWAP5 SWAP4 POP POP POP POP JUMP JUMPDEST PUSH0 PUSH2 0x203F DUP3 PUSH2 0x168B JUMP JUMPDEST SWAP2 POP PUSH2 0x204A DUP4 PUSH2 0x168B JUMP JUMPDEST SWAP3 POP DUP3 DUP3 ADD SWAP1 POP DUP1 DUP3 GT ISZERO PUSH2 0x2062 JUMPI PUSH2 0x2061 PUSH2 0x1C72 JUMP JUMPDEST JUMPDEST SWAP3 SWAP2 POP POP JUMP INVALID LOG2 PUSH5 0x6970667358 0x22 SLT KECCAK256 SLT 0xDD GASLIMIT 0xB0 PUSH1 0xD8 PUSH27 0x7C8B6DE272B2F0623552785E605C0A0F439BAACA9DB0AD5CCF6473 PUSH16 0x6C634300081A00330000000000000000 "
				},
				"gasEstimates": {
					"creation": {
						"codeDepositCost": "1670000",
						"executionCost": "infinite",
						"totalCost": "infinite"
					},
					"external": {
						"allowance(address,address)": "infinite",
						"approve(address,uint256)": "infinite",
						"balanceOf(address)": "2940",
						"burnTokens(uint256)": "infinite",
						"decimals()": "353",
						"gameItems(uint256)": "infinite",
						"getBalance()": "infinite",
						"getGameItems()": "infinite",
						"getOwnedItems()": "infinite",
						"mint(address,uint256)": "infinite",
						"name()": "infinite",
						"owner()": "2604",
						"redeem(uint256)": "infinite",
						"renounceOwnership()": "infinite",
						"symbol()": "infinite",
						"totalSupply()": "2522",
						"transfer(address,uint256)": "infinite",
						"transferFrom(address,address,uint256)": "infinite",
						"transferOwnership(address)": "infinite",
						"transferTokens(address,uint256)": "infinite"
					}
				},
				"methodIdentifiers": {
					"allowance(address,address)": "dd62ed3e",
					"approve(address,uint256)": "095ea7b3",
					"balanceOf(address)": "70a08231",
					"burnTokens(uint256)": "6d1b229d",
					"decimals()": "313ce567",
					"gameItems(uint256)": "430074c2",
					"getBalance()": "12065fe0",
					"getGameItems()": "7a97840d",
					"getOwnedItems()": "8cffa21c",
					"mint(address,uint256)": "40c10f19",
					"name()": "06fdde03",
					"owner()": "8da5cb5b",
					"redeem(uint256)": "db006a75",
					"renounceOwnership()": "715018a6",
					"symbol()": "95d89b41",
					"totalSupply()": "18160ddd",
					"transfer(address,uint256)": "a9059cbb",
					"transferFrom(address,address,uint256)": "23b872dd",
					"transferOwnership(address)": "f2fde38b",
					"transferTokens(address,uint256)": "bec3fa17"
				}
			},
			"storageLayout": {
				"storage": [
					{
						"astId": 307,
						"contract": "MetaCraftersAssesment6-main/contracts/DegenToken.sol:DegenToken",
						"label": "_balances",
						"offset": 0,
						"slot": "0",
						"type": "t_mapping(t_address,t_uint256)"
					},
					{
						"astId": 313,
						"contract": "MetaCraftersAssesment6-main/contracts/DegenToken.sol:DegenToken",
						"label": "_allowances",
						"offset": 0,
						"slot": "1",
						"type": "t_mapping(t_address,t_mapping(t_address,t_uint256))"
					},
					{
						"astId": 315,
						"contract": "MetaCraftersAssesment6-main/contracts/DegenToken.sol:DegenToken",
						"label": "_totalSupply",
						"offset": 0,
						"slot": "2",
						"type": "t_uint256"
					},
					{
						"astId": 317,
						"contract": "MetaCraftersAssesment6-main/contracts/DegenToken.sol:DegenToken",
						"label": "_name",
						"offset": 0,
						"slot": "3",
						"type": "t_string_storage"
					},
					{
						"astId": 319,
						"contract": "MetaCraftersAssesment6-main/contracts/DegenToken.sol:DegenToken",
						"label": "_symbol",
						"offset": 0,
						"slot": "4",
						"type": "t_string_storage"
					},
					{
						"astId": 8,
						"contract": "MetaCraftersAssesment6-main/contracts/DegenToken.sol:DegenToken",
						"label": "_owner",
						"offset": 0,
						"slot": "5",
						"type": "t_address"
					},
					{
						"astId": 952,
						"contract": "MetaCraftersAssesment6-main/contracts/DegenToken.sol:DegenToken",
						"label": "gameItems",
						"offset": 0,
						"slot": "6",
						"type": "t_array(t_struct(GameItem)948_storage)dyn_storage"
					},
					{
						"astId": 958,
						"contract": "MetaCraftersAssesment6-main/contracts/DegenToken.sol:DegenToken",
						"label": "ownedItems",
						"offset": 0,
						"slot": "7",
						"type": "t_mapping(t_address,t_array(t_struct(GameItem)948_storage)dyn_storage)"
					}
				],
				"types": {
					"t_address": {
						"encoding": "inplace",
						"label": "address",
						"numberOfBytes": "20"
					},
					"t_array(t_struct(GameItem)948_storage)dyn_storage": {
						"base": "t_struct(GameItem)948_storage",
						"encoding": "dynamic_array",
						"label": "struct DegenToken.GameItem[]",
						"numberOfBytes": "32"
					},
					"t_mapping(t_address,t_array(t_struct(GameItem)948_storage)dyn_storage)": {
						"encoding": "mapping",
						"key": "t_address",
						"label": "mapping(address => struct DegenToken.GameItem[])",
						"numberOfBytes": "32",
						"value": "t_array(t_struct(GameItem)948_storage)dyn_storage"
					},
					"t_mapping(t_address,t_mapping(t_address,t_uint256))": {
						"encoding": "mapping",
						"key": "t_address",
						"label": "mapping(address => mapping(address => uint256))",
						"numberOfBytes": "32",
						"value": "t_mapping(t_address,t_uint256)"
					},
					"t_mapping(t_address,t_uint256)": {
						"encoding": "mapping",
						"key": "t_address",
						"label": "mapping(address => uint256)",
						"numberOfBytes": "32",
						"value": "t_uint256"
					},
					"t_string_storage": {
						"encoding": "bytes",
						"label": "string",
						"numberOfBytes": "32"
					},
					"t_struct(GameItem)948_storage": {
						"encoding": "inplace",
						"label": "struct DegenToken.GameItem",
						"members": [
							{
								"astId": 943,
								"contract": "MetaCraftersAssesment6-main/contracts/DegenToken.sol:DegenToken",
								"label": "itemId",
								"offset": 0,
								"slot": "0",
								"type": "t_uint256"
							},
							{
								"astId": 945,
								"contract": "MetaCraftersAssesment6-main/contracts/DegenToken.sol:DegenToken",
								"label": "itemName",
								"offset": 0,
								"slot": "1",
								"type": "t_string_storage"
							},
							{
								"astId": 947,
								"contract": "MetaCraftersAssesment6-main/contracts/DegenToken.sol:DegenToken",
								"label": "itemCost",
								"offset": 0,
								"slot": "2",
								"type": "t_uint256"
							}
						],
						"numberOfBytes": "96"
					},
					"t_uint256": {
						"encoding": "inplace",
						"label": "uint256",
						"numberOfBytes": "32"
					}
				}
			},
			"userdoc": {
				"kind": "user",
				"methods": {},
				"version": 1
			}
		}
	}
}